S0120000736F756E73656E736F722E73726563B3
S11300000C944B000C945D000C945D000C94540112
S11300100C945D000C945D000C945D000C945D00E8
S11300200C945D000C945D000C945D000C945D00D8
S11300300C945D000C945D000C945D000C945D00C8
S11300400C945D000C945D000C945D000C945D00B8
S11300500C945D000C945D000C945D000C945D00A8
S11300600C945D000C945D00084AD73B3BCE016EB6
S113007084BCBFFDC12F3D6C74319ABD56833DDAFB
S11300803D00C77F11BED9E4BB4C3E916BAAAABE0A
S1130090000000803F0011241FBECFEFD8E0DEBF78
S11300A0CDBF21E0A0E0B1E001C01D92AC32B207A7
S11300B0E1F70E94A0020C9412050C940000229A0D
S11300C02398249A2598EBE6F0E080818862808367
S11300D0E8E6F0E08081816080837894E1E8F0E0F4
S11300E08081836080830895E4E8F0E011821082C7
S11300F02081318195B141E050E002C0440F551F89
S11301008A95E2F7942B95B92E5F3F4F80819181B8
S113011082179307D8F385B14095482345B90895CC
S11301208F929F92AF92BF92CF92DF92EF92FF9203
S1130130C0902001D0902101E0902201F090230191
S113014020E030E040EA51E4C701B6010E944403D4
S113015018160CF44BC08090240190902501A090B7
S11301602601B0902701A5019401C701B6010E94A0
S113017044031816DCF1A7019601C501B4010E94DD
S1130180A802609318017093190180931A01909347
S11301901B0123E333E343ED50E40E9449036093DE
S11301A014017093150180931601909317010E9416
S11301B0150360931C0170931D0180931E0190939D
S11301C01F0120E030E044E353E40E94A10423EC47
S11301D035EF48E450E40E9449036093280170938A
S11301E0290180932A0190932B0155C0809024010A
S11301F090902501A0902601B090270120E030E0E6
S113020040EA51E4C501B4010E94440318160CF4F9
S113021042C0A5019401C701B6010E949404882339
S1130220D4F1A5019401C701B6010E94A80260930C
S113023018017093190180931A0190931B0123E311
S113024033E343ED50E40E94490360931401709337
S1130250150180931601909317010E941503609372
S11302601C0170931D0180931E0190931F0120E0D7
S113027030E044E353E40E94A10423EC35EF48E466
S113028050E40E94490360932801709329018093EC
S11302902A0190932B01FF90EF90DF90CF90BF90B5
S11302A0AF909F908F9008951F920F920FB60F9268
S11302B011240F931F932F933F934F935F936F9347
S11302C07F938F939F93AF93BF93CF93DF93EF93DA
S11302D0FF9383B190E08F779093030180930201A1
S11302E0892B41F4809100019091010190930301C5
S11302F08093020180910201909103018130910564
S113030009F473C01CF4009749F0D7C088309105F4
S113031029F08032910509F468C0CFC0209106010C
S113032030910701232BC1F41092010110920001B6
S1130330E4E8F0E0118210828081918190931101B0
S1130340809310018091060190910701019690938A
S1130350070180930601B1C02FEF3FEF30930101F5
S113036020930001609184007091850070930F01C7
S113037060930E012091100130911101621B730BE7
S11303808B01072E000C220B330B00930A011093F0
S11303900B0120930C0130930D01660F771F660F3C
S11303A0771F7093090160930801880F991F880FC4
S11303B0991FEC01C05EDE4F80E090E00E94BB0319
S11303C020E030E048E652E40E94490326E636E69F
S11303D046EE5FE30E94A902688379838A839B8344
S11303E0109207011092060168C020910401309117
S11303F00501232BD1F481E090E0909301018093D7
S11304000001E4E8F0E011821082808191819093F0
S113041011018093100180910401909105010196CE
S1130420909305018093040148C02EEF3FEF309371
S11304300101209300016091840070918500709304
S11304400F0160930E012091100130911101621B84
S1130450730B8B01072E000C220B330B00930A0144
S113046010930B0120930C0130930D01660F771F3D
S1130470660F771F7093090160930801880F991F15
S1130480880F991FEC01C05EDE4F80E090E00E946F
S1130490BB0320E030E048E652E40E94490326E62C
S11304A036E646EE5FE30E94A902688379838A8375
S11304B09B831092050110920401FF91EF91DF914B
S11304C0CF91BF91AF919F918F917F916F915F91E8
S11304D04F913F912F911F910F910F900FBE0F904D
S11304E01F901895809184009091850088399A43D3
S11304F088F08091120190911301892B59F484E0C2
S113050090E00E94740081E090E090931301809346
S113051012010895809184009091850088399A434E
S113052070F08091120190911301019741F482E0DF
S113053090E00E9474001092130110921201089529
S11305400E945F0078940E9472020E949000FBCF88
S11305505058BB27AA270E94C0020C945A040E9438
S11305604C0438F00E94530420F039F49F3F19F4EE
S113057026F40C9422040EF4E095E7FB0C941C047E
S1130580E92F0E946B0458F3BA17620773078407B4
S1130590950720F079F4A6F50C948D040EF4E095FB
S11305A00B2EBA2FA02D0B01B90190010C01CA0129
S11305B0A0011124FF27591B99F0593F50F4503ED4
S11305C068F11A16F040A22F232F342F4427585FC6
S11305D0F3CF469537952795A795F0405395C9F7DE
S11305E07EF41F16BA0B620B730B840BBAF0915096
S11305F0A1F0FF0FBB1F661F771F881FC2F70EC035
S1130600BA0F621F731F841F48F487957795679507
S1130610B795F7959E3F08F0B0CF9395880F08F0F3
S11306209927EE0F979587950895DF93DD27B92FC6
S1130630BF7740E85FE31616170648075B0718F410
S1130640D92F0E9499049F938F937F936F930E9455
S11306500E05E8E6F0E00E9425040E945A042F915A
S11306603F914F915F910E94B404DD2351F0905863
S1130670A2EA2AED3FE049EC5FE3D0785D270E94CF
S1130680C002DF910C945A040E94F80308F481E03C
S113069008950E945D030C945A040E94530458F078
S11306A00E944C0440F029F45F3F29F00C941C0490
S11306B051110C948E040C9422040E946B0468F370
S11306C09923B1F3552391F3951B550BBB27AA2707
S11306D062177307840738F09F5F5F4F220F331F41
S11306E0441FAA1FA9F335D00E2E3AF0E0E832D009
S11306F091505040E695001CCAF72BD0FE2F29D00C
S1130700660F771F881FBB1F261737074807AB07DD
S1130710B0E809F0BB0B802DBF01FF2793585F4F52
S11307203AF09E3F510578F00C941C040C948E040E
S11307305F3FE4F3983ED4F3869577956795B79534
S1130740F7959F5FC9F7880F911D9695879597F93F
S11307500895E1E0660F771F881FBB1F62177307B8
S11307608407BA0720F0621B730B840BBA0BEE1FCD
S113077088F7E0950895E89409C097FB3EF49095B6
S11307808095709561957F4F8F4F9F4F9923A9F066
S1130790F92F96E9BB279395F695879577956795F5
S11307A0B795F111F8CFFAF4BB0F11F460FF1BC039
S11307B06F5F7F4F8F4F9F4F16C0882311F096E9CC
S11307C011C0772321F09EE8872F762F05C066237A
S11307D071F096E8862F70E060E02AF09A95660F33
S11307E0771F881FDAF7880F9695879597F90895EC
S11307F0990F0008550FAA0BE0E8FEEF161617062E
S1130800E807F907C0F012161306E407F50798F095
S1130810621B730B840B950B39F40A2661F0232BAE
S1130820242B252B21F408950A2609F4A140A6952A
S11308308FEF811D811D089597F99F6780E870E00F
S113084060E008959FEF80EC0895DF93CF931F93AA
S11308500F93FF92EF92DF927B018C01689406C0A4
S1130860DA2EEF010E94B404FE01E894A5912591CB
S1130870359145915591A6F3EF010E94C002FE0106
S11308809701A801DA9469F7DF90EF90FF900F9138
S11308901F91CF91DF91089500240A94161617062C
S11308A018060906089500240A941216130614065D
S11308B005060895092E0394000C11F4882352F0C0
S11308C0BB0F40F4BF2B11F460FF04C06F5F7F4F78
S11308D08F4F9F4F089557FD9058440F551F59F05F
S11308E05F3F71F04795880F97FB991F61F09F3F19
S11308F079F087950895121613061406551FF2CF42
S11309004695F1DF08C0161617061806991FF1CF91
S113091086957105610508940895E894BB276627B8
S11309207727CB0197F908950E94F80308F48FEF15
S113093008959B01AC0160E070E080E89FE30C94B3
S113094049030E94B4040C945A040E944C0438F0E5
S11309500E94530420F0952311F00C941C040C9471
S1130960220411240C948E040E946B0470F3959F4E
S1130970C1F3950F50E0551F629FF001729FBB2792
S1130980F00DB11D639FAA27F00DB11DAA1F649F2E
S11309906627B00DA11D661F829F2227B00DA11DE1
S11309A0621F739FB00DA11D621F839FA00D611D67
S11309B0221F749F3327A00D611D231F849F600D88
S11309C0211D822F762F6A2F11249F5750409AF0B1
S11309D0F1F088234AF0EE0FFF1FBB1F661F771F3D
S11309E0881F91505040A9F79E3F510580F00C9408
S11309F01C040C948E045F3FE4F3983ED4F3869574
S1130A0077956795B795F795E7959F5FC1F7FE2BA7
S1130A10880F911D9695879597F908959B01AC01D0
S10B0A200C94A104F894FFCF2B
S9030000FC
