:100000000C946B070C943B170C9488070C94110804
:100010000C9488070C945C090C9488070C9488074E
:100020000C9488070C9460170C9488070C9488072C
:100030000C9488070C9488070C9488070C94A70DDF
:100040000C9488070C9488070C9488070C948807F4
:100050000C9488070C9488070C9488070C948807E4
:100060000C9488070C948807BF000302030403055F
:1000700004060A00FE07FE07000142028807C420AA
:100080000500620721073943C7A00422079B524796
:100090006209230E3D424F294906A53228A52401B5
:1000A000240C3D4257B6D4B624D92200250C3D423B
:1000B0004FA474ABB4480900260D3D424F96444905
:1000C0005649A4480927061953C7002808BB4257B8
:1000D00052AA152909BB424756AA94002A0A2D465E
:1000E00047965406A52D2B0A2D4657180D52180178
:1000F0002C079B3E8F52022D060D4EC7202E089BCB
:100100003E4FB224002F083D4267AD6308300B3DDF
:10011000425796D46C492D02310A3D42572625613B
:10012000D320320C3D42CF92859194858300330CCD
:100130003D42C7206699AA250B00340C3D425F263C
:1001400025A564D0C204350B3D42C73131855AB272
:1001500000360C3D4297948589494B1600370B3D7C
:1001600042C720666156CC00380C3D42CF9269C927
:100170009269C902390C3D42CF92498A12669104B4
:100180003A0ABB3E4FB2A4C992003B09BB3E4FB2F4
:10019000A44A093C08BC425FD4D8003D081D4AC7A8
:1001A000A00E023E08BC4247D8D4063F0A3D42CFCB
:1001B0009235E65004400C3D42CF92494B624917BC
:1001C00000410C3D425796D4B461C8B400420D3D85
:1001D00042C71055A264AA448302430A3D42CF920B
:1001E000896DC902440F3D42C71055A2244AA2247A
:1001F0001A1400450B3D42C7311C92301C04460ABC
:100200003D42C7311C92B008470B3D42CF9289A5B1
:100210002D5900480A3D4247661B86CC164908BB4B
:1002200042C71275194A0A3D42D716B64491044B8B
:100230000D3D42472625252D892A59004C083D426F
:1002400047D8E3204D0B3D4247A62D4BA2D9024E85
:100250000C3D4247A64D4A226D5A004F0A3D42CFFF
:1002600092794B1600500C3D42C79064DAA0844549
:1002700000510A453ECF9279A9AC01520D3D42C7CB
:100280009064DAA0942A5900530B3D42CF92A9AB57
:10029000962C0054093D42C720853D0155093D4239
:1002A00047E65BB200560D3D4247664B4A499464AF
:1002B0001100570A3D4247E69228C92D580B3D428E
:1002C00047A625B54A4D0B590A3D4247A625B5B06C
:1002D000095A0A3D42C720661D07015B08BB42C799
:1002E00010751A5C083D424798760C5D08BB42C702
:1002F000D469085E081D525796D4025F060D3EC7AA
:10030000206006125B4714610A2D42CF9A0C5A32C4
:1003100004620B3D424758316993A200630A2D42A3
:10032000CF928959B200640A3D4267C5B4498A1226
:10033000650A2D42CF920D43BA00660B3D42975499
:10034000C98628AC01670C3D3ACFA069C9106AC9BB
:1003500002680A3D4247583169B6006908BB424FFE
:1003600028B50C6A0BCC3A5FACD5242951006B0B35
:100370003D4247589392A992056C08BB4287D4CB63
:10038000006D0B2D4287D2A2244AA2056E092D4290
:100390004762D26C016F092D42CF92D99205700C41
:1003A0003D3A4762D22645094300710A3D3A8F69BA
:1003B0009314252C72092D424762128B0073092D6C
:1003C00042CF921E1400740C3D424F980D51588A32
:1003D000140075092D4247E6A42801760B2D4247EB
:1003E000A625A5248B00770A2D42476649942E0046
:1003F000780A2D424796D42AB500790C3D3A4766D3
:100400005294504B16007A092D42C7A0B50D027BBD
:100410000ABC4297122662140A7C063943C7217D22
:100420000BBC428718854A9848007E091D524FA48C
:10043000245202A005006207A1073943473208A2EF
:100440000E3D3E573628511225D9104500A30C3DCC
:10045000429754C9B630521400A40B2D4247964C13
:1004600049B46401A50D453E47A625B56890C21262
:1004700000A6063943C732A70B453ECF124E9DC694
:100480006401A8068B5E4712A90D3D42CF9229C98F
:10049000A4245AB200AA0AB446CF10294A7108AB64
:1004A0000C2E4257254AA22CCAA200AC07944AC778
:1004B0009005AD068C4EC710AE0C3D42CF920DC9D3
:1004C0003469C902AF060D5EC720B0079B524F17B3
:1004D00000B10B354257180D52180D02B209AC4E3F
:1004E0008F12350D01B309AC4EC798884302B4068C
:1004F000125B8F02B50A353E47669B142504B60F82
:100500003D42CF30244392285112255112B706099B
:100510004F4700B806123B8F02B908AB4E4F225529
:1005200006BA0AB4468F1249893A04BB0D2E4247D7
:100530009445599444491401BC0D4E3E4FA816A74A
:10054000504BA2210DBD0C4E3E4FA816973049C30B
:1005500070BE0E4D3E879AA591944949328401BFE1
:100560000A3D42570E8559CB02C00C45424F9A2D89
:1005700099360C9916C10C45425F6DC9B461C8B477
:1005800000C20D45425796444BA60D43A605C30D28
:1005900045424FA4484BA60D43A605C40C45424F07
:1005A0001D58326D18322DC50D45425796444BA645
:1005B0000D43A605C60C3E42D790949A86216A1A2E
:1005C000C70B4D3ACF92896DC95603C80C45424FAF
:1005D000368CE19084E120C90C45425F328CE19079
:1005E00084E120CA0C454257348CE19084E120CB51
:1005F0000C45424F6518C32109C341CC0AC3424789
:10060000962C51CB00CD0AC34257922C51CB00CE31
:100610000AC3424F6548A29601CF0AC34247922DB2
:1006200051CB00D00E3D42C71055A2212925D1A0A3
:1006300000D10C454257D26D521269D302D20B45FC
:10064000424F9A2D995BB200D30A45425F6DC9DCD7
:100650009205D40C45425796444BE6962C00D50B98
:10066000454257D2B4646EC902D60B45424F1D585D
:1006700032B76401D70A2D424796D42AB500D80C68
:100680003D42CF125D92694A1600D90A45424F1A7F
:1006900065DE9205DA0A45425F29F3962C00DB0BF2
:1006A00045425796C4995BB200DC0A45424F39F384
:1006B000962C00DD0B45425F29D3925A5802DE0C7E
:1006C0003D42473824D9A0844500DF0D3D42CF92FA
:1006D0004949A992290A00E00C45424F9A236B32FE
:1006E00068C910E10C45425F1D5993414B8600E2F9
:1006F0000D45425796E4C09A0C5A3204E30D454228
:1007000057D20EACC9A0254300E40C3D424F1D5802
:1007100093414B8600E50D4542579664D99A0C5A91
:100720003204E60C2E42CF1026C930658300E70B59
:100730003D3ACF928959B2D500E80C45424F9A23F1
:100740004B360CE902E90C45425F1D59B26148176E
:1007500000EA0D45425796E4C0920D43BA00EB0CF7
:100760003D424F1D58B261481700EC09C34247167D
:100770004A2D03ED08C3424F556A19EE08C3424F94
:100780009BD432EF09BB424792492D03F00B3D4207
:10079000872A2D992D5900F10B454257D29C983448
:1007A0005B00F20C45424F9A234B664B1600F30B4D
:1007B00045425F1D59325BB200F40C45425796E446
:1007C000C092D99205F50C454257D20E2C992D595D
:1007D00000F60B3D424F1D58325BB200F70A2D4622
:1007E000570E0C3A1001F80B2D42CF202DC934289A
:1007F00000F90B45424F9A039993A204FA0A454225
:100800005F1DC89C1425FB0B45425796C49993A2C3
:1008100004FC0A3D424F3973529400FD0D4D3A5F7E
:100820002933294AA8250B00FE0C453A473824995C
:100830006D50C210FF0D4D3A4F3933294AA8250B90
:100840000000000004FFFF0000BF000202030303DA
:100850000404050700FF06FF06000112022F0670C0
:10086000200500BD012106B1B1192922075BB74956
:100870005600230A2DB1AB86AA86AA00240A2DB100
:100880005B35D820A505250934B1C920F606012617
:10089000092CB18B29563105270599B719280772FC
:1008A000B153CD00290872B189A952002A076BB152
:1008B00049D56A2B0A2DB1CD280E9951042C075B1E
:1008C000AF5325002D060CB519012E0652B11901A2
:1008D0002F0724B307B10D300873B1AB5C1500319D
:1008E0000773B14BB235320A34B1533183588E009D
:1008F000330B34B11919248D645200340A34B18D8C
:10090000AA1A318304350A34B1191A6C24930236B9
:100910000A34B15319AC289302370B34B11919C4F6
:100920000C620611380A34B15331A9289302390AEE
:1009300034B15351A60D92023A076AB11971043BC2
:100940000833AFB3912A013C086BB14D35C8203D47
:10095000081CB319198D003E096BB1C920835402DC
:100960003F0973B16BA60C1300400934B15351DD3C
:100970004801410934B153518E2903420A34B15917
:1009800071A4284702430B34B15351830C625200C7
:10099000440934B159D1391200450B34B1191AAC9C
:1009A0000C321801460B34B1191AAC0C32C800478E
:1009B0000A34B153518334D300480834B189724C9E
:1009C00033490773B159B1354A0B34B107196490F3
:1009D000814C0A4B0A34B1892A4999CA004C0C341B
:1009E000B1C920830C32C860044D0934B189E38851
:1009F00066004E0834B1896BA9334F0934B153D125
:100A0000991400500A34B159518E944106510A3C50
:100A1000AF53D15C49A300520934B159518ED40C63
:100A2000530A34B1533165542605540773B159B193
:100A30000B550834B1899E4901560934B189CE2439
:100A40001500570934B189E6386200580A34B18973
:100A50003249156500590873B1495659015A0A348B
:100A6000B11919C43618015B0773B119B1395C09A2
:100A700024B3C928A38C025D0773B199CD115E051B
:100A800053B96B5F060CB11901600652B989016157
:100A90000824B11B51A902620B34B1C9208315E5AA
:100AA0004800630723B19B1908640A34B10719A4ED
:100AB00011651A650924B1536964A000660934B14F
:100AC000ADCA99410467092CAF1B31A98C06680A8D
:100AD00034B1C9208315CD00690873B1CB485603E2
:100AE0006A097BAFCDB05415006B0B34B1C92083BC
:100AF00094642A036C0773B1915D036D0824B149B6
:100B00006948196E0724B159D10C6F0824B15351AB
:100B1000260570092CAF59518E940171092CAF1B19
:100B200051A60D02720824B15951830C730824B1E7
:100B30001B1A0D05740A34B1CB20CE0C3212750786
:100B400024B189661A760763B1495605770724B13F
:100B500089721C780824B18949AA1879092CAF89AF
:100B6000329525007A0824B119B11C017B0873B1B4
:100B70004D49D6207C05B1B1397D0A73B1C920AA8F
:100B80009822007E0714B94B2A01A00500BD01A1DF
:100B900006B1B14923A20934AF8D23356702A308FA
:100BA0002CB155715602A40B2DB1C920CD14570696
:100BB00001A50973B149AA5A3101A606A9B151028A
:100BC000A7087BAF9BAA920BA8064BBB4901A90DB6
:100BD0003DAF5B19A83455D2202D00AA061BB75B88
:100BE00049AB071DB38BB201AC0714B3191904AD9F
:100BF000054BB519AE0C3DAF5B198C34A7066901E6
:100C0000AF060CBB1901B0065BB7EB02B10B35B1F7
:100C1000CD280E99511C02B20662B55106B3066288
:100C2000B51969B40652B95300B5082CAF89E64826
:100C300019B60834B11B6AF503B70652B51901B8E5
:100C40000652AF5300B90763B54B320DBA061BB756
:100C5000EB02BB081DB389A54C00BC0C3CAFC920FE
:100C6000830C62541B04BD0D3CAFC920830C92065B
:100C7000310301BE0B3CAF911A4415D50601BF09E3
:100C800073B1CB30C55401C00934B153518E29031F
:100C9000C10934B153518E2903C20934B153518E65
:100CA0002903C30934B153518E2903C40A34B189CD
:100CB00049C5316500C50934B1932A8E2903C60997
:100CC00034B11BA91AAA25C70B3CAF5351830C6240
:100CD0009211C80B34B1191AAC0C321801C90B347B
:100CE000B1191AAC0C321801CA0B34B1191AAC0C78
:100CF000321801CB0B34B1191AAC0C321801CC07E5
:100D000073B159B135CD0773B159B135CE0773B150
:100D100059B135CF0773B159B135D00934B199699B
:100D2000758D04D10834B14973A933D20934B15354
:100D3000D1991400D30934B153D1991400D4093492
:100D4000B153D1991400D50934B153D1991400D6B7
:100D50000A34B1894945332900D70824B18949AA01
:100D600018D80934B11BE9484702D90834B1899E23
:100D70004901DA0834B1899E4901DB0834B1899E02
:100D80004901DC0A34B1891945332900DD0873B102
:100D900049565901DE0B34B1C960C59132C800DF34
:100DA0000934B15351955602E00A34B1CB288EA8CC
:100DB0005401E10934B1ADC1884A15E20934B1AD3D
:100DC000D2884A15E30A34B14B2A8EA85401E409AB
:100DD00034B1ABE1884A15E50934B1937244A50AF0
:100DE000E60824B11B69C501E7086BAF9B19A8048D
:100DF000E80B34B1CB28AA34325000E90A34B1AD43
:100E0000814A230305EA0B34B18B29AA34325000FE
:100E1000EB0B34B14999506964A000EC0873B1C977
:100E200020C96AED0773B12B6535EE0773B1AB6668
:100E300035EF0873B14919C86AF00A34B1CBC88AD2
:100E4000322900F10934B14B2AAD6806F20A34B1F7
:100E5000CB28AA289302F30A34B1AD818A32290043
:100E6000F40A34B1D3848A322900F50A34B14B2A0A
:100E7000AA289302F60A34B1ABA18A322900F709F5
:100E80002CB1D37064A800F80924B11B69A49100A7
:100E9000F90934B1CBA834D300FA0734B16D9A699B
:100EA000FB0834B1D3309A69FC0934B1AB5134D367
:100EB00000FD093CAF6DCA549600FE0A34AFC9600C
:100EC00045395206FF0A3CAFAB5194A92C010000F2
:100ED0000004FFFF000011241FBECFEFD8E0DEBFEB
:100EE000CDBF13E0A0E0B1E0E0E6F4E502C005907C
:100EF0000D92AE35B107D9F725E0AEE5B3E001C0FC
:100F00001D92AC37B207E1F70E94BF0C0C942E2A59
:100F10000C9400000F931F93CF93DF9300D000D069
:100F2000CDB7DEB719821A821B821C8280917800AD
:100F300090917900A0E0B0E089839A83AB83BC8371
:100F400029813A814B815C81A4EFB1E00E94DC29C8
:100F50008B019C01992324F401501C4F2F4F3F4FCC
:100F6000D901C801072E7AE0B595A7959795879581
:100F70007A95D1F7702D89839A83AB83BC8389815D
:100F80009A81AB81BC81880F991FAA1FBB1F880F54
:100F9000991FAA1FBB1FAC01BD01440F551F661F3F
:100FA000771F440F551F661F771F840F951FA61FBD
:100FB000B71F89839A83AB83BC8389819A81AB8174
:100FC000BC810F900F900F900F90DF91CF911F91E8
:100FD0000F910895ECE7F0E0808182648083EAE776
:100FE000F0E08081876E808308959093D70480938A
:100FF000D6047093DD046093DC04219A2298249A2D
:101000002598EBE6F0E0808184628083E8E6F0E0FA
:10101000808181608083E1E8F0E08081836080836B
:1010200008951F920F920FB60F9211240F931F93E2
:101030002F933F934F935F936F937F938F939F93E0
:10104000AF93BF93CF93DF93EF93FF9383B190E080
:101050008F779093650380936403892B41F480918B
:10106000620390916303909365038093640380917E
:101070006403909165038130910509F473C01CF4F9
:10108000009749F0D7C08430910529F0803291054E
:1010900009F468C0CFC02091600330916103232B15
:1010A000C1F41092630310926203E4E8F0E011824D
:1010B00010828081918190936F0380936E03809161
:1010C00060039091610301969093610380936003A4
:1010D000B1C02FEF3FEF3093630320936203609121
:1010E00084007091850070936D0360936C03209170
:1010F0006E0330916F03621B730B8B01072E000C84
:10110000220B330B009368031093690320936A0347
:1011100030936B03660F771F660F771F709367031B
:1011200060936603880F991F880F991FEC01C651C1
:10113000DB4F80E090E00E94B02820E030E048E6FD
:1011400052E40E94082826E636E646EE5FE30E9457
:101150009C27688379838A839B8310926103109212
:10116000600368C020915E0330915F03232BD1F4AC
:1011700081E090E09093630380936203E4E8F0E001
:10118000118210828081918190936F0380936E030E
:1011900080915E0390915F03019690935F0380932B
:1011A0005E0348C02EEF3FEF30936303209362034A
:1011B000609184007091850070936D0360936C035F
:1011C00020916E0330916F03621B730B8B01072E0E
:1011D000000C220B330B00936803109369032093D8
:1011E0006A0330936B03660F771F660F771F709348
:1011F000670360936603880F991F880F991FEC019E
:10120000C651DB4F80E090E00E94B02820E030E043
:1012100048E652E40E94082826E636E646EE5FE3FA
:101220000E949C27688379838A839B8310925F0343
:1012300010925E03C091D604D091D7040AEE14E058
:10124000F80160817181828193810E947A2879837B
:101250006883C091D604D091D704F8016481758168
:10126000868197810E947A2828813981620F731FB5
:1012700079836883E091D604F091D70480819181CD
:1012800099230CF401969595879591838083FF911E
:10129000EF91DF91CF91BF91AF919F918F917F910E
:1012A0006F915F914F913F912F911F910F910F90EF
:1012B0000FBE0F901F9018951F920F920FB60F92AE
:1012C00011242F933F934F935F936F937F938F934B
:1012D0009F93AF93BF93EF93FF93CF93DF931F92AF
:1012E000CDB7DEB7489908C0CE0101960E94D2253D
:1012F00089810E94162623C04C9907C084E090E0A3
:101300009093F3048093F2041AC04D9907C085E0CE
:1013100090E09093F3048093F20411C04E9907C0BB
:1013200086E090E09093F3048093F20408C04F9914
:1013300006C087E090E09093F3048093F2040F904E
:10134000DF91CF91FF91EF91BF91AF919F918F91DD
:101350007F916F915F914F913F912F910F900FBEB1
:101360000F901F901895EF92FF920F931F930F2EDF
:10137000FCE7EF2EF3E0FF2EF02D0AE813E02AE061
:1013800031E046E853E062E071E080E091E00E94E5
:101390001D0D90937B0380937A030E948E0D0E9413
:1013A0004D0F68E773E086E793E00E94940D0E947A
:1013B000EA071F910F91FF90EF90089580918803A5
:1013C0009091890399230CF45EC00E940F0D8091C7
:1013D00088039091890340918603509187039C0173
:1013E000240F351FB9013093730320937203841BBC
:1013F000950B2AF410927103109270030EC08F3F68
:1014000091052CF4909371038093700306C08FEFC5
:1014100090E0909371038093700333232CF4109227
:101420007303109272031AC02F3F31054CF08FEFF7
:1014300090E090937303809372036FEF70E003C0AA
:101440006B30710558F08091060190910701681783
:10145000790720F490937303809372038091700353
:10146000909171038B30910508F46BC020910601B7
:10147000309107018217930708F063C0309371031E
:10148000209370035EC00E94190D40918603509115
:10149000870380918803909189039A01281B390B57
:1014A000B90130937303209372039195819591094B
:1014B000841B950B2AF410927103109270030EC0D6
:1014C0008F3F91052CF4909371038093700306C0B5
:1014D0008FEF90E0909371038093700333232CF48B
:1014E00010927303109272031AC02F3F31054CF013
:1014F0008FEF90E090937303809372036FEF70E02F
:1015000003C06B30710558F080910601909107017E
:101510006817790720F49093730380937203809186
:101520007003909171038B30910558F02091060162
:10153000309107018217930720F4309371032093B1
:101540007003809172030E94090D809170030E94C4
:101550000C0D08952F923F924F925F926F927F925F
:101560008F929F92AF92BF92CF92DF92EF92FF92B3
:101570000F931F93CF93DF93C0907E03D0907F0390
:10158000E0908003F09081034C01990FAA08BB08FA
:1015900081149104A104B10409F4E1C08091000117
:1015A00090910101892BB1F0612C712C0F2EFAE67C
:1015B0004F2E55245A94F02D0CE810E00F2EF6E92A
:1015C0002F2E312CF02DC0E0D1E00FC08881998101
:1015D000892B59F410928903109288031092870383
:1015E000109286030E94DE09BAC080910A01909190
:1015F0000B014E970CF06FC0161417040CF46BC05F
:1016000010928903109288035092870340928603B8
:101610000E94DE092FEF8BE49DE121508040904035
:10162000E1F700C0000010928703109286030E9429
:10163000DE09C0908203D0908303E0908403F09091
:101640008503F694E794D794C794C0927E03D09212
:101650007F03E0928003F09281031093890300934B
:1016600088030E94DE098091820390918303A091F8
:101670008403B0918503B695A79597958795809338
:101680007E0390937F03A0938003B09381038C1912
:101690009D09AE09BF098897A105B105F0F2109226
:1016A00089031092880330928703209286030E9458
:1016B000DE092FEF8BE49DE1215080409040E1F75F
:1016C00000C0000010928703109286030E94DE097A
:1016D0002FEF621A720A80918803909189032A8100
:1016E0003B81821793073CF4019690938903809382
:1016F00088030E94DE0980918803909189032A81E2
:101700003B81281739073CF4019790938903809314
:1017100088030E94DE098FE79EE30197F1F700C07E
:1017200000008091820390918303A0918403B09183
:101730008503B695A7959795879580937E0390939B
:101740007F03A0938003B09381038C199D09AE0998
:10175000BF0988159905AA05BB0508F437CF109273
:1017600089031092880310928703109286030E94C7
:10177000DE09DF91CF911F910F91FF90EF90DF90E5
:10178000CF90BF90AF909F908F907F906F905F9021
:101790004F903F902F900895CF93DF938091000159
:1017A000909101018130910579F01CF4892B49F069
:1017B000E3C08230910509F490C0039709F497C003
:1017C000DBC00E94DE09D8C02FEF8BE792E92150E1
:1017D00080409040E1F700C00000809100019091AE
:1017E0000101019709F0C8C0C0E0D1E08E819F815E
:1017F00090938903809388030E94DE092FEF8DE385
:1018000099E4215080409040E1F700C00000109220
:101810008903109288038E819F81C29690938703DB
:10182000809386030E94DE092FEF81E093E521502B
:1018300080409040E1F700C000008E819F8191952B
:10184000819591099093890380938803109287036F
:10185000109286030E94DE092FEF83ED90E3215062
:1018600080409040E1F700C0000010928903109280
:1018700088038E819F81C29690938703809386030D
:101880000E94DE092FEF83ED90E3215080409040CD
:10189000E1F700C000008E819F81909389038093BF
:1018A000880310928703109286030E94DE092FEFAF
:1018B0008DE399E4215080409040E1F700C00000A2
:1018C000198218821092890310928803109287035C
:1018D000109286030E94DE094FC02FEF8BE792E93A
:1018E000215080409040E1F700C0000045C0809149
:1018F0007403909175030097F1F42FEF87EA91E656
:10190000215080409040E1F700C00000809100012C
:1019100090910101039781F588EC90E00E94AA0A5A
:101920001092890310928803109287031092860305
:101930000E94DE0918C00197B1F484E690E00E948D
:10194000AA0A1092010110920001109289031092CC
:1019500088031092870310928603109275031092E9
:1019600074030E94DE0980917403909175030196BF
:101970009093750380937403DF91CF9108950E9433
:10198000B30946E853E068E873E080E091E00E9424
:10199000A5256CE773E082E893E00E9426176AE8C9
:1019A00073E08AE091E00E94F5070E94130D78949D
:1019B0008091820390918303A0918403B091850369
:1019C000B695A7959795879580937E0390937F030F
:1019D000A0938003B09381030E940A170E94CC0B4E
:1019E000E7CF882331F0E0EBF0E08081836F8083E4
:1019F00005C0E0EBF0E08081836A8083E1EBF0E0FA
:101A0000808184608083239A539A87B1836087B9E9
:101A100008958093B30008958093B400089588B129
:101A2000836088B9089580E00E94F10C0E940F0D38
:101A3000089588B18C7F88B90895EF92FF920F9333
:101A40001F939093F6048093F50410936C05009314
:101A50006B057093F8046093F70450936A05409304
:101A600069053093640520936305F0926805E09260
:101A700067052FE532E244E252E261E872E08DEF61
:101A800094E00E94B31B88E7809313058DEF94E0E8
:101A90000E945C2460E08DEF94E00E946724209116
:101AA0000E0130910F014091100150911101609190
:101AB00012017091130180911401909115010E94FF
:101AC000082860931201709313018093140190937E
:101AD000150168E670E08DEF94E00E94F51F80919B
:101AE0004D058093620580914C058093F40460E07D
:101AF0008DEF94E00E941220ECEAF3E084E0818311
:101B000085E08583E1EAF3E093E0918385838DECC2
:101B100093E01F910F91FF90EF900895E1E6F0E0C0
:101B200080E88083108208959093FA048093F904EA
:101B30007093FC046093FB0485B5836085BDEEE67D
:101B4000F0E08081846080838AEF88BD08951F92D1
:101B50000F920FB60F9211242F933F934F935F93E1
:101B60008F939F93EF93FF9380916D0590916E05F6
:101B700080362AEE9207B8F08CEB90E090936E05D9
:101B800080936D058091650590916605019690930F
:101B900066058093650510929C0310929B0381E07B
:101BA0008093CE0318C020919B0330919C03A90120
:101BB0004F5F5F4F50939C0340939B03283C3243FD
:101BC00054F08F5C9E4F90936E0580936D0510923C
:101BD0009C0310929B0380916D0590916E05019678
:101BE00090936E0580936D05E091FB04F091FC04E9
:101BF00091838083E091F904F091FA048091650566
:101C00009091660591838083FF91EF919F918F91D1
:101C10005F914F913F912F910F900FBE0F901F90AA
:101C20001895EF92FF920F931F93CF93DF9300D0FD
:101C30001F92CDB7DEB78C017B01FC0110821982A7
:101C40001A821B824AE0BE016F5F7F4F809165055B
:101C5000909166050E94F92980916505909166052D
:101C60000A9748F4F80101900020E9F7319780E3E2
:101C700090E091838083BE016F5F7F4FC8010E9417
:101C8000EE2920916D0530916E0536952795369594
:101C9000279536952795A5ECB0E20E94CD294AE01C
:101CA000BE016F5F7F4F929582958F7089279F70DD
:101CB00089270E94F929F80101900020E9F731975E
:101CC0008AE390E091838083EA94EF28B1F48091D5
:101CD0006D0590916E058031974248F4F8010190AE
:101CE0000020E9F7319780E390E091838083BE0183
:101CF0006F5F7F4FC8010E94EE290F900F900F90E9
:101D0000DF91CF911F910F91FF90EF900895CF93A6
:101D1000DF932091CD03022E000C330BF901EE531B
:101D2000FC4F9081980F908340916F05442309F4F4
:101D30005AC0F901E455FC4FE0814E2F0E2E000CE5
:101D4000550B41505109692F092E000C770B46178E
:101D500057074CF4F901EE53FC4F1082F901E95496
:101D6000FC4F108211C099237CF4D901AE53BC4FB3
:101D70009FEF9E0F9C93D901A954BC4FE901CF5509
:101D8000DC4F98819E1B9C93F901EE53FC4F6081C0
:101D9000062E000C770BF901E954FC4F9081F901F4
:101DA000EF55FC4F4081042E000C550B491B510987
:101DB00097FD5395641775072CF0F901E954FC4F12
:101DC000981B9083F901E954FC4F9081E92FFF277C
:101DD000E1950CF4F0956E177F072CF4F901E954A6
:101DE000FC4F981B9083DF91CF910895811115C00E
:101DF00080910C0190910D018330910544F501967D
:101E000090930D0180930C01880F991FFC01ED56F2
:101E1000FC4F718360838FEF089580910C01909146
:101E20000D01181619063CF0880F991FFC01ED569C
:101E3000FC4F80810895019790930D0180930C01D0
:101E4000880F991FFC01ED56FC4F808108958FEF9C
:101E5000089580916F058823F9F08091CD0381303A
:101E600031F48091C3038E5F8093CD030DC0811147
:101E700004C081E08093CD0307C0853029F48091B0
:101E8000C7038A5F8093CD036091CD03062E000CBB
:101E9000770B80E00E94F60E08958AB18F708AB9A0
:101EA0008BB1806F8BB99BB185B198130BC0E8E6FD
:101EB000F0E0808181608083EBE6F0E08081806FDC
:101EC00080831DC09BB188B198130BC0E8E6F0E099
:101ED000808182608083ECE6F0E08081806F808387
:101EE0000EC09BB18BB198130AC0E8E6F0E0808188
:101EF00084608083EDE6F0E08081806F80832FEF47
:101F000083EC99E0215080409040E1F700C0000050
:101F100008958091F2049091F3048530910519F1B0
:101F20001CF4049759F108958630910519F007972C
:101F300081F0089560E070E081E00E94F60E8093E9
:101F4000CD0381E0809329011092F3041092F204F2
:101F500008950E94290F81E0809329011092F304D3
:101F60001092F20408958FEF0E94870E81E0809313
:101F700029011092F3041092F204089581E00E9466
:101F8000870E81E0809329011092F3041092F204ED
:101F900008952F923F924F925F926F927F928F920D
:101FA0009F92AF92BF92CF92DF92EF920F93CF9317
:101FB000DF9300D000D0CDB7DEB781E080936F050E
:101FC0000F2EF1E2CF2EF1E0DF2EF02D1C821B82CE
:101FD000E091CD030E2E000CFF0BEE53FC4F8081E1
:101FE000082E000C990B2B813C818217930709F076
:101FF0009DC04090120150901301609014017090A8
:102000001501B901330F880B990B0E94B228A30167
:1020100092010E943E2920E030E040E151E40E941C
:102020009C274B015C016091B803062E000C770BD6
:10203000880B990B0E94B228A30192010E943E29AD
:102040009B01AC01C501B4010E949C270E947A2823
:102050004B015C01693071050CF4D6C020919F03DF
:102060003091A0032F5F3F4F0024369527950794AA
:10207000369527950794322F202DABEABAEA0E94B5
:10208000CD29969587951C01EFE32E0E311C20E09B
:1020900030E040E050E4C301B2010E949B270E945F
:1020A0007A28562E472E310133201CF4FFEF6F1A89
:1020B0007F0A7594679461E08DEF94E00E94B420EC
:1020C00020E430E0261937093A8329830F2EF3E004
:1020D000EF2EF02D052D222D482D69818DEF94E0F6
:1020E0000E94BC1860E08DEF94E00E94B420452D62
:1020F000542D552314F44F5F5F4F559547954D5F11
:10210000742E780C3981630EF60140805180B20143
:102110008DEF94E00E940A208695662D681B92013F
:10212000472D8DEF94E00E94A21F6EC040901201D7
:102130005090130160901401709015012B813C8127
:10214000B901330F880B990B0E94B228A3019201A9
:102150000E943E2920E030E040E151E40E949C27AB
:102160004B015C016091B803062E000C770B880BC5
:10217000990B0E94B228A30192010E943E299B0163
:10218000AC01C501B4010E949C270E947A284B0132
:102190005C0169307105C4F120E030E040E050E4BA
:1021A000C301B2010E949B270E947A28762E672ED7
:1021B00061E08DEF94E00E94B4200F2EF3E0EF2E4B
:1021C000F02D072D20E4482D60E28DEF94E00E9471
:1021D0003019872D962D99230CF4019695958795A6
:1021E0008D5F782E780CF60140805180B2018DEF22
:1021F00094E00E940A20869560E4681B9201472DB6
:102200008DEF94E00E94A21F2B813C812F5F3F4FF6
:102210003C832B8332E0C30ED11C8B819C810597BC
:1022200009F0D6CE80919F039091A0038230910552
:1022300030F401969093A00380939F0306C0109200
:10224000A00310929F03109229010F900F900F90FE
:102250000F90DF91CF910F91EF90DF90CF90BF90D3
:10226000AF909F908F907F906F905F904F903F9036
:102270002F9008952F923F924F925F926F927F928C
:102280008F929F92AF92BF92CF92DF92EF920F9375
:102290001F93CF93DF9300D000D000D0CDB7DEB72F
:1022A00081E080936F05609112017091130180911C
:1022B0001401909115010E947A284B0177231CF498
:1022C0002FEF821A920A9594879433E0830E911C23
:1022D0001B01E2E02E1A31080F2EF1E2CF2EF1E0C1
:1022E000DF2EF02D1E821D820F2EF7EBAF2EF3E0B6
:1022F000BF2EF02D10E4E091CD030E2E000CFF0B4D
:10230000EE53FC4F8081082E000C990B2D813E81ED
:102310008217930709F062C0409012015090130198
:102320006090140170901501B901330F880B990B5F
:102330000E94B228A30192010E943E2920E030E0D1
:1023400040E151E40E949C2769837A838B839C83BC
:10235000F5016181062E000C770B880B990B0E940A
:10236000B228A30192010E943E299B01AC01698120
:102370007A818B819C810E949C270E947A282B0164
:102380003C01693071050CF486C061E08DEF94E08A
:102390000E94B4200F2EF3E0EF2EF02D022D20E846
:1023A000442D60E08DEF94E00E94BC1860E08DEF5A
:1023B00094E00E94B420480CF60160807180B30163
:1023C0008DEF94E00E940A208695612F681B93018F
:1023D000442D8DEF94E00E94A21F5DC04090120139
:1023E0005090130160901401709015012D813E8171
:1023F000B901330F880B990B0E94B228A3019201F7
:102400000E943E2920E030E040E151E40E949C27F8
:1024100069837A838B839C83F5016181062E000C8E
:10242000770B880B990B0E94B228A30192010E949E
:102430003E299B01AC0169817A818B819C810E943C
:102440009C270E947A282B013C01693071051CF100
:1024500061E08DEF94E00E94B4200F2EF3E0EF2EA8
:10246000F02D022D20E8442D60E08DEF94E00E94D5
:102470003019480CF60160807180B3018DEF94E053
:102480000E940A208695612F681B9301442D8DEFD1
:1024900094E00E94A21F2D813E812F5F3F4F3E831B
:1024A0002D8332E0C30ED11C8D819E81059709F0EA
:1024B00022CF1092290126960FB6F894DEBF0FBEE8
:1024C000CDBFDF91CF911F910F91EF90DF90CF9013
:1024D000BF90AF909F908F907F906F905F904F9044
:1024E0003F902F900895EF92FF921F93CF93DF9329
:1024F000CDB7DEB728970FB6F894DEBF0FBECDBFBD
:1025000081E080936F0588E0EAE2F1E0DE01119658
:1025100001900D928A95E1F7CE0101967C0111E0C0
:10252000F701219131917F0140916205149F402D67
:10253000112460E08DEF94E00E94A21F1F5F153010
:1025400079F710E480916205F12EF81A6CE371E0DE
:102550008DEF94E00E940A208695612F681B2CE382
:1025600031E04F2D8DEF94E00E94A21F6BE471E0EB
:102570008DEF94E00E940A208695612F681B2BE462
:1025800031E040E48DEF94E00E94A21F10922901F7
:1025900028960FB6F894DEBF0FBECDBFDF91CF9166
:1025A0001F91FF90EF90089540916205475F2DE9DC
:1025B00031E060E08DEF94E00E94A21F10926F0561
:1025C000109229010895EF92FF920F931F93CF93DA
:1025D000DF93CDB7DEB728970FB6F894DEBF0FBEF6
:1025E000CDBF08E02FE040E069E38DEF94E00E946A
:1025F0007A1804E023E042E067E48DEF94E00E9463
:102600007A180E948A0782322FE192077CF083E0D9
:1026100090E090939E0380939D0326C080919D033C
:1026200090919E0318161906FCF034C0863F2DE1E8
:1026300092073CF082E090E090939E0380939D038C
:1026400013C082342DE192073CF081E090E090933A
:102650009E0380939D0308C086399941FCF2109235
:102660009E0310929D0316C01BE3E12CF12C04E0A5
:1026700023E042E0612F8DEF94E00E9452188FEF2B
:10268000E81AF80A1C5F80919D0390919E03E8165A
:10269000F9066CF387E0EDEAF1E0DE0111960190B6
:1026A0000D928A95E1F7E091F504F091F6044AE085
:1026B000BE01685F7F4F808191810E94F929BE0130
:1026C000685F7F4FCE0101960E94EE2969E478E0B1
:1026D0008DEF94E00E94F51F109162051350BE012A
:1026E0006F5F7F4F8DEF94E00E940A2060E8681BC7
:1026F0009E012F5F3F4F412F8DEF94E00E94A21F5C
:1027000069E478E08DEF94E00E94F51F60E070E0EE
:102710008CE893E00E94110E4091620543502CE832
:1027200033E060E08DEF94E00E94A21F68E670E065
:102730008DEF94E00E94F51F28960FB6F894DEBF47
:102740000FBECDBFDF91CF911F910F91FF90EF9002
:1027500008957F928F929F92AF92BF92CF92DF9215
:10276000EF92FF920F931F93CF93DF93CDB7DEB716
:10277000A8970FB6F894DEBF0FBECDBF10926F05BD
:1027800064EB71E08DEF94E00E940A20782EBE0188
:102790006F5F7F4F7AA369A36E0189E0C80ED11CD9
:1027A000DCA2CBA27E01E1E1EE0EF11CFEA2EDA2C5
:1027B0008E01075E1F4F18A70FA3E091F704F09159
:1027C000F8044AE0808191810E94F929E09169052D
:1027D000F0916A054AE0B601808191810E94F92951
:1027E000E0916305F09164054AE0B7018081918131
:1027F0000E94F92961E070E0C8010E94110EE09189
:10280000C303EE0FFF0BEF5DFE4F2081318140913E
:102810006205475F60E08DEF94E00E94A21F5E01B9
:10282000F1E2AF0EB11C0F2EF9E7CF2EF2E0DF2E52
:10283000F02D0F2EF1E7EF2EF2E0FF2EF02D13E03A
:10284000F501819091905F01B4018DEF94E00E94B9
:102850000A20082FF601219131916F014091620504
:10286000149F402D112460E08DEF94E00E94A21F80
:1028700040916205149F402D11249401672D8DEF26
:1028800094E00E94A21FF701219131917F014091B4
:102890006205149F402D11246091F4046695670D24
:1028A000600F8DEF94E00E94A21F1F5F173041F66A
:1028B00081E080932901A8960FB6F894DEBF0FBE81
:1028C000CDBFDF91CF911F910F91FF90EF90DF90DF
:1028D000CF90BF90AF909F908F907F9008950F936F
:1028E0001F93CF93DF93CDB7DEB764970FB6F894FD
:1028F000DEBF0FBECDBF10926F05E091C303EE0F98
:10290000FF0BEF5DFE4F2081318140916205475FF3
:1029100060E08DEF94E00E94A21F40916205440F99
:10292000475F21EC31E060E08DEF94E00E94A21F50
:1029300040916205842F880F480F475F2AEC31E0F1
:1029400060E08DEF94E00E94A21F40916205440F69
:10295000440F475F25ED31E060E08DEF94E00E9489
:10296000A21FE0916B05F0916C054AE0BE016F5F1C
:102970007F4F808191810E94F92910916205110F8A
:10298000175F61EC71E08DEF94E00E940A209E01D8
:102990002F5F3F4F412F682F8DEF94E00E94A21FC1
:1029A00010916205110F175F61EC71E08DEF94E0FB
:1029B0000E940A20082FBE016F5F7F4F8DEF94E0C9
:1029C0000E940A20602F680F2DED31E0412F8DEF1E
:1029D00094E00E94A21F0E948A079E838D838D81AE
:1029E0009E814AE0BE01695F7F4F0E94F929809174
:1029F0006205182F110F810F19E0180F6AEC71E0B2
:102A00008DEF94E00E940A209E01295F3F4F412FE5
:102A1000682F8DEF94E00E94A21F80916205182F0D
:102A2000110F810F19E0180F6AEC71E08DEF94E03F
:102A30000E940A20082FBE01695F7F4F8DEF94E04E
:102A40000E940A20602F680F22EE31E0412F8DEFA7
:102A500094E00E94A21FE0916705F09168054AE0AA
:102A6000BE01635F7F4F808191810E94F92910919F
:102A70006205110F110F175F65ED71E08DEF94E0A6
:102A80000E940A209E01235F3F4F412F682F8DEF48
:102A900094E00E94A21F10916205110F110F175FA1
:102AA00065ED71E08DEF94E00E940A209E01235FA6
:102AB0003F4F412F682F8DEF94E00E94A21F81E0CD
:102AC0008093290164960FB6F894DEBF0FBECDBF88
:102AD000DF91CF911F910F91089510926F05E091B2
:102AE000C303EE0FFF0BEF5DFE4F2081318140915C
:102AF0006205475F60E08DEF94E00E94A21F109294
:102B0000290108952F923F924F925F926F927F9288
:102B10008F929F92AF92BF92CF92DF92EF92FF92ED
:102B20000F931F93CF93DF9300D000D01F92CDB7A8
:102B3000DEB781E080936F051091F404812F90E05F
:102B40009C01220F331F122F180F609112017091F8
:102B5000130180911401909115010E947A283B0184
:102B600077231CF42FEF621A720A7594679483E03E
:102B7000680E711CE091CD038AEF8E0F853030F521
:102B800010926F05A091C703AA0FBB0B8091F504AB
:102B90009091F604A80FB91F0E2E000CFF0BEE53F8
:102BA000FC4F20818D919C911197821B910927FDEB
:102BB00093958D939C93E091CD030E2E000CFF0B0B
:102BC000EE53FC4F1082E1E0ED8301C01D820F2E19
:102BD000F7E1AF2EF1E0BF2EF02D812C912CC12C0E
:102BE000D12C0F2EF2EC4F2EF3E05F2EF02D0F2E96
:102BF000FEEF3F2EF02D310E209162052C9DC0017D
:102C00002D9D900D11247C01F9E0EF0EF11CF201D5
:102C10008581082E000C990B8C159D0509F06CC060
:102C200061E08DEF94E00E94B4202E2C260C26EE5D
:102C300031E0422D60E08DEF94E00E94A21FFD8103
:102C4000FF2389F161E08DEF94E00E94B4200091B0
:102C500062050F5FF501608171818DEF94E00E9444
:102C60000A2090916205422D491B4F5F6894EE2423
:102C7000E1F8282F632D8DEF94E00E94BC1860E0EE
:102C80008DEF94E00E94B420F50120813181422D26
:102C9000612F8DEF94E00E94A21F61E08DEF94E020
:102CA0000E94B42009C0F50120813181422D612F9D
:102CB0008DEF94E00E94A21FE091F504F091F604DC
:102CC000E80DF91D4AE0BE016F5F7F4F8081918161
:102CD0000E94F929F501608171818DEF94E00E94D5
:102CE0000A20682F610F9E012F5F3F4F422D8DEF0D
:102CF00094E00E94A21F2AC00E2D060DF50120812E
:102D00003181402F612F8DEF94E00E94A21FE0914E
:102D1000F504F091F604E80DF91D4AE0BE016F5F7D
:102D20007F4F808191810E94F929F5016081718135
:102D30008DEF94E00E940A20612F680F9E012F5FA3
:102D40003F4F402F8DEF94E00E94A21FFFEFCF1A5C
:102D5000DF0A22E0820E911C82E0A80EB11CE5E0A1
:102D6000CE16D10409F048CF81E0809329010F905D
:102D70000F900F900F900F90DF91CF911F910F91B7
:102D8000FF90EF90DF90CF90BF90AF909F908F908B
:102D90007F906F905F904F903F902F90089580911B
:102DA000CD038230E9F02CF4882341F0813049F0E2
:102DB00026C08330D1F08430E9F021C00E94731224
:102DC00008950E94E31280911601882319F0813042
:102DD00021F008950E94C90F08950E943A110895A4
:102DE0000E94E3120E94A91308950E94E3120E9418
:102DF0006F1408950E94E3120E946D150895855086
:102E0000863028F40E94E3120E94821508950E94E1
:102E1000D41208950E94890F80912901811104C064
:102E20008091CE03882389F081E0809329018DEF82
:102E300094E00E94211A0E94CF168DEF94E00E9428
:102E4000341A8111F8CF1092CE0308959093710532
:102E50008093700570937305609372052298E89AC9
:102E6000E9E6F0E0808181608083E0E7F0E0808146
:102E70008160808308951F920F920FB60F921124E4
:102E80008F939F93AF93BF93EF93FF93E091700560
:102E9000F091710580819181A281B3810196A11D7C
:102EA000B11D80839183A283B383FF91EF91BF9182
:102EB000AF919F918F910F900FBE0F901F9018951B
:102EC0001F920F920FB60F9211242F933F934F939F
:102ED0005F936F937F938F939F93AF93BF93CF93A2
:102EE000DF93EF93FF938091CF039091D0039C01E8
:102EF0002F5F3F4F3093D0032093CF03803D93400B
:102F00000CF446C0E0917205F091730511821082B5
:102F1000E0917005F0917105208131818091D3039A
:102F20009091D403281B390B3093D2032093D10303
:102F3000E0917205F0917305C90199230CF4019693
:102F40009595879591838083C0917205D091730583
:102F500068817981072E000C880B990B0E94B2289A
:102F600026E636E646E650E40E943E290E947A288C
:102F700079836883E0917005F0917105808191817A
:102F80009093D4038093D3031092D0031092CF0375
:102F9000FF91EF91DF91CF91BF91AF919F918F9171
:102FA0007F916F915F914F913F912F910F900FBE45
:102FB0000F901F9018951092B90088E48093B80084
:102FC0000895CF93DF93ECEBF0E044EAA9EBB0E097
:102FD000CBEBD0E054E864E9408320E030E090811E
:102FE000992334F02F5F3F4F211591E03907B9F74E
:102FF0009C91987F983011F0903171F788835083BD
:1030000020E030E09081992334F02F5F3F4F21156D
:1030100091E03907B9F79C91987F903211F098357B
:1030200069F4608320E030E0908194FFD5CF2F5F7A
:103030003F4F211591E03907B9F7CECFDF91CF91FE
:10304000089584E98093BC0080E090E0ECEBF0E030
:10305000208124FF05C00196811521E09207C1F768
:1030600008958093BB0084E88093BC008FEF90E0CC
:10307000A0E0B0E0ECEBF0E0208122232CF00197FF
:10308000A109B109C8F704C0892B8A2B8B2B41F009
:103090009091B900987F81E0983219F480E008950A
:1030A00081E00895DF92EF92FF920F931F93CF93E9
:1030B000DF937C01162FC42FD22ED02F042F0D0F9B
:1030C000262F2D0D0E94D520882361F0DD2351F09D
:1030D00000E02D2D4C2F612FC7010E942420CF5FCF
:1030E000D150B1F7DF91CF911F910F91FF90EF90E9
:1030F000DF900895CF92DF92EF92FF920F931F938C
:10310000CF93DF937C01D62FC42FD22E102FC62E43
:10311000C20E042F010F2C2D0E94D520882319F1F7
:1031200000E02D2D4C2F6D2FC7010E94242012305E
:10313000D0F01250CF5F112379F001E0212F4C2FF6
:103140006D2FC7010E9424206FEF6C0D212F4C2F93
:10315000C7010E942420C10F00E02D2D4C2F6D2FA0
:10316000C7010E942420DF91CF911F910F91FF9002
:10317000EF90DF90CF9008957F928F929F92AF92C1
:10318000BF92CF92DF92EF92FF920F931F93CF9354
:10319000DF936C01162FF42EB22EC02FA42EA00E9A
:1031A000D62FD20F0A2D2D2F0E94D520882309F467
:1031B00049C0812E8E0C9F2C9E0C8E2D8095D80F91
:1031C000A80E02E02E2D492D682DC6010E945B1B22
:1031D00001E02E2D492D6D2FC6010E945B1B04E0DE
:1031E0002E2D4A2D682DC6010E945B1B08E02E2D56
:1031F0004A2D6D2FC6010E945B1B2B2D2E192E19F7
:10320000233098F08394DEEFD20F772473947E0CF2
:10321000072D2D2F4F2D682DC6010E9452182D2FDE
:103220004A2D682DC6010E945218CE19CE19C330FE
:1032300048F00EEF0C0F41E0490D2B2D612FC60118
:103240000E945218DF91CF911F910F91FF90EF9044
:10325000DF90CF90BF90AF909F908F907F90089518
:103260008F929F92AF92BF92CF92DF92EF92FF9296
:103270000F931F93CF93DF93EC01162FF42EC22EE2
:10328000B02EA42EA00ED62ED20E0A2D2D2D0E94C9
:10329000D520882309F452C0812E8E0C9F2C9E0CC1
:1032A0008E2D8095D80EA80E02E02E2D492D682D6A
:1032B000CE010E94091B01E02E2D492D6D2DCE015E
:1032C0000E94091B04E02E2D4A2D682DCE010E947C
:1032D000091B08E02E2D4A2D6D2DCE010E94091BE1
:1032E0002C2D2E192E190B2D0E190E192330A0F08E
:1032F00083940F2EFEEFEF2EF02DE20E2E2D4F2D8C
:10330000682DCE010E9493204FEF4B0D4F0D2E2DB7
:10331000682DCE010E949320033080F093940250D8
:10332000202F492D612FCE010E9499206FEF6C0D47
:10333000610F202F492DCE010E949920DF91CF915E
:103340001F910F91FF90EF90DF90CF90BF90AF90C3
:103350009F908F900895AF92BF92CF92DF92EF929D
:10336000FF920F931F93CF93DF937C01DC01949620
:10337000BC9094979596DC919597ED91FC91A188DE
:10338000CD2FC12CD12CD701ED91FC911197208923
:1033900092960D911C919397422F50E0440F551F28
:1033A000440F551F440F551F4C9DC0014D9D900D5E
:1033B0005C9D900D1124080F191F4C2F60E0C70170
:1033C0000E942E24CF5F8C2F8D1B8B1528F4BFEF0E
:1033D000CB1ADB0ACA15B8F2DF91CF911F910F917A
:1033E000FF90EF90DF90CF90BF90AF900895FC01D9
:1033F000A081B18150969C9144A1949FA001112479
:10340000440F551F440F551F440F551F60E070E0D7
:1034100082A193A10E94E7290895CF93DF93EC0145
:103420006DA3E8A1F9A10190F081E02D0995E8A133
:10343000F9A10280F381E02DCE010995DF91CF91B2
:103440000895CF93DF93EC01FC01EC59FF4F80818D
:10345000882319F0CE010E94F71960E0CE010E9486
:103460000D1ADF91CF9108951F93CF93DF93EC0155
:103470000E94AB191DA18CA1180FE881F9818189E7
:10348000181728F0CE010E94722480E00EC0FE01C1
:10349000EC59FF4F8081882319F0CE010E94F71963
:1034A000612FCE010E940D1A81E0DF91CF911F9113
:1034B0000895CF92DF92EF920F931F93CF93DF93F4
:1034C0006C01D62F142FC22FE0FE0DC0402F411BE0
:1034D000622F6D0F0E949F20402F4D1B612F6C0F9C
:1034E000C6010E949F20E1FE0EC0402F411B6C2FA1
:1034F0006D1BC6010E949F20402F4D1B6C2F611B2E
:10350000C6010E949F20E3FE0EC0402F410F6C2F8A
:103510006D0FC6010E949F20402F4D0F612F6C0F31
:10352000C6010E949F20E2FE0EC0402F410F6C2F6B
:103530006D1BC6010E949F20402F4D0F6C2F611BF9
:10354000C6010E949F20DF91CF911F910F91EF90B4
:10355000DF90CF900895CF92DF92EF920F931F9359
:10356000CF93DF936C01C62F142FD22FE0FE11C032
:1035700021E0240F402F411B6D2F6C0F0E949920DA
:1035800021E02C0F402F4C1B612F6D0FC6010E94B4
:103590009920E1FE12C021E0210F402F411B6D2F29
:1035A0006C1BC6010E94992021E02C0F402F4C1B60
:1035B0006D2F611BC6010E949920E3FE10C021E01F
:1035C000210F402F6D2F6C0FC6010E94992021E022
:1035D0002C0F402F612F6D0FC6010E949920E2FE33
:1035E00010C021E0210F6D2F6C1B402FC6010E94DF
:1035F000992021E02C0F6D2F611B402FC6010E94E6
:103600009920DF91CF911F910F91EF90DF90CF9094
:1036100008958F929F92AF92BF92CF92DF92EF92D6
:10362000FF920F931F93CF93DF935C01C62E942ECE
:10363000C22F802E01E0020F040F21E0260F2C0F75
:103640004C1B6C1B0E94D520882341F1D1E0DC1B70
:10365000DC2ED194DD0CE82C092D2C2D4C2F60E0B4
:10366000C5010E94591ACC23C9F00F2EF3E0FF2E9A
:10367000F02D10E0DD2324F0C150D394D394DD0D60
:103680001F5FDF0DE82C092D2C2D4C2F612FC5015C
:103690000E94591AF394F3941C1760F3DF91CF91B1
:1036A0001F910F91FF90EF90DF90CF90BF90AF9060
:1036B0009F908F9008958F929F92AF92BF92CF92DA
:1036C000DF92EF92FF920F931F93CF93DF935C01F2
:1036D000C62E942EC22F802E01E0020F040F21E08F
:1036E000260F2C0F4C1B6C1B0E94D520882341F108
:1036F000D1E0DC1BDC2ED194DD0CE82C092D2C2D27
:103700004C2F60E0C5010E94AB1ACC23C9F00F2EEC
:10371000F3E0FF2EF02D10E0DD2324F0C150D39410
:10372000D394DD0D1F5FDF0DE82C092D2C2D4C2FC0
:10373000612FC5010E94AB1AF394F3941C1760F338
:10374000DF91CF911F910F91FF90EF90DF90CF907D
:10375000BF90AF909F908F90089522E0FC0120834E
:1037600085ED93E00895CF92DF92EF92FF920F9351
:103770001F93CF93DF931F92CDB7DEB77C016B0110
:1037800089019A0143E753E266E075E20E944B2506
:10379000CE0101960E94AD1B860120EF30E24981E7
:1037A000BC01C7010E94E7210F90DF91CF911F91CB
:1037B0000F91FF90EF90DF90CF900895FC01E60FFE
:1037C000F11D849190E0982F88273196E4918E0F17
:1037D000911D089580E008950F931F93CF93DF9379
:1037E000EC018B01FB01849188833196E491E9839C
:1037F000FB013296E491EA83FB013396E491EB837B
:10380000FB013496E491EC83FB013596E491ED8362
:10381000FB013696E491EE83FB013796E491EF834A
:10382000FB013896E491E887FB013996E491E9873A
:10383000FB013A96E491EA87FB013B96E491EB8722
:10384000FB013C96E491EC87FB013D96E491ED870A
:10385000FB013E96E491EE87FB013F96E491EF87F2
:10386000FB017096E491E88B61E1C8010E94DE1BC8
:103870009A8B898B63E1C8010E94DE1B9C8B8B8B2A
:1038800065E1C8010E94DE1B9E8B8D8BDF91CF917D
:103890001F910F910895DC0118969C911897ED9156
:1038A000FC911197249130E0092E02C0359527959F
:1038B0000A94E2F7892F860F883010F4E22F0FC0A8
:1038C00031961196FC93EE93E491F0E038E0391BC9
:1038D00002C0EE0FFF1F3A95E2F7E22B88501896D0
:1038E0008C9381E090E002C0880F991F6A95E2F7FF
:1038F00081508E2308950F931F93CF93DF93EC0194
:103900008C01075C1F4F7AAF69AFFC01EF5BFF4F83
:10391000108239966081C8010E944B1C8FAFFE0156
:10392000E55BFF4F6081C8010E944B1CFE01E05C1B
:10393000FF4F8083B3968081B0978083CC5BDF4F4D
:1039400091E0811190E09883DF91CF911F910F91C9
:103950000895CF93C62F0E944B1CC15021E030E048
:1039600002C0220F331FCA95E2F7821BCF91089540
:10397000213031F018F0223029F006C0840F08956C
:10398000860F0895841B0895861B0895213031F019
:1039900018F0223029F006C0860F0895841B089580
:1039A000861B0895840F08952F923F924F925F9245
:1039B0006F927F928F929F92AF92BF92CF92DF923F
:1039C000EF92FF920F931F93CF93DF9300D000D01D
:1039D00000D0CDB7DEB77C016E83342EFC0175AC10
:1039E00016AD6C01F5E4CF0ED11C5C0182E4A80E8B
:1039F000B11C470193E6890E911CF701EC5BFF4F68
:103A0000FC83EB83C7018D5B9F4F9A838983F7010A
:103A1000F7ADF719FD835E80F51508F45F2EF70109
:103A200064ACF6010081212E202F412F672DF70174
:103A300083AD0E94C61C482E202F412F672D862D56
:103A40000E94B81C332061F0E981FA819081F40171
:103A50009083252D482F642DC7010E9424200FC07C
:103A6000F501908191110BC0EB81FC819081F401F3
:103A70009083252D482F642DC7010E942420FE81AC
:103A80008D81F81728F0F81BFE831F5F712CBFCFC4
:103A90008E81870DF70185AF26AE26960FB6F89476
:103AA000DEBF0FBECDBFDF91CF911F910F91FF9071
:103AB000EF90DF90CF90BF90AF909F908F907F90CE
:103AC0006F905F904F903F902F9008958F929F92AC
:103AD000AF92BF92CF92DF92EF92FF920F931F931C
:103AE000CF93DF93EC017C0189E3E80EF11CCE015A
:103AF0000E947B1CFE01E05CFF4F90803C96608141
:103B0000C7010E94A91CB82EFE01E35BFF4F608134
:103B1000C7010E94A91C182FFE01E25BFF4F6081C4
:103B2000C7010E94A91C882EDFAC1D140CF079C0BF
:103B3000FE01EB5BFF4F0081190D1195202F412FE6
:103B40006B2D8BAD0E94C61CC82E8BAF202F412F32
:103B50006B2D8CAD0E94B81C8CAF013059F028F051
:103B6000023091F00330D9F023C02D2D2C0D092DFA
:103B7000080F20C09C2D991921E02C0D0D2D080F48
:103B8000CC24C394C90E16C091E0392F3D1921E011
:103B90002C0D991901E0080F890FC30E0BC0292DB8
:103BA0002C0D982F9D1901E0080F81E0890F02C0AC
:103BB000082F2C2D482F6C2DCE010E94D520882354
:103BC00081F11DAE1EAE5E01E8E4AE0EB11C6E01C9
:103BD000F9E4CF0ED11CF5016081C7010E944B1C96
:103BE000082FF6016081C7010E944B1C182F40E08E
:103BF000602FCE010E94D41C41E0612FCE010E94B3
:103C0000D41C61E0C7010E944B1C8111F0CF8EAD26
:103C100089150CF3FE01ED59FF4FCD5BDF4F888115
:103C20008083882DDF91CF911F910F91FF90EF90AE
:103C3000DF90CF90BF90AF909F908F900895EF92BC
:103C4000FF920F931F93CF93DF93FC01C5A9D6A9D1
:103C500067966F3F710511F008F036C06136710547
:103C600038F0E75AFF4F80819181C80FD91F0AC0F1
:103C70006134710538F0FC01E95AFF4F8081918170
:103C8000C80FD91FCE010196FC012491222309F40B
:103C90005AC0FE01249130E06217730751F406C048
:103CA000FE01249130E06217730719F4CE010296E9
:103CB00052C0FC018491C80FD11DCE010196FC01B8
:103CC00024912111EDCF42C08B01FC01E55AFF4F39
:103CD00080819181C80FD91F7E0160E0C7010E94D9
:103CE000DE1BC80FD91F62E0C7010E94DE1BF4E093
:103CF000EF0EF11C8017910780F3FE01849190E094
:103D0000982F88273196E4918E2B009711F1081790
:103D1000190739F403C00817190719F4CE010396DF
:103D20001AC0FE013296E491CE0FD11DFE0184919E
:103D300090E0982F88273196E4918E2B009759F7C1
:103D400080E090E008C080E090E005C080E090E076
:103D500002C080E090E0DF91CF911F910F91FF9022
:103D6000EF9008950F931F93CF93DF93EC010E9480
:103D70001F1E0097F1F0BC01CE010E947B1C8E013A
:103D8000075C1F4FFE01E45BFF4F6081C8010E948A
:103D9000A91CFE01EF59FF4F808374976081C80111
:103DA0000E94A91CC25BDF4F6881C8010E94A91C48
:103DB00001C080E0DF91CF911F910F910895EF92A4
:103DC000FF920F931F93CF93DF93EC01E62EF72E14
:103DD0001FAE0E9421220E2D1F2DE12CF12CF80187
:103DE00061918F01EA81FB81CE0109958F3FFFEF41
:103DF0009F0759F08E3F2FEF920789F3BC01CE0148
:103E00000E94B21EE82EF80EEACF8FAD882331F063
:103E1000CF59DF4F9881890FF80EFE188F2DDF9153
:103E2000CF911F910F91FF90EF900895EF92FF9225
:103E30000F931F93CF93DF93EC01062F142F79017B
:103E4000FC01EB5BFF4F8081813061F028F0823014
:103E500079F0833099F017C0EFA9F8ADCE0109953C
:103E6000180F11C0EFA9F8ADCE010995081B0BC0C2
:103E7000EFA9F8ADCE010995181B05C0EFA9F8AD63
:103E8000CE010995080F0BAF1CAFB701CE010E9400
:103E90001F1E009729F0BC01CE010E94661D01C0C3
:103EA00080E0DF91CF911F910F91FF90EF900895E7
:103EB000BF92CF92DF92EF92FF920F931F93CF9317
:103EC000DF93EC01B62EC42EE22EF32E0E942122A7
:103ED0000E2D1F2DD12C7E0125E4E20EF11CF801E0
:103EE00061918F01EA81FB81CE0109958F3FFFEF40
:103EF0009F07E9F08E3F2FEF920789F39C014C2D2D
:103F00006B2DCE010E94161FF7019081913041F078
:103F100028F0923039F0933039F007C0B80E05C060
:103F2000C80E03C0B81A01C0C81AD80ED8CF8D2D3C
:103F3000DF91CF911F910F91FF90EF90DF90CF9085
:103F4000BF900895E4E1F2E2DC011396FC93EE9356
:103F500012970E94581F0895FC0125A936A9232B0A
:103F6000E9F1ED5AFF4F20813C9620833B97408139
:103F70003C96408332973081332381F1313079F49C
:103F800039973081231714F43A963083FC01EA5AAA
:103F9000FF4F2081241714F53A9620830895FC01E1
:103FA000E05BFF4FE081DC01AE5ABF4F5C91022E17
:103FB000000C330B652F052E000C770B6E0F711D57
:103FC000E7FD7A95261737071CF41D96E50FEC934D
:103FD000541724F4FC01E05AFF4F508308952AEE51
:103FE0003BE1FC0130AF27AB0895CF93DF93FC0199
:103FF00025A936A92617370751F0EC0176AB65AB3A
:104000008A5B9F4F0E94EC1BCE010E94AC1FDF9188
:10401000CF91089524E132E2FC01338322830E9490
:10402000DF1E08958B5B9F4FFC01608308950F9303
:10403000DC0198963C919897431B5E96ED91FC911C
:104040005F9709950F9108950F93FC01E35AFF4F75
:104050003081332309F465C0222309F462C0223081
:1040600058F0023019F46F5F621B0AC0033021F46C
:104070004F5F421B51E02DC0502F517000FD29C0F1
:10408000DC019F963C919F97431708F44AC0D09655
:104090003C91D097431708F044C09E963C919E9760
:1040A0009D965C91260F261730F4631718F42FEFB6
:1040B000230F03C0652F6317A0F5521790F56517FE
:1040C00008F4652F231708F4322F232F261B50E006
:1040D0001EC0FC0135A5631720F136A5631708F54E
:1040E00030A977A5240F241730F4431718F42FEFC5
:1040F000230F03C0472F4317A0F4721790F44717FC
:1041000008F4472F231708F4322F232F241BDC0138
:104110009096ED91FC9191970480F581E02D052F0B
:1041200009950F9108950F9300E00E9424200F91AC
:1041300008950F9301E00E9424200F9108950F939A
:10414000FC0187A5481770F080A9481758F485A589
:10415000681740F086A5681728F4CF0100E021E039
:104160000E9424200F910895633028F4FC01ED593A
:10417000FF4F60830895FC01ED59FF4F21E020833C
:104180000895461738F4821760F081E0241760F034
:1041900080E00895821738F481E0241728F080E049
:1041A000089581E0089580E00895FF920F931F9392
:1041B000CF93DF93EC01162FF22E202F68A98FA545
:1041C0000E94C120882331F02F2D412F6EA58DA58F
:1041D0000E94C120DF91CF911F910F91FF90089510
:1041E000EF92FF920F93CF93DF937C01342F3770C0
:1041F00081E090E0032E02C0880F991F0A94E2F735
:10420000C82FF701ED59FF4F5081523020F4513043
:1042100021F0782F04C070E002C0782FC0E050E099
:10422000487FD70192968D919C919397ED91FC9147
:10423000D089D49FF001D59FF00D1124E60FF11D18
:10424000E80FF91F011107C08081872B8C2781930C
:104250002150D1F722C0A7014D595F4F9081972B74
:104260009C2790833F5F3770215031110EC0D701DA
:1042700096968C91E80FF11DDA018C91823040F412
:10428000813041F0C1E071E006C0770FCC0F03C070
:10429000C1E001C071E02111E1CFDF91CF910F9119
:1042A000FF90EF900895FC01A081B18184A1982F27
:1042B000990F990F990F97A350969C915097903210
:1042C00008F09FE1990F990F990F96A345A1942F9C
:1042D000990F990F990F90A751965C915197242FA0
:1042E00030E0280F311D652F70E06217730714F45A
:1042F000852F841B91A7880F880F880F890F82A7AD
:1043000080EF83A754968D919C915597813F91059D
:1043100008F483A756968C9184A708950E94532190
:1043200008950F93CF93DF93EC010CA92AA94BA911
:1043300069A90E94D520811104C0C35ADF4F188299
:1043400019C081E0FE01E35AFF4F808389A99DA532
:10435000981708F48DA78AA99EA5891708F48EA737
:104360008BA99FA5981708F48FA78CA998A98917DE
:1043700008F488ABDF91CF910F910895FC0115A649
:1043800083A586A781A587A782A580ABCF010E94C0
:10439000912108950F930E9417200F910895DC0139
:1043A000D1961C92D197D3961C92D3978FEFD29629
:1043B0008C93D297D4968C93D4979096ED91FC9150
:1043C00091970280F381E02DCD01099508950F9317
:1043D0001F93CF93DF93EC011EAA1DAA3F8F2E8F50
:1043E0007BA36AA34CA31DA2FC01EE5BFF4F1082CE
:1043F000B0961082319681E080833196808319A334
:1044000008A3D801ED91FC91CE010995CE010E943F
:10441000CF21CE010E94EF1FCB5BDF4F1882DF91CF
:10442000CF911F910F910895662329F06A3031F0E2
:10443000862F90E008958FEF9FEF08958FEF9FEF05
:104440000895FC01108E08950F931F93CF93DF936F
:10445000683119F128F46431E1F0673139F027C08F
:10446000693109F1603219F581E024C08FEF840FC2
:104470004423F9F0E901082F10E00F5F1F4F020FEE
:10448000131F89910E9431180C171D07D1F781E085
:1044900011C00E94DB1781E00DC0FC0186890E94DB
:1044A000E11781E007C00E94211881E003C080E08D
:1044B00001C081E0DF91CF911F910F9108956A3281
:1044C00051F018F4693259F033C06B3261F06C323C
:1044D00079F581E00895411119C081E008954111F5
:1044E0001DC081E00895242F30E0A4E6B0E00E94D2
:1044F000CD2920EA3FE040E050E00E94AB29233282
:10450000C8F4822F0197F1F781E0089583E08A953E
:10451000F1F700004150D1F781E0089589EF90E074
:104520000197F1F700C000004150C1F781E0089504
:1045300080E0089581E008959A01DC011896ED91DC
:10454000FC911997462F67E109950895CF93DF9362
:104550001F92CDB7DEB76983AE014F5F5F4F61E059
:104560000E949C220F90DF91CF910895DC01189654
:10457000ED91FC91199720E030E040E068E1099569
:104580000895DC011896ED91FC91199720E030E038
:1045900040E069E109950895EF92FF921F93CF9350
:1045A000DF93EC01162F7A010E94B62260E4CE015F
:1045B0000E94A622E885F9859701412F67E1CE0187
:1045C0000995CE010E94C122DF91CF911F91FF90EA
:1045D000EF900895462FDC011696ED91FC91179708
:1045E00020E030E065E109950895462FDC0116963C
:1045F000ED91FC91179720E030E066E10995089570
:104600009A01DC011696ED91FC911797462F67E110
:1046100009950895DC011696ED91FC91179720E01D
:1046200030E040E068E109950895DC011696ED91CF
:10463000FC91179720E030E040E069E1099508958A
:10464000EF92FF920F931F93CF93DF931F92CDB7FB
:10465000DEB77C018B01D8016C916731C1F018F491
:10466000653130F438C06A31F8F06E3F51F133C033
:10467000F80141814983D7011696ED91FC91179776
:1046800020E030E0C70109950E5F1F4FE4CFF8012D
:1046900081818983AE014F5F5F4F61E0C7010E9456
:1046A00000230E5F1F4FD7CF0F5F1F4FD701169606
:1046B000ED91FC91179720E030E040E0C7010995AB
:1046C000CACFF8014181498369E2C7010E942925C7
:1046D0000E5F1F4FC0CF0F90DF91CF911F910F91B1
:1046E000FF90EF900895EF92FF920F931F93CF9357
:1046F0007C01C42F8901663129F130F4643109F459
:1047000042C0653149F062C0683109F450C0F8F028
:10471000693109F450C05AC08091D504882319F03A
:10472000C7010E94C122C7010E94B62260E0C701F2
:104730000E94A6226C2FC7010E94A62281E08093CE
:10474000D50445C0642F0E94A62281E040C080911C
:10475000D504882319F0C7010E94C122C93150F045
:10476000A80168E1C7010E94CC22C851085E1F4F12
:10477000C931B0F7A8016C2FC7010E94CC2210925A
:10478000D50481E024C0DC0156968C9156978F3F6A
:1047900019F488E756968C93D7011896ED91FC9101
:1047A000199798014C2F64E1C701099510C0109228
:1047B000D50481E00CC08091D504882319F0C7018D
:1047C0000E94C1221092D50481E001C080E0CF9107
:1047D0001F910F91FF90EF900895FC01718360830A
:1047E000FB012289FC01248B0895CF93DF93EC0118
:1047F000EA85FB8520E030E040E068E20995EE8143
:10480000FF8120E030E040E064E1CE01099541E025
:104810006BE4CE010E942925E881F981448169E297
:10482000CE010E94292540E06BE4CE010E9429259B
:10483000E881F981448169E2CE010E94292541E0A5
:104840006BE4CE010E942925E881F981458169E266
:10485000CE010E942925DF91CF9108950F931F93D8
:10486000CF93DF9300D000D01F92CDB7DEB76C831B
:104870004D832B831A830983DC011496ED91FC91FF
:1048800015979E012F5F3F4F41E06FE009950F9014
:104890000F900F900F900F90DF91CF911F910F917C
:1048A0000895DC011496ED91FC91159720E030E01D
:1048B00040E069E009950895DC011496ED91FC91C2
:1048C000159720E030E040E06AE009950895462F12
:1048D000DC011496ED91FC91159720E030E06BE03F
:1048E00009950895DC011496ED91FC91159720E04F
:1048F00030E040E060E109950895EF92FF920F9358
:104900001F93CF93DF938C01C42F79016D30B9F0E1
:1049100018F46B3031F072C06E3069F16F30D1F144
:104920006DC0411106C062EB72E00E94202381E05D
:1049300066C06DEA72E00E94202381E060C04111F0
:104940000DC066EA72E00E942023D801ED91FC912F
:104950001197828954968C9381E051C06FE972E07F
:104960000E942023D801ED91FC91119783895496E0
:104970008C9381E044C00E940A2361E8C8010E9430
:10498000EA226C2FC8010E94F522C8010E9415235B
:1049900081E035C00E940A23F701D381DD0FDD0FCE
:1049A000DD0FD80154968C91D80F60E4C8010E94A5
:1049B000EA226D2F62956F706061C8010E94EA2241
:1049C0006D2F6F70C8010E94F522F7016481606B42
:1049D000C8010E94F522D7014D915C911197129662
:1049E0006C91660F660F660FC8010E940023C150CC
:1049F00091F7C8010E94152381E001C080E0DF919A
:104A0000CF911F910F91FF90EF9008950F931F93F7
:104A1000CF938C01C62F0E947D24811115C0C9300F
:104A200061F0CA3091F4C8010E94F52367EB72E08F
:104A3000C8010E94202381E008C067E872E0C80135
:104A40000E94ED2381E001C081E0CF911F910F9181
:104A50000895DC011A96ED91FC911B9720E030E05F
:104A60000995089580E00895FC011182108282E387
:104A700095E2958384839783868391878087938744
:104A80008287158A108E14861586168617868FEFF4
:104A9000868B828F0895AF92BF92CF92DF92EF9272
:104AA000FF920F931F93CF93DF93EC015B016A0199
:104AB00079010E943425BD82AC82DF82CE82F986E4
:104AC000E8861B870A87CE010E945124DF91CF918F
:104AD0001F910F91FF90EF90DF90CF90BF90AF901C
:104AE0000895E1ECF0E0208128612083E2ECF0E021
:104AF000208127602083DC01CB01880F991FAA1F2A
:104B0000BB1F880F991FAA1FBB1F9C01AD01220F5D
:104B1000331F441F551F220F331F441F551F60E0D2
:104B200074E284EF90E00E94AB298FEF820F8093B4
:104B3000C400DA01C9010197A109B109892F9A2F8F
:104B4000AB2FBB278093C500089590937505809384
:104B5000740550937B0540937A05709379056093B3
:104B60007805E8E6F0E0808184608083EDE6F0E09F
:104B700080818160808360E875E280E090E00E943F
:104B800071250895E0ECF0E080818823ECF78091B6
:104B9000C60008958093C600E0ECF0E0808185FFB8
:104BA000FDCF0895CF92DF92EF92FF921F93CF93A4
:104BB000DF93CDB7DEB72A970FB6F894DEBF0FBEEE
:104BC000CDBF6C0110E001C01F5FE12EF12C0E94EF
:104BD000C225E1E0F0E0EC0FFD1FEE0DFF1D80832C
:104BE0008A3091F7FE01EE0DFF1D11828981F601D9
:104BF00080832A960FB6F894DEBF0FBECDBFDF913B
:104C0000CF911F91FF90EF90DF90CF900895CF93B9
:104C1000DF93EC018881882331F021960E94CA2518
:104C200089918111FBCFDF91CF9108950F931F934D
:104C3000CF93DF93CDB7DEB72F970FB6F894DEBFD3
:104C40000FBECDBF9FEF980F923008F469C183303B
:104C500099F4E0917805F0917905A0917405B091EF
:104C600075052081318112968D919C911397820F49
:104C7000931F9183808354C1813169F4E091780559
:104C8000F091790511821082E0917A05F0917B050F
:104C90001182108245C1843099F4E0917805F09139
:104CA0007905A0917405B091750580819181129666
:104CB0002D913C911397821B930B9183808330C17C
:104CC000863059F4E0917A05F0917B0580819181DD
:104CD000845691099183808323C1873059F4E091F0
:104CE0007A05F0917B05808191818C599F4F91834A
:104CF000808316C18D30F1F4E0917405F091750553
:104D0000808191810196918380838CEE92E00E9454
:104D10000726E0917405F09175054AE0BE016F5FCA
:104D20007F4F808191810E94F929CE0101960E94D6
:104D30000726F6C08C30F1F4E0917405F09175050A
:104D40008081918101979183808387EF92E00E9417
:104D50000726E0917405F09175054AE0BE016F5F8A
:104D60007F4F808191810E94F929CE0101960E9496
:104D70000726D6C08830F1F4E0917405F0917505EE
:104D80008281938149969383828388E093E00E9495
:104D90000726E0917405F09175054AE0BE016F5F4A
:104DA0007F4F828193810E94F929CE0101960E9452
:104DB0000726B6C08930F1F4E0917405F0917505CD
:104DC0008281938149979383828388E193E00E9453
:104DD0000726E0917405F09175054AE0BE016F5F0A
:104DE0007F4F828193810E94F929CE0101960E9412
:104DF000072696C08231F1F4E0917405F0917505B3
:104E00008681978149969783868384E093E00E9408
:104E10000726E0917405F09175054AE0BE016F5FC9
:104E20007F4F868197810E94F929CE0101960E94C9
:104E3000072676C08B30F1F4E0917405F09175058A
:104E40008681978149979783868384E193E00E94C6
:104E50000726E0917405F09175054AE0BE016F5F89
:104E60007F4F868197810E94F929CE0101960E9489
:104E7000072656C08E3059F486E293E00E9407263A
:104E8000E0917405F09175051182108249C08F3050
:104E900069F486E393E00E940726E0917405F0919F
:104EA000750581E090E0918380833AC0803169F498
:104EB0008AE493E00E940726E0917405F09175055D
:104EC00083E090E0918380832BC096E0E2E3F1E001
:104ED0008E010F5F1F4FD80101900D929A95E1F757
:104EE000FE01379694E0DF011D929A95E9F740E1C3
:104EF000BE01655F7F4F90E00E94F929BE01655FAA
:104F00007F4FC8010E94EE29F80101900020E9F7C7
:104F100031978AE090E091838083C8010E94072640
:104F20002F960FB6F894DEBF0FBECDBFDF91CF91A5
:104F30001F910F9108955058BB27AA270E94B327AD
:104F40000C9404290E94F62838F00E94FD2820F0D5
:104F500039F49F3F19F426F40C94F3280EF4E095ED
:104F6000E7FB0C94ED28E92F0E94152958F3BA1796
:104F7000620773078407950720F079F4A6F50C946F
:104F800037290EF4E0950B2EBA2FA02D0B01B90195
:104F900090010C01CA01A0011124FF27591B99F0AF
:104FA000593F50F4503E68F11A16F040A22F232FBB
:104FB000342F4427585FF3CF469537952795A7950B
:104FC000F0405395C9F77EF41F16BA0B620B730BB2
:104FD000840BBAF09150A1F0FF0FBB1F661F771F23
:104FE000881FC2F70EC0BA0F621F731F841F48F4D8
:104FF000879577956795B795F7959E3F08F0B0CF61
:105000009395880F08F09927EE0F97958795089547
:105010000E941C280C9404290E94FD2858F00E942C
:10502000F62840F029F45F3F29F00C94ED28511147
:105030000C9438290C94F3280E94152968F39923BD
:10504000B1F3552391F3951B550BBB27AA27621784
:105050007307840738F09F5F5F4F220F331F441F91
:10506000AA1FA9F335D00E2E3AF0E0E832D09150C5
:105070005040E695001CCAF72BD0FE2F29D0660FB2
:10508000771F881FBB1F261737074807AB07B0E8F5
:1050900009F0BB0B802DBF01FF2793585F4F3AF0FB
:1050A0009E3F510578F00C94ED280C9438295F3F11
:1050B000E4F3983ED4F3869577956795B795F79581
:1050C0009F5FC9F7880F911D9695879597F9089569
:1050D000E1E0660F771F881FBB1F62177307840705
:1050E000BA0720F0621B730B840BBA0BEE1F88F714
:1050F000E09508950E9481286894B1110C94382994
:1051000008950E941D2988F09F5798F0B92F99277C
:10511000B751B0F0E1F0660F771F881F991F1AF0A2
:10512000BA95C9F714C0B13091F00E943729B1E0A7
:1051300008950C943729672F782F8827B85F39F0A6
:10514000B93FCCF3869577956795B395D9F73EF43B
:1051500090958095709561957F4F8F4F9F4F0895E3
:10516000E89409C097FB3EF4909580957095619501
:105170007F4F8F4F9F4F9923A9F0F92F96E9BB27B7
:105180009395F695879577956795B795F111F8CF33
:10519000FAF4BB0F11F460FF1BC06F5F7F4F8F4F9E
:1051A0009F4F16C0882311F096E911C0772321F094
:1051B0009EE8872F762F05C0662371F096E8862F2C
:1051C00070E060E02AF09A95660F771F881FDAF783
:1051D000880F9695879597F9089597F99F6780E8C6
:1051E00070E060E008959FEF80EC089500240A9439
:1051F0001616170618060906089500240A941216B2
:105200001306140605060895092E0394000C11F4E4
:10521000882352F0BB0F40F4BF2B11F460FF04C091
:105220006F5F7F4F8F4F9F4F089557FD9058440FEA
:10523000551F59F05F3F71F04795880F97FB991FF5
:1052400061F09F3F79F087950895121613061406B2
:10525000551FF2CF4695F1DF08C01616170618063F
:10526000991FF1CF86957105610508940895E8941A
:10527000BB2766277727CB0197F908950E9451290C
:105280000C9404290E94F62838F00E94FD2820F092
:10529000952311F00C94ED280C94F32811240C9410
:1052A00038290E94152970F3959FC1F3950F50E09E
:1052B000551F629FF001729FBB27F00DB11D639FC8
:1052C000AA27F00DB11DAA1F649F6627B00DA11D6E
:1052D000661F829F2227B00DA11D621F739FB00D14
:1052E000A11D621F839FA00D611D221F749F332784
:1052F000A00D611D231F849F600D211D822F762F1D
:105300006A2F11249F5750409AF0F1F088234AF0F9
:10531000EE0FFF1FBB1F661F771F881F9150504065
:10532000A9F79E3F510580F00C94ED280C94382984
:105330005F3FE4F3983ED4F3869577956795B795EC
:10534000F795E7959F5FC1F7FE2B880F911D969506
:10535000879597F90895A1E21A2EAA1BBB1BFD01A0
:105360000DC0AA1FBB1FEE1FFF1FA217B307E40744
:10537000F50720F0A21BB30BE40BF50B661F771F9C
:10538000881F991F1A9469F760957095809590957C
:105390009B01AC01BD01CF010895A29FB001B39F55
:1053A000C001A39F700D811D1124911DB29F700D2E
:1053B000811D1124911D08950E94CD29A59F900D56
:1053C000B49F900DA49F800D911D11240895DC01C0
:1053D00001C06D9341505040E0F70895FB01DC019E
:1053E0000D900020E9F7119701900D920020E1F750
:1053F0000895BB274A3031F4992322F4BDE29095F9
:1054000081959F4F0C94052ABB27FB015527AA279E
:10541000880F991FAA1FA41710F0A41B8395505141
:10542000B9F7A05DAA3308F0A95DA193009779F7B9
:10543000B111B1931192CB010C941E2ADC01FC0135
:10544000672F71917723E1F7329704C07C916D93B8
:1054500070836291AE17BF07C8F30895F894FFCF29
:105460000000FF003200640000000A00FFFF00009F
:10547000404000005C4201140221022E023B02481F
:105480000255025A02600268020159016D017E0153
:105490008F0152583A3E20000000000050726573A0
:1054A00073202253656C656374220020746F20633F
:1054B0006F6E74696E756521005350454349414CC8
:1054C000205448414E4B5320544F203A00427261C1
:1054D0006D202C2057696C6C69616D2C2000416E29
:1054E000746F6E69732C20436F726E652C200059A7
:1054F00061736D696E652C204164696C004E6F208C
:10550000636F6E74656E742079657421004D6F64ED
:10551000653A2000446972656374696F6E3A3E2093
:1055200000416E676C653A3E20004261747465729A
:10553000793A3E20005350444F3A3E2000206465A3
:105540006700206D56002D3E2000302D323535008D
:10555000636D0053706565643A3E202000446973B2
:1055600074616E63653A3E200072756E54696D65B4
:105570003A3E20004D6F64653A3E202020202020D6
:10558000004D61782053706565643A3E2000646583
:105590006C61793A3E2020202020004D696E2073F6
:1055A000706565643A3E200064756D6D793A3E2001
:1055B0002020202000446174610044617461320045
:1055C000436F6D706173730053657474696E6773B4
:1055D00000EA01DE01F0012002F301B401FD01093E
:1055E000028E21BE21CA210001140A6464323200F5
:1055F000127A00000428961008000080004000186D
:1056000015A015C019FF1815A115C819FF1815AE5A
:1056100019FF1815AF19FF1815AE15D5168015A866
:10562000163F15D316001540158D161415201600BB
:1056300015A115C815DA1612158116CF15D916F150
:1056400015DB1640152E15A415A619FF4D6F6465C0
:105650002055703A3E20004D6F646520646F776E70
:105660003A3E20004D696E20537065656420557088
:105670003A3E20004D696E20537065656420646F6A
:10568000776E3A3E20004D6F646520303A3E2052DE
:10569000656D6F7465004D6F646520313A3E204141
:1056A00075746F6E6F6D6F7573004D6F646520322A
:0E56B0003A3E204175746F6E6F6D6F7573001A
:00000001FF
