:100000000C9434000C9451000C9451000C94510049
:100010000C9451000C9432010C9451000C9451003A
:100020000C9451000C9451000C9451000C9451000C
:100030000C9451000C9451000C9451000C945100FC
:100040000C9451000C9451000C9451000C945100EC
:100050000C9451000C9451000C9451000C945100DC
:100060000C9451000C94510011241FBECFEFD8E026
:10007000DEBFCDBF11E0A0E0B1E0E6E4F3E002C0F6
:1000800005900D92AA31B107D9F721E0AAE1B1E0BC
:1000900001C01D92AA31B207E1F70E9453000C94EF
:1000A000A1010C9400000E948B007894FFCFE1EC3A
:1000B000F0E0208128612083E2ECF0E020812760DD
:1000C0002083DC01CB01880F991FAA1FBB1F880F5B
:1000D000991FAA1FBB1F9C01AD01220F331F441F94
:1000E000551F220F331F441F551F60E074E284EF39
:1000F00090E00E946B018FEF820F8093C400DA01C1
:10010000C9010197A109B109892F9A2FAB2FBB27EC
:100110008093C5000895E8E6F0E0808184608083E4
:10012000EDE6F0E08081816080838FEF84B960E844
:1001300075E280E090E00E94570015B80895E0EC69
:10014000F0E080818823ECF78091C60008958093C9
:10015000C600E0ECF0E0808185FFFDCF0895EF92CE
:10016000FF920F931F93CF937C01C0E001C0CF5F3C
:1001700087010C0F111D0E949F00F80180838A30B7
:10018000B1F71082CF911F910F91FF90EF900895DA
:10019000CF93DF93EC018881882331F021960E9470
:1001A000A70089918111FBCFDF91CF910895EF9244
:1001B000FF920F931F93CF93DF93CDB7DEB72A97AC
:1001C0000FB6F894DEBF0FBECDBF8C0115B86EE040
:1001D00071E00E949801892B39F42C9A2D9A8AE0BB
:1001E00091E00E94C80031C065E171E0C8010E9441
:1001F0009801892B39F42C982D9881E191E00E9487
:10020000C80023C086E0E0E0F1E09E012F5F3F4F91
:100210007901D90101900D928A95E1F7FE01379697
:1002200084E0DF011D928A95E9F7B801C9010E94B7
:100230008D01F70101900020E9F731978AE090E005
:1002400091838083C7010E94C8002A960FB6F89454
:10025000DEBF0FBECDBFDF91CF911F910F91FF90F9
:10026000EF9008951F920F920FB60F9211242F93C3
:100270003F934F935F936F937F938F939F93AF932E
:10028000BF93EF93FF93CF93DF93CDB7DEB72A975A
:10029000DEBFCDBFCE0101960E94AF00CE01019618
:1002A0000E94D7002A960FB6F894DEBF0FBECDBFCE
:1002B000DF91CF91FF91EF91BF91AF919F918F917E
:1002C0007F916F915F914F913F912F910F900FBE52
:1002D0000F901F901895A1E21A2EAA1BBB1BFD01BF
:1002E0000DC0AA1FBB1FEE1FFF1FA217B307E40715
:1002F000F50720F0A21BB30BE40BF50B661F771F6D
:10030000881F991F1A9469F760957095809590954C
:100310009B01AC01BD01CF010895FB01DC010D90F3
:100320000020E9F7119701900D920020E1F7089560
:10033000FB01DC018D91019080190110D9F3990B1B
:060340000895F894FFCFC0
:1003460052583A3E2000000000004C45445F4F4E94
:0A035600004C45445F4F464600008E
:00000001FF
