:100000000C9434000C9449000C9449000C94490061
:100010000C9449000C9449000C9449000C9449003C
:100020000C9449000C9449000C9449000C9449002C
:100030000C9449000C944B000C9449000C9449001A
:100040000C9449000C9449000C9449000C9449000C
:100050000C9449000C9449000C9449000C944900FC
:100060000C9449000C94490011241FBECFEFD8E036
:10007000DEBFCDBF11E0A0E0B1E0EEE6F1E002C0EE
:1000800005900D92A230B107D9F70E948D000C9413
:10009000B5000C9400001F920F920FB60F9211241E
:1000A0008F939F93809100018C3619F0823739F03D
:1000B0000CC095B180E2892785B92C9808C095B10C
:1000C00080E1892785B92D9802C02D982C989F91A1
:1000D0008F910F900FBE0F901F90189584B1886379
:1000E00084B9E1E8F0E0808184608083EFE6F0E0AD
:1000F00080818160808308958C3619F0823729F0E1
:1001000008C08CE680930001089582E78093000187
:10011000089580E28093000108950E946E00789413
:100120008CE60E947C002FEF83E294EF2150804008
:100130009040E1F700C0000082E70E947C002FEFB2
:1001400083E294EF215080409040E1F700C000002E
:1001500080E20E947C002FEF83E294EF21508040E8
:0E0160009040E1F700C00000DBCFF894FFCF25
:02016E0020006F
:00000001FF
