S0100000526F626F744361722E73726563F8
S11300000C9482070C949F070C949F070C94B108DE
S11300100C949F070C94FC090C949F070C949F0765
S11300200C949F070C949F070C949F070C949F07B4
S11300300C949F070C949F070C949F070C94400BFF
S11300400C949F070C949F070C949F070C949F0794
S11300500C949F070C949F070C949F070C949F0784
S11300600C949F070C949F07084AD73B3BCE016E24
S113007084BCBFFDC12F3D6C74319ABD56833DDAFB
S11300803D00C77F11BED9E4BB4C3E916BAAAABE0A
S1130090000000803F00BF000302030403050406C0
S11300A00A00FE07FE07000142028807C42005007B
S11300B0620721073943C7A00422079B52476209FC
S11300C0230E3D424F294906A53228A52401240CBC
S11300D03D4257B6D4B624D92200250C3D424FA444
S11300E074ABB4480900260D3D424F964449564925
S11300F0A4480927061953C7002808BB425752AA27
S1130100152909BB424756AA94002A0A2D46479648
S11301105406A52D2B0A2D4657180D5218012C07ED
S11301209B3E8F52022D060D4EC7202E089B3E4F3C
S1130130B224002F083D4267AD6308300B3D42579F
S113014096D46C492D02310A3D4257262561D320AD
S1130150320C3D42CF92859194858300330C3D420D
S1130160C7206699AA250B00340C3D425F2625A5BD
S113017064D0C204350B3D42C73131855AB20036D2
S11301800C3D4297948589494B1600370B3D42C775
S113019020666156CC00380C3D42CF9269C9926901
S11301A0C902390C3D42CF92498A126691043A0A37
S11301B0BB3E4FB2A4C992003B09BB3E4FB2A44A16
S11301C0093C08BC425FD4D8003D081D4AC7A00EB4
S11301D0023E08BC4247D8D4063F0A3D42CF92357E
S11301E0E65004400C3D42CF92494B62491700410E
S11301F00C3D425796D4B461C8B400420D3D42C789
S11302001055A264AA448302430A3D42CF92896DE9
S1130210C902440F3D42C71055A2244AA2241A140D
S113022000450B3D42C7311C92301C04460A3D4236
S1130230C7311C92B008470B3D42CF9289A52D5976
S113024000480A3D4247661B86CC164908BB42C794
S11302501275194A0A3D42D716B64491044B0D3D16
S113026042472625252D892A59004C083D4247D866
S1130270E3204D0B3D4247A62D4BA2D9024E0C3D27
S11302804247A64D4A226D5A004F0A3D42CF927909
S11302904B1600500C3D42C79064DAA084450051CF
S11302A00A453ECF9279A9AC01520D3D42C79064F4
S11302B0DAA0942A5900530B3D42CF92A9AB962C55
S11302C00054093D42C720853D0155093D4247E69A
S11302D05BB200560D3D4247664B4A499464110097
S11302E0570A3D4247E69228C92D580B3D4247A67E
S11302F025B54A4D0B590A3D4247A625B5B0095AC2
S11303000A3D42C720661D07015B08BB42C7107542
S11303101A5C083D424798760C5D08BB42C7D46915
S1130320085E081D525796D4025F060D3EC7206032
S113033006125B4714610A2D42CF9A0C5A320462AA
S11303400B3D424758316993A200630A2D42CF9274
S11303508959B200640A3D4267C5B4498A12650AE4
S11303602D42CF920D43BA00660B3D429754C98685
S113037028AC01670C3D3ACFA069C9106AC902686C
S11303800A3D4247583169B6006908BB424F28B557
S11303900C6A0BCC3A5FACD5242951006B0B3D425F
S11303A047589392A992056C08BB4287D4CB006D41
S11303B00B2D4287D2A2244AA2056E092D42476220
S11303C0D26C016F092D42CF92D99205700C3D3A3F
S11303D04762D22645094300710A3D3A8F69931456
S11303E0252C72092D424762128B0073092D42CFCE
S11303F0921E1400740C3D424F980D51588A1400FB
S113040075092D4247E6A42801760B2D4247A625FF
S1130410A5248B00770A2D42476649942E00780A5A
S11304202D424796D42AB500790C3D3A476652943A
S1130430504B16007A092D42C7A0B50D027B0ABCA9
S11304404297122662140A7C063943C7217D0BBCED
S1130450428718854A9848007E091D524FA42452A9
S113046002A005006207A1073943473208A20E3DE6
S11304703E573628511225D9104500A30C3D42970A
S113048054C9B630521400A40B2D4247964C49B4BB
S11304906401A50D453E47A625B56890C21200A685
S11304A0063943C732A70B453ECF124E9DC66401A1
S11304B0A8068B5E4712A90D3D42CF9229C9A424F8
S11304C05AB200AA0AB446CF10294A7108AB0C2EBE
S11304D04257254AA22CCAA200AC07944AC79005E9
S11304E0AD068C4EC710AE0C3D42CF920DC9346997
S11304F0C902AF060D5EC720B0079B524F1700B16B
S11305000B354257180D52180D02B209AC4E8F121A
S1130510350D01B309AC4EC798884302B406125B8B
S11305208F02B50A353E47669B142504B60F3D423B
S1130530CF30244392285112255112B706094F4750
S113054000B806123B8F02B908AB4E4F225506BACB
S11305500AB4468F1249893A04BB0D2E424794458A
S1130560599444491401BC0D4E3E4FA816A7504B54
S1130570A2210DBD0C4E3E4FA816973049C370BE44
S11305800E4D3E879AA591944949328401BF0A3D94
S113059042570E8559CB02C00C45424F9A2D9936CD
S11305A00C9916C10C45425F6DC9B461C8B400C250
S11305B00D45425796444BA60D43A605C30D45422F
S11305C04FA4484BA60D43A605C40C45424F1D58E5
S11305D0326D18322DC50D45425796444BA60D4336
S11305E0A605C60C3E42D790949A86216A1AC70B78
S11305F04D3ACF92896DC95603C80C45424F368C8B
S1130600E19084E120C90C45425F328CE19084E1A1
S113061020CA0C454257348CE19084E120CB0C4530
S1130620424F6518C32109C341CC0AC34247962CE3
S113063051CB00CD0AC34257922C51CB00CE0AC3F2
S1130640424F6548A29601CF0AC34247922D51CB2F
S113065000D00E3D42C71055A2212925D1A000D1BA
S11306600C454257D26D521269D302D20B45424F08
S11306709A2D995BB200D30A45425F6DC9DC92059D
S1130680D40C45425796444BE6962C00D50B454274
S113069057D2B4646EC902D60B45424F1D5832B7C7
S11306A06401D70A2D424796D42AB500D80C3D429E
S11306B0CF125D92694A1600D90A45424F1A65DE87
S11306C09205DA0A45425F29F3962C00DB0B45427A
S11306D05796C4995BB200DC0A45424F39F3962C15
S11306E000DD0B45425F29D3925A5802DE0C3D428D
S11306F0473824D9A0844500DF0D3D42CF924949B3
S1130700A992290A00E00C45424F9A236B3268C92A
S113071010E10C45425F1D5993414B8600E20D45A3
S1130720425796E4C09A0C5A3204E30D454257D21C
S11307300EACC9A0254300E40C3D424F1D58934123
S11307404B8600E50D4542579664D99A0C5A3204FB
S1130750E60C2E42CF1026C930658300E70B3D3AE4
S1130760CF928959B2D500E80C45424F9A234B36B3
S11307700CE902E90C45425F1D59B261481700EAD1
S11307800D45425796E4C0920D43BA00EB0C3D422E
S11307904F1D58B261481700EC09C34247164A2D51
S11307A003ED08C3424F556A19EE08C3424F9BD468
S11307B032EF09BB424792492D03F00B3D42872A91
S11307C02D992D5900F10B454257D29C98345B006A
S11307D0F20C45424F9A234B664B1600F30B4542ED
S11307E05F1D59325BB200F40C45425796E4C09247
S11307F0D99205F50C454257D20E2C992D5900F685
S11308000B3D424F1D58325BB200F70A2D46570E7E
S11308100C3A1001F80B2D42CF202DC9342800F9D1
S11308200B45424F9A039993A204FA0A45425F1D6D
S1130830C89C1425FB0B45425796C49993A204FC0B
S11308400A3D424F3973529400FD0D4D3A5F2933EE
S1130850294AA8250B00FE0C453A473824996D50C7
S1130860C210FF0D4D3A4F3933294AA8250B000019
S1130870000004FFFF0000BF00020203030304049E
S1130880050700FF06FF06000112022F067020056F
S113089000BD012106B1B1192922075BB7495600F1
S11308A0230A2DB1AB86AA86AA00240A2DB15B3592
S11308B0D820A505250934B1C920F6060126092C3E
S11308C0B18B29563105270599B719280772B153F9
S11308D0CD00290872B189A952002A076BB149D504
S11308E06A2B0A2DB1CD280E9951042C075BAF5306
S11308F025002D060CB519012E0652B119012F073A
S113090024B307B10D300873B1AB5C150031077324
S1130910B14BB235320A34B1533183588E00330BA4
S113092034B11919248D645200340A34B18DAA1AD1
S1130930318304350A34B1191A6C249302360A340B
S1130940B15319AC289302370B34B11919C40C6292
S11309500611380A34B15331A9289302390A34B143
S11309605351A60D92023A076AB11971043B083338
S1130970AFB3912A013C086BB14D35C8203D081C2A
S1130980B319198D003E096BB1C9208354023F0984
S113099073B16BA60C1300400934B15351DD480107
S11309A0410934B153518E2903420A34B15971A417
S11309B0284702430B34B15351830C62520044095B
S11309C034B159D1391200450B34B1191AAC0C3277
S11309D01801460B34B1191AAC0C32C800470A345A
S11309E0B153518334D300480834B189724C33492C
S11309F00773B159B1354A0B34B107196490814C6E
S1130A000A4B0A34B1892A4999CA004C0C34B1C939
S1130A1020830C32C860044D0934B189E388660030
S1130A204E0834B1896BA9334F0934B153D19914A9
S1130A3000500A34B159518E944106510A3CAF53C7
S1130A40D15C49A300520934B159518ED40C530AD4
S1130A5034B1533165542605540773B159B10B555C
S1130A600834B1899E4901560934B189CE24150050
S1130A70570934B189E6386200580A34B1893249D9
S1130A80156500590873B1495659015A0A34B11908
S1130A9019C43618015B0773B119B1395C0924B361
S1130AA0C928A38C025D0773B199CD115E0553B9B2
S1130AB06B5F060CB11901600652B9890161082403
S1130AC0B11B51A902620B34B1C9208315E548005A
S1130AD0630723B19B1908640A34B10719A411658B
S1130AE01A650924B1536964A000660934B1ADCA1A
S1130AF099410467092CAF1B31A98C06680A34B1EB
S1130B00C9208315CD00690873B1CB4856036A091F
S1130B107BAFCDB05415006B0B34B1C92083946402
S1130B202A036C0773B1915D036D0824B1496948C8
S1130B30196E0724B159D10C6F0824B153512605FD
S1130B4070092CAF59518E940171092CAF1B51A619
S1130B500D02720824B15951830C730824B11B1A75
S1130B600D05740A34B1CB20CE0C3212750724B1B2
S1130B7089661A760763B1495605770724B18972E5
S1130B801C780824B18949AA1879092CAF893295AF
S1130B9025007A0824B119B11C017B0873B14D49B1
S1130BA0D6207C05B1B1397D0A73B1C920AA982237
S1130BB0007E0714B94B2A01A00500BD01A106B1AE
S1130BC0B14923A20934AF8D23356702A3082CB1A0
S1130BD055715602A40B2DB1C920CD14570601A599
S1130BE00973B149AA5A3101A606A9B15102A7084D
S1130BF07BAF9BAA920BA8064BBB4901A90D3DAF45
S1130C005B19A83455D2202D00AA061BB75B49AB4B
S1130C10071DB38BB201AC0714B3191904AD054B0E
S1130C20B519AE0C3DAF5B198C34A7066901AF064C
S1130C300CBB1901B0065BB7EB02B10B35B1CD2883
S1130C400E99511C02B20662B55106B30662B5197B
S1130C5069B40652B95300B5082CAF89E64819B6F1
S1130C600834B11B6AF503B70652B51901B8065228
S1130C70AF5300B90763B54B320DBA061BB7EB028D
S1130C80BB081DB389A54C00BC0C3CAFC920830C28
S1130C9062541B04BD0D3CAFC920830C9206310382
S1130CA001BE0B3CAF911A4415D50601BF0973B1BF
S1130CB0CB30C55401C00934B153518E2903C10945
S1130CC034B153518E2903C20934B153518E2903CF
S1130CD0C30934B153518E2903C40A34B18949C5B7
S1130CE0316500C50934B1932A8E2903C60934B18C
S1130CF01BA91AAA25C70B3CAF5351830C6292114E
S1130D00C80B34B1191AAC0C321801C90B34B1191F
S1130D101AAC0C321801CA0B34B1191AAC0C3218C3
S1130D2001CB0B34B1191AAC0C321801CC0773B1D6
S1130D3059B135CD0773B159B135CE0773B159B136
S1130D4035CF0773B159B135D00934B19969758D6F
S1130D5004D10834B14973A933D20934B153D199B8
S1130D601400D30934B153D1991400D40934B153C4
S1130D70D1991400D50934B153D1991400D60A3449
S1130D80B1894945332900D70824B18949AA18D81B
S1130D900934B11BE9484702D90834B1899E490195
S1130DA0DA0834B1899E4901DB0834B1899E4901CE
S1130DB0DC0A34B1891945332900DD0873B1495679
S1130DC05901DE0B34B1C960C59132C800DF093462
S1130DD0B15351955602E00A34B1CB288EA8540180
S1130DE0E10934B1ADC1884A15E20934B1ADD28804
S1130DF04A15E30A34B14B2A8EA85401E40934B1EC
S1130E00ABE1884A15E50934B1937244A50AE608B2
S1130E1024B11B69C501E7086BAF9B19A804E80B53
S1130E2034B1CB28AA34325000E90A34B1AD814A36
S1130E30230305EA0B34B18B29AA34325000EB0B9F
S1130E4034B14999506964A000EC0873B1C920C950
S1130E506AED0773B12B6535EE0773B1AB6635EFF9
S1130E600873B14919C86AF00A34B1CBC88A322967
S1130E7000F10934B14B2AAD6806F20A34B1CB282B
S1130E80AA289302F30A34B1AD818A322900F40A04
S1130E9034B1D3848A322900F50A34B14B2AAA2802
S1130EA09302F60A34B1ABA18A322900F7092CB1B6
S1130EB0D37064A800F80924B11B69A49100F9094E
S1130EC034B1CBA834D300FA0734B16D9A69FB0866
S1130ED034B1D3309A69FC0934B1AB5134D300FD39
S1130EE0093CAF6DCA549600FE0A34AFC960453957
S1130EF05206FF0A3CAFAB5194A92C010000000438
S1130F00FFFF000011241FBECFEFD8E0DEBFCDBF2E
S1130F1013E0A0E0B1E0EEE9FCE402C005900D921C
S1130F20AE37B107D9F725E0AEE7B3E001C01D92B3
S1130F30A038B207E1F70E94AC0A0C944D260C9439
S1130F4000009093B3048093B2047093B904609347
S1130F50B804229A2398249A2598EBE6F0E080813D
S1130F6088628083E8E6F0E0808181608083E1E844
S1130F70F0E08081836080830895E4E8F0E01182EA
S1130F8010822081318195B141E050E002C0440FCC
S1130F90551F8A95E2F7942B95B92E5F3F4F8081B8
S1130FA0918182179307D8F385B14095482345B9B9
S1130FB008958F929F92AF92BF92CF92DF92EF9259
S1130FC0FF92CF93DF93C090C604D090C704E09003
S1130FD0C804F090C90420E030E040EA51E4C701BD
S1130FE0B6010E94BD2318160CF44BC08090CA04AD
S1130FF09090CB04A090CC04B090CD04A5019401B2
S1131000C701B6010E94BD231816DCF1A7019601A1
S1131010C501B4010E9421236093BA047093BB04F8
S11310208093BC049093BD0423E333E343ED50E485
S11310300E94C2236093C2047093C3048093C404C7
S11310409093C5040E948E236093BE047093BF04E2
S11310508093C0049093C10420E030E044E353E45F
S11310600E94502523EC35EF48E450E40E94C2234B
S11310706093B4047093B5048093B6049093B7045A
S113108055C08090CA049090CB04A090CC04B0903A
S1131090CD0420E030E040EA51E4C501B4010E94EF
S11310A0BD2318160CF442C0A5019401C701B60172
S11310B00E9443258823D4F1A5019401C701B601F8
S11310C00E9421236093BA047093BB048093BC04F0
S11310D09093BD0423E333E343ED50E40E94C22321
S11310E06093C2047093C3048093C4049093C504B2
S11310F00E948E236093BE047093BF048093C00447
S11311009093C10420E030E044E353E40E9450256E
S113111023EC35EF48E450E40E94C2236093B40406
S11311207093B5048093B6049093B704C091B80447
S1131130D091B9046091B4047091B5048091B6045F
S11311409091B7040E94342479836883DF91CF910E
S1131150FF90EF90DF90CF90BF90AF909F908F90D3
S113116008951F920F920FB60F9211240F931F939D
S11311702F933F934F935F936F937F938F939F939B
S1131180AF93BF93CF93DF93EF93FF9383B190E03B
S11311908F779093850380938403892B41F4809106
S11311A082039091830390938503809384038091B9
S11311B08403909185038130910509F473C01CF474
S11311C0009749F0D7C08830910529F08032910505
S11311D009F468C0CFC02091800330918103232B90
S11311E0C1F41092830310928203E4E8F0E01182C8
S11311F010828081918190938F0380938E038091DC
S113120080039091810301969093810380938003DE
S1131210B1C02FEF3FEF309383032093820360919B
S113122084007091850070938D0360938C032091EA
S11312308E0330918F03621B730B8B01072E000CFE
S1131240220B330B009388031093890320938A03A2
S113125030938B03660F771F660F771F7093870396
S113126060938603880F991F880F991FEC01CA5356
S1131270DB4F80E090E00E946A2420E030E048E602
S113128052E40E94C22326E636E646EE5FE30E945D
S11312902223688379838A839B831092810310922B
S11312A0800368C020917E0330917F03232BD1F407
S11312B081E090E09093830380938203E4E8F0E07C
S11312C0118210828081918190938F0380938E0389
S11312D080917E0390917F03019690937F03809386
S11312E07E0348C02EEF3FEF3093830320938203A5
S11312F0609184007091850070938D0360938C03DA
S113130020918E0330918F03621B730B8B01072E88
S1131310000C220B330B0093880310938903209352
S11313208A0330938B03660F771F660F771F7093C2
S1131330870360938603880F991F880F991FEC0118
S1131340CA53DB4F80E090E00E946A2420E030E042
S113135048E652E40E94C22326E636E646EE5FE300
S11313600E942223688379838A839B8310927F035C
S113137010927E03C091B204D091B30406EC14E041
S1131380F80160817181828193810E943424798380
S11313906883C091B204D091B304F801648175816B
S11313A0868197810E94342428813981620F731FBA
S11313B079836883E091B204F091B30480819181D0
S11313C099230CF401969595879591838083FF91D9
S11313D0EF91DF91CF91BF91AF919F918F917F91C9
S11313E06F915F914F913F912F911F910F910F90AA
S11313F00FBE0F901F9018951F920F920FB60F9269
S113140011242F933F934F935F936F937F938F9305
S11314109F93AF93BF93EF93FF93CF93DF93CDB796
S1131420DEB72A97DEBFCDBF489909C0CE01019629
S11314300E940122CE0101960E94292223C04C99C8
S113144007C084E090E09093CF048093CE041AC048
S11314504D9907C085E090E09093CF048093CE042B
S113146011C04E9907C086E090E09093CF0480931A
S1131470CE0408C04F9906C087E090E09093CF0453
S11314808093CE042A960FB6F894DEBF0FBECDBF6C
S1131490DF91CF91FF91EF91BF91AF919F918F9188
S11314A07F916F915F914F913F912F910F900FBE5C
S11314B00F901F9018950F931F9308E913E02AE0EB
S11314C031E04CE051E06EE071E080E091E00E9498
S11314D0BE0A90939703809396030E94270B0E9461
S11314E0F60C64E973E082E993E00E942D0B0E94FC
S11314F0200C1F910F910895809184009091850094
S113150088399A4388F08091900390919103892BB4
S113151059F484E090E00E94BD0781E090E090934C
S113152091038093900315C080918400909185006D
S113153088399A4370F080919003909191030197B8
S113154041F482E090E00E94BD0710929103109252
S113155090030E94D907089580E091E00E94DC2165
S11315600E945B0A68E973E08AE091E00E94A107A7
S113157078940E94F4130E947C0AFBCF0F931F936C
S11315809093E1048093E00410937A050093790525
S11315907093E3046093E2045093670540936605F7
S11315A0309363052093620526E93EE14BE55EE155
S11315B063E672E082EF94E00E94EA1788E7809382
S11315C0080582EF94E00E94932060E082EF94E0AB
S11315D00E949E2020911201309113014091140128
S11315E050911501609116017091170180911801B5
S11315F0909119010E94C223609316017093170100
S1131600809318019093190166E970E082EF94E0E9
S11316100E942C1C809142058093570580914105BE
S11316208093D00460E082EF94E00E94491CEAE6D3
S1131630F5E084E0818385E08583E8E5F5E093E0E7
S1131640918385838FEA93E01F910F910895E1E6DA
S1131650F0E080E88083108208959093E5048093FD
S1131660E4047093F1046093F00485B5836085BD50
S1131670EEE6F0E08081846080838AEF88BD08957F
S11316801F920F920FB60F9211242F933F934F93F3
S11316905F938F939F93EF93FF938091680590914D
S11316A0690580362AEE9207B8F08CEB90E09093AF
S11316B0690580936805809164059091650501969C
S11316C090936505809364051092AA031092A90370
S11316D081E08093B00318C02091A9033091AA033C
S11316E0A9014F5F5F4F5093AA034093A903283C7D
S11316F0324354F08F5C9E4F909369058093680544
S11317001092AA031092A90380916805909169052B
S113171001969093690580936805E091F004F09137
S1131720F10491838083E091E404F091E5048091D5
S113173064059091650591838083FF91EF919F915A
S11317408F915F914F913F912F910F900FBE0F900A
S11317501F901895EF92FF920F931F93CF93DF93EF
S113176000D01F92CDB7DEB78C017B01FC01108243
S113177019821A821B824AE0BE016F5F7F4F8091FB
S11317806405909165050E941826809164059091E6
S113179065050A9748F4F80101900020E9F73197AC
S11317A080E390E091838083BE016F5F7F4FC80127
S11317B00E94F92520916805309169053695279591
S11317C03695279536952795A5ECB0E20E94E3253A
S11317D04AE0BE016F5F7F4F929582958F70892793
S11317E09F7089270E941826F80101900020E9F7CC
S11317F031978AE390E091838083EA94EF28B1F4EF
S113180080916805909169058031974248F4F80108
S113181001900020E9F7319780E390E09183808381
S1131820BE016F5F7F4FC8010E94F9250F900F9092
S11318300F90DF91CF911F910F91FF90EF9008953A
S1131840ECE7F0E0808182648083EAE7F0E0808165
S1131850876E80830895809178009091790008952F
S1131860CF93DF932091AF03022E000C330BF901C9
S1131870EF52FB4F9081980F908340917B05442356
S113188009F45AC0F901E659FA4FE0814E2F0E2EA1
S1131890000C550B41505109692F092E000C770B90
S11318A0461757074CF4F901EF52FB4F1082F90128
S11318B0EA51FB4F108211C099237CF4D901AF5235
S11318C0BB4F9FEF9E0F9C93D901AA51BB4FE901D7
S11318D0C85ADA4F98819E1B9C93F901EF52FB4F33
S11318E06081062E000C770BF901EA51FB4F9081C1
S11318F0F901E85AFA4F4081042E000C550B491B9C
S1131900510997FD5395641775072CF0F901EA51B5
S1131910FB4F981B9083F901EA51FB4F9081E92F0B
S1131920FF27E1950CF4F0956E177F072CF4F9016D
S1131930EA51FB4F981B9083DF91CF910895811159
S113194015C080911001909111018330910544F5E7
S113195001969093110180931001880F991FFC0147
S1131960EF55FC4F718360838FEF089580911001D0
S113197090911101181619063CF0880F991FFC016B
S1131980EF55FC4F80810895019790931101809346
S11319901001880F991FFC01EF55FC4F80810895B9
S11319A08FEF089580917B058823F9F08091AF0330
S11319B0813031F48091D2048E5F8093AF030DC0E7
S11319C0811104C081E08093AF0307C0853029F4FE
S11319D08091D6048A5F8093AF036091AF03062E93
S11319E0000C770B80E00E949F0C08958AB18F70E1
S11319F08AB98BB1806F8BB99BB185B198130BC039
S1131A00E8E6F0E0808181608083EBE6F0E08081AD
S1131A10806F80831DC09BB188B198130BC0E8E62A
S1131A20F0E0808182608083ECE6F0E08081806F6A
S1131A3080830EC09BB18BB198130AC0E8E6F0E036
S1131A40808184608083EDE6F0E08081806F808314
S1131A502FEF83EC99E0215080409040E1F700C0E3
S1131A60000008958091CE049091CF0485309105B3
S1131A7019F11CF4049759F108958630910519F071
S1131A80079781F0089560E070E081E00E949F0C68
S1131A908093AF0381E080932D011092CF041092C4
S1131AA0CE0408950E94D20C81E080932D011092FF
S1131AB0CF041092CE0408958FEF0E94300C81E081
S1131AC080932D011092CF041092CE04089581E0EA
S1131AD00E94300C81E080932D011092CF0410926B
S1131AE0CE0408952F923F924F925F926F927F920D
S1131AF08F929F92AF92BF92CF92DF92EF920F9309
S1131B00CF93DF9300D000D0CDB7DEB781E08093D0
S1131B107B050F2EF5E2CF2EF1E0DF2EF02D1C8297
S1131B201B82E091AF030E2E000CFF0BEF52FB4F14
S1131B308081082E000C990B2B813C81821793071E
S1131B4009F09DC040901601509017016090180153
S1131B5070901901B901330F880B990B0E946C2402
S1131B60A30192010E94502520E030E040E151E4BD
S1131B700E9422234B015C016091E704062E000CB5
S1131B80770B880B990B0E946C24A30192010E948D
S1131B9050259B01AC01C501B4010E9422230E947F
S1131BA034244B015C01693071050CF4D6C02091DA
S1131BB0AD033091AE032F5F3F4F00243695279538
S1131BC00794369527950794322F202DABEABAEA6D
S1131BD00E94E325969587951C01EFE32E0E311C98
S1131BE020E030E040E050E4C301B2010E94212330
S1131BF00E943424562E472E310133201CF4FFEF6B
S1131C006F1A7F0A7594679461E082EF94E00E94F2
S1131C10EB1C20E430E0261937093A8329830F2E80
S1131C20F3E0EF2EF02D052D222D482D698182EF52
S1131C3094E00E94F31460E082EF94E00E94EB1CB5
S1131C40452D542D552314F44F5F5F4F55954795FB
S1131C504D5F742E780C3981630EF60140805180FB
S1131C60B20182EF94E00E94411C8695662D681BA8
S1131C709201472D82EF94E00E94D91B6EC04090E0
S1131C8016015090170160901801709019012B8172
S1131C903C81B901330F880B990B0E946C24A3017A
S1131CA092010E94502520E030E040E151E40E947E
S1131CB022234B015C016091E704062E000C770B94
S1131CC0880B990B0E946C24A30192010E94502559
S1131CD09B01AC01C501B4010E9422230E9434245B
S1131CE04B015C0169307105C4F120E030E040E053
S1131CF050E4C301B2010E9421230E943424762EB1
S1131D00672E61E082EF94E00E94EB1C0F2EF3E05B
S1131D10EF2EF02D072D20E4482D60E282EF94E0B1
S1131D200E946715872D962D99230CF4019695959D
S1131D3087958D5F782E780CF60140805180B20132
S1131D4082EF94E00E94411C869560E4681B920136
S1131D50472D82EF94E00E94D91B2B813C812F5F99
S1131D603F4F3C832B8332E0C30ED11C8B819C817B
S1131D70059709F0D6CE8091AD039091AE038230E1
S1131D80910530F401969093AE038093AD0306C0A1
S1131D901092AE031092AD0310922D010F900F908C
S1131DA00F900F90DF91CF910F91EF90DF90CF9034
S1131DB0BF90AF909F908F907F906F905F904F9067
S1131DC03F902F9008952F923F924F925F926F927F
S1131DD07F928F929F92AF92BF92CF92DF92EF92B7
S1131DE00F931F93CF93DF9300D000D000D0CDB7D3
S1131DF0DEB781E080937B05609116017091170135
S1131E0080911801909119010E9434244B01772389
S1131E101CF42FEF821A920A9594879433E0830E70
S1131E20911C1B01E2E02E1A31080F2EF5E2CF2E91
S1131E30F1E0DF2EF02D1E821D820F2EF6EEAF2E66
S1131E40F4E0BF2EF02D10E4E091AF030E2E000C51
S1131E50FF0BEF52FB4F8081082E000C990B2D8154
S1131E603E818217930709F062C04090160150909A
S1131E7017016090180170901901B901330F880B94
S1131E80990B0E946C24A30192010E94502520E02A
S1131E9030E040E151E40E94222369837A838B83FA
S1131EA09C83F5016181062E000C770B880B990B3E
S1131EB00E946C24A30192010E9450259B01AC0155
S1131EC069817A818B819C810E9422230E9434241F
S1131ED02B013C01693071050CF486C061E082EF8E
S1131EE094E00E94EB1C0F2EF3E0EF2EF02D022D58
S1131EF020E8442D60E082EF94E00E94F31460E057
S1131F0082EF94E00E94EB1C480CF6016080718023
S1131F10B30182EF94E00E94411C8695612F681BF7
S1131F209301442D82EF94E00E94D91B5DC0409040
S1131F3016015090170160901801709019012D81BD
S1131F403E81B901330F880B990B0E946C24A301C5
S1131F5092010E94502520E030E040E151E40E94CB
S1131F60222369837A838B839C83F5016181062E06
S1131F70000C770B880B990B0E946C24A30192012F
S1131F800E9450259B01AC0169817A818B819C81DF
S1131F900E9422230E9434242B013C0169307105E4
S1131FA01CF161E082EF94E00E94EB1C0F2EF3E041
S1131FB0EF2EF02D022D20E8442D60E082EF94E016
S1131FC00E946715480CF60160807180B30182EFAE
S1131FD094E00E94411C8695612F681B9301442D57
S1131FE082EF94E00E94D91B2D813E812F5F3F4FE9
S1131FF03E832D8332E0C30ED11C8D819E810597D3
S113200009F022CF10922D0126960FB6F894DEBF68
S11320100FBECDBFDF91CF911F910F91EF90DF9055
S1132020CF90BF90AF909F908F907F906F905F9074
S11320304F903F902F900895EF92FF921F93CF936C
S1132040DF93CDB7DEB728970FB6F894DEBF0FBE87
S1132050CDBF81E080937B0588E0EEE2F1E0DE0114
S1132060119601900D928A95E1F7CE0101967C01BB
S113207011E0F701219131917F0140915705149F9F
S1132080402D112460E082EF94E00E94D91B1F5F71
S1132090153079F710E480915705F12EF81A60E4B1
S11320A071E082EF94E00E94411C8695612F681BC9
S11320B020E431E04F2D82EF94E00E94D91B6FE4BD
S11320C071E082EF94E00E94411C8695612F681BA9
S11320D02FE431E040E482EF94E00E94D91B109297
S11320E02D0128960FB6F894DEBF0FBECDBFDF9149
S11320F0CF911F91FF90EF90089540915705475F4E
S113210021EA31E060E082EF94E00E94D91B109252
S11321107B0510922D010895EF92FF920F931F9368
S1132120CF93DF93CDB7DEB728970FB6F894DEBF11
S11321300FBECDBF08E02FE040E069E382EF94E0FA
S11321400E94B11404E023E042E067E482EF94E0EB
S11321500E94B1140E942B0C813021E0920768F494
S11321601092AC031092AB033DC08091AB039091ED
S1132170AC031816190604F135C0813022E0920729
S113218038F481E090E09093AC038093AB0314C0E7
S1132190833123E0920738F482E090E09093AC031B
S11321A08093AB0309C081309440F8F683E090E05B
S11321B09093AC038093AB031BE3E12CF12C04E07C
S11321C023E042E0612F82EF94E00E9489148FEFB4
S11321D0E81AF80A1C5F8091AB039091AC03E816EF
S11321E0F9066CF387E0E1EBF1E0DE011196019072
S11321F00D928A95E1F7E091E004F091E1044AE060
S1132200BE01685F7F4F808191810E941826BE01C4
S1132210685F7F4FCE0101960E94F92567E778E059
S113222082EF94E00E942C1C109157051350BE01BC
S11322306F5F7F4F82EF94E00E94411C60E8681B4F
S11322409E012F5F3F4F412F82EF94E00E94D91BE4
S113225067E778E082EF94E00E942C1C60E070E075
S11322608AE993E00E94AA0B4091570543502AE95A
S113227033E060E082EF94E00E94D91B66E970E0ED
S113228082EF94E00E942C1C28960FB6F894DEBFCF
S11322900FBECDBFDF91CF911F910F91FF90EF90B3
S11322A008957F928F929F92AF92BF92CF92DF92C6
S11322B0EF92FF920F931F93CF93DF93CDB7DEB7C7
S11322C0A8970FB6F894DEBF0FBECDBF10927B0562
S11322D068EB71E082EF94E00E94411C782EBE010D
S11322E06F5F7F4F7AA369A36E0189E0C80ED11C8A
S11322F0DCA2CBA27E01E1E1EE0EF11CFEA2EDA276
S11323008E01075E1F4F18A70FA3E091E204F0911E
S1132310E3044AE0808191810E941826E0916605D9
S1132320F09167054AE0B601808191810E941826E8
S1132330E0916205F09163054AE0B70180819181E3
S11323400E94182661E070E0C8010E94AA0BE09187
S1132350D204EE0FFF0BEB5DFE4F208131814091E3
S11323605705475F60E082EF94E00E94D91B5E014D
S1132370F1E2AF0EB11C0F2EFBE5CF2EF2E0DF2E03
S1132380F02D0F2EF3E5EF2EF2E0FF2EF02D13E0EB
S1132390F501819091905F01B40182EF94E00E9475
S11323A0411C082FF601219131916F01409157058D
S11323B0149F402D112460E082EF94E00E94D91B09
S11323C040915705149F402D11249401672D82EFED
S11323D094E00E94D91BF701219131917F01409132
S11323E05705149F402D11246091D0046695670D04
S11323F0600F82EF94E00E94D91B1F5F173041F6F3
S113240081E080932D01A8960FB6F894DEBF0FBE2D
S1132410CDBFDF91CF911F910F91FF90EF90DF908F
S1132420CF90BF90AF909F908F907F900895CF935F
S1132430DF93CDB7DEB728970FB6F894DEBF0FBE93
S1132440CDBF10927B05E0917905F0917A054AE0C1
S1132450BE016F5F7F4F808191810E941826E091B9
S1132460D204EE0FFF0BEB5DFE4F208131814091D2
S11324705705475F60E082EF94E00E94D91B4091CA
S11324805705440F475F9E012F5F3F4F60E082EF87
S113249094E00E94D91B81E080932D0128960FB609
S11324A0F894DEBF0FBECDBFDF91CF910895109297
S11324B07B05E091D204EE0FFF0BEB5DFE4F208114
S11324C0318140915705475F60E082EF94E00E94BC
S11324D0D91B10922D0108952F923F924F925F9233
S11324E06F927F928F929F92AF92BF92CF92DF9220
S11324F0EF92FF920F931F93CF93DF9300D000D0FE
S11325001F92CDB7DEB781E080937B051091D00494
S1132510812F90E09C01220F331F122F180F60911E
S113252016017091170180911801909119010E9470
S113253034243B0177231CF42FEF621A720A75943A
S1132540679483E0680E711CE091AF038AEF8E0FED
S1132550853030F510927B05A091D604AA0FBB0BF1
S11325608091E0049091E104A80FB91F0E2E000C95
S1132570FF0BEF52FB4F20818D919C911197821B91
S1132580910927FD93958D939C93E091AF030E2EB3
S1132590000CFF0BEF52FB4F1082E1E0ED8301C012
S11325A01D820F2EFBE1AF2EF1E0BF2EF02D812C0A
S11325B0912CC12CD12C0F2EF1ED4F2EF4E05F2E77
S11325C0F02D0F2EFEEF3F2EF02D310E20915705EA
S11325D02C9DC0012D9D900D11247C01F9E0EF0E7E
S11325E0F11CF2018581082E000C990B8C159D05B8
S11325F009F06CC061E082EF94E00E94EB1C2E2C89
S1132600260C25EC31E0422D60E082EF94E00E943C
S1132610D91BFD81FF2389F161E082EF94E00E94E0
S1132620EB1C009157050F5FF5016081718182EF0A
S113263094E00E94411C90915705422D491B4F5F25
S11326406894EE24E1F8282F632D82EF94E00E9431
S1132650F31460E082EF94E00E94EB1CF50120810A
S11326603181422D612F82EF94E00E94D91B61E0F9
S113267082EF94E00E94EB1C09C0F50120813181B6
S1132680422D612F82EF94E00E94D91BE091E00477
S1132690F091E104E80DF91D4AE0BE016F5F7F4F40
S11326A0808191810E941826F5016081718182EFF9
S11326B094E00E94411C682F610F9E012F5F3F4FE1
S11326C0422D82EF94E00E94D91B2AC00E2D060DE4
S11326D0F50120813181402F612F82EF94E00E9427
S11326E0D91BE091E004F091E104E80DF91D4AE002
S11326F0BE016F5F7F4F808191810E941826F50192
S11327006081718182EF94E00E94411C612F680F07
S11327109E012F5F3F4F402F82EF94E00E94D91B10
S1132720FFEFCF1ADF0A22E0820E911C82E0A80E8E
S1132730B11CE5E0CE16D10409F048CF81E08093C6
S11327402D010F900F900F900F900F90DF91CF916C
S11327501F910F91FF90EF90DF90CF90BF90AF90BB
S11327609F908F907F906F905F904F903F902F90AD
S113277008958091AF038230E9F02CF4882341F06E
S1132780813049F026C08330D1F08430E9F021C093
S11327900E941C1008950E948C1080911A018823B5
S11327A019F0813021F008950E94720D08950E945D
S11327B0E30E08950E948C100E94511108950E9406
S11327C08C100E94171208950E948C100E945712B8
S11327D008958550863028F40E948C100E946C1253
S11327E008950E947D1008950E94320D0E942B0CC2
S11327F080912D01811104C08091B003882389F058
S113280081E080932D0182EF94E00E9458160E948B
S1132810B91382EF94E00E946B168111F8CF1092E5
S1132820B00308951092B90088E48093B800089525
S1132830CF93DF93ECEBF0E044EAA9EBB0E0CBEB11
S1132840D0E054E864E9408320E030E090819923AB
S113285034F02F5F3F4F211591E03907B9F79C9170
S1132860987F983011F0903171F78883508320E07D
S113287030E09081992334F02F5F3F4F211591E090
S11328803907B9F79C91987F903211F0983569F423
S1132890608320E030E0908194FFD5CF2F5F3F4FDD
S11328A0211591E03907B9F7CECFDF91CF91089583
S11328B084E98093BC0080E090E0ECEBF0E02081C0
S11328C024FF05C00196811521E09207C1F7089500
S11328D08093BB0084E88093BC008FEF90E0A0E07D
S11328E0B0E0ECEBF0E0208122232CF00197A10969
S11328F0B109C8F704C0892B8A2B8B2B41F0909126
S1132900B900987F81E0983219F480E0089581E05D
S11329100895DF92EF92FF920F931F93CF93DF936B
S11329207C01162FC42FD22ED02F042F0D0F262F4B
S11329302D0D0E940C1D882361F0DD2351F000E071
S11329402D2D4C2F612FC7010E945B1CCF5FD150EE
S1132950B1F7DF91CF911F910F91FF90EF90DF902E
S11329600895CF92DF92EF92FF920F931F93CF932C
S1132970DF937C01D62FC42FD22E102FC62EC20E69
S1132980042F010F2C2D0E940C1D882319F100E047
S11329902D2D4C2F6D2FC7010E945B1C1230D0F0DF
S11329A01250CF5F112379F001E0212F4C2F6D2FAE
S11329B0C7010E945B1C6FEF6C0D212F4C2FC701C8
S11329C00E945B1CC10F00E02D2D4C2F6D2FC70101
S11329D00E945B1CDF91CF911F910F91FF90EF90AC
S11329E0DF90CF9008957F928F929F92AF92BF9283
S11329F0CF92DF92EF92FF920F931F93CF93DF93C7
S1132A006C01162FF42EB22EC02FA42EA00ED62F9A
S1132A10D20F0A2D2D2F0E940C1D882309F449C0C2
S1132A20812E8E0C9F2C9E0C8E2D8095D80FA80E77
S1132A3002E02E2D492D682DC6010E94921701E057
S1132A402E2D492D6D2FC6010E94921704E02E2DC4
S1132A504A2D682DC6010E94921708E02E2D4A2D9A
S1132A606D2FC6010E9492172B2D2E192E1923307B
S1132A7098F08394DEEFD20F772473947E0C072DA5
S1132A802D2F4F2D682DC6010E9489142D2F4A2DFC
S1132A90682DC6010E948914CE19CE19C33048F09E
S1132AA00EEF0C0F41E0490D2B2D612FC6010E9442
S1132AB08914DF91CF911F910F91FF90EF90DF90D8
S1132AC0CF90BF90AF909F908F907F9008958F92FA
S1132AD09F92AF92BF92CF92DF92EF92FF920F93A9
S1132AE01F93CF93DF93EC01162FF42EC22EB02E3A
S1132AF0A42EA00ED62ED20E0A2D2D2D0E940C1D12
S1132B00882309F452C0812E8E0C9F2C9E0C8E2D8E
S1132B108095D80EA80E02E02E2D492D682DCE01E9
S1132B200E94401701E02E2D492D6D2DCE010E94EB
S1132B30401704E02E2D4A2D682DCE010E94401727
S1132B4008E02E2D4A2D6D2DCE010E9440172C2D0C
S1132B502E192E190B2D0E190E192330A0F0839463
S1132B600F2EFEEFEF2EF02DE20E2E2D4F2D682DA1
S1132B70CE010E94CA1C4FEF4B0D4F0D2E2D682D18
S1132B80CE010E94CA1C033080F093940250202F7F
S1132B90492D612FCE010E94D01C6FEF6C0D610F87
S1132BA0202F492DCE010E94D01CDF91CF911F917F
S1132BB00F91FF90EF90DF90CF90BF90AF909F90D8
S1132BC08F900895AF92BF92CF92DF92EF92FF92CF
S1132BD00F931F93CF93DF937C01DC019496BC90F9
S1132BE094979596DC919597ED91FC91A188CD2FC2
S1132BF0C12CD12CD701ED91FC911197208992968B
S1132C000D911C919397422F50E0440F551F440F90
S1132C10551F440F551F4C9DC0014D9D900D5C9D4B
S1132C20900D1124080F191F4C2F60E0C7010E945A
S1132C306520CF5F8C2F8D1B8B1528F4BFEFCB1A2B
S1132C40DB0ACA15B8F2DF91CF911F910F91FF9063
S1132C50EF90DF90CF90BF90AF900895FC01A081DA
S1132C60B18150969C9144A1949FA0011124440FDA
S1132C70551F440F551F440F551F60E070E082A19B
S1132C8093A10E94F2250895CF93DF93EC016DA3E5
S1132C90E8A1F9A10190F081E02D0995E8A1F9A13D
S1132CA00280F381E02DCE010995DF91CF91089543
S1132CB0CF93DF93EC01FC01EC59FF4F8081882313
S1132CC019F0CE010E942E1660E0CE010E94441637
S1132CD0DF91CF9108951F93CF93DF93EC010E946E
S1132CE0E2151DA18CA1180FE881F98181891817BB
S1132CF028F0CE010E94A92080E00EC0FE01EC590C
S1132D00FF4F8081882319F0CE010E942E16612F77
S1132D10CE010E94441681E0DF91CF911F91089566
S1132D20CF92DF92EF920F931F93CF93DF936C01B7
S1132D30D62F142FC22FE0FE0DC0402F411B622F4F
S1132D406D0F0E94D61C402F4D1B612F6C0FC601C6
S1132D500E94D61CE1FE0EC0402F411B6C2F6D1B40
S1132D60C6010E94D61C402F4D1B6C2F611BC6014F
S1132D700E94D61CE3FE0EC0402F410F6C2F6D0F36
S1132D80C6010E94D61C402F4D0F612F6C0FC60147
S1132D900E94D61CE2FE0EC0402F410F6C2F6D1B0B
S1132DA0C6010E94D61C402F4D0F6C2F611BC6011B
S1132DB00E94D61CDF91CF911F910F91EF90DF906D
S1132DC0CF900895CF92DF92EF920F931F93CF93FA
S1132DD0DF936C01C62F142FD22FE0FE11C021E027
S1132DE0240F402F411B6D2F6C0F0E94D01C21E03B
S1132DF02C0F402F4C1B612F6D0FC6010E94D01C5D
S1132E00E1FE12C021E0210F402F411B6D2F6C1BEE
S1132E10C6010E94D01C21E02C0F402F4C1B6D2FAB
S1132E20611BC6010E94D01CE3FE10C021E0210FEB
S1132E30402F6D2F6C0FC6010E94D01C21E02C0F77
S1132E40402F612F6D0FC6010E94D01CE2FE10C0FE
S1132E5021E0210F6D2F6C1B402FC6010E94D01C56
S1132E6021E02C0F6D2F611B402FC6010E94D01C46
S1132E70DF91CF911F910F91EF90DF90CF90089544
S1132E808F929F92AF92BF92CF92DF92EF92FF9276
S1132E900F931F93CF93DF935C01C62E942EC22F02
S1132EA0802E01E0020F040F21E0260F2C0F4C1B93
S1132EB06C1B0E940C1D882341F1D1E0DC1BDC2E2D
S1132EC0D194DD0CE82C092D2C2D4C2F60E0C5018C
S1132ED00E949016CC23C9F00F2EF3E0FF2EF02DA4
S1132EE010E0DD2324F0C150D394D394DD0D1F5F93
S1132EF0DF0DE82C092D2C2D4C2F612FC5010E94CC
S1132F009016F394F3941C1760F3DF91CF911F9103
S1132F100F91FF90EF90DF90CF90BF90AF909F9074
S1132F208F9008958F929F92AF92BF92CF92DF922B
S1132F30EF92FF920F931F93CF93DF935C01C62E02
S1132F40942EC22F802E01E0020F040F21E0260FE1
S1132F502C0F4C1B6C1B0E940C1D882341F1D1E0EB
S1132F60DC1BDC2ED194DD0CE82C092D2C2D4C2FF0
S1132F7060E0C5010E94E216CC23C9F00F2EF3E0F5
S1132F80FF2EF02D10E0DD2324F0C150D394D39410
S1132F90DD0D1F5FDF0DE82C092D2C2D4C2F612F2B
S1132FA0C5010E94E216F394F3941C1760F3DF91B9
S1132FB0CF911F910F91FF90EF90DF90CF90BF9032
S1132FC0AF909F908F90089522E0FC01208381EBC5
S1132FD093E00895CF92DF92EF92FF920F931F93A5
S1132FE0CF93DF931F92CDB7DEB77C016B018901CC
S1132FF09A014AEA5FE16DE371E20E948221CE0107
S113300001960E94E417860127E23DE14981BC0153
S1133010C7010E941E1E0F90DF91CF911F910F9147
S1133020FF90EF90DF90CF900895FC01E60FF11D23
S1133030849190E0982F88273196E4918E0F911D0A
S1133040089580E008950F931F93CF93DF93EC01CD
S11330508B01FB01849188833196E491E983FB0120
S11330603296E491EA83FB013396E491EB83FB010E
S11330703496E491EC83FB013596E491ED83FB01F6
S11330803696E491EE83FB013796E491EF83FB01DE
S11330903896E491E887FB013996E491E987FB01CE
S11330A03A96E491EA87FB013B96E491EB87FB01B6
S11330B03C96E491EC87FB013D96E491ED87FB019E
S11330C03E96E491EE87FB013F96E491EF87FB0186
S11330D07096E491E88B61E1C8010E9415189A8BFF
S11330E0898B63E1C8010E9415189C8B8B8B65E169
S11330F0C8010E9415189E8B8D8BDF91CF911F9173
S11331000F910895DC0118969C911897ED91FC910C
S11331101197249130E0092E02C0359527950A9421
S1133120E2F7892F860F883010F4E22F0FC0319612
S11331301196FC93EE93E491F0E038E0391B02C061
S1133140EE0FFF1F3A95E2F7E22B885018968C9306
S113315081E090E002C0880F991F6A95E2F78150E0
S11331608E2308950F931F93CF93DF93EC018C016B
S1133170075C1F4F7AAF69AFFC01EF5BFF4F108212
S113318039966081C8010E9482188FAFFE01E55B09
S1133190FF4F6081C8010E948218FE01E05CFF4F6E
S11331A08083B3968081B0978083CC5BDF4F91E0BE
S11331B0811190E09883DF91CF911F910F91089531
S11331C0CF93C62F0E948218C15021E030E002C084
S11331D0220F331FCA95E2F7821BCF910895213045
S11331E031F018F0223029F006C0840F0895860FBC
S11331F00895841B0895861B0895213031F018F03A
S1133200223029F006C0860F0895841B0895861B7A
S11332100895840F08952F923F924F925F926F9278
S11332207F928F929F92AF92BF92CF92DF92EF9252
S1133230FF920F931F93CF93DF9300D000D000D061
S1133240CDB7DEB77C016E83342EFC0175AC16ADB0
S11332506C01F5E4CF0ED11C5C0182E4A80EB11C14
S1133260470193E6890E911CF701EC5BFF4FFC8349
S1133270EB83C7018D5B9F4F9A838983F701F7AD79
S1133280F719FD835E80F51508F45F2EF70164AC31
S1133290F6010081212E202F412F672DF70183ADE8
S11332A00E94FD18482E202F412F672D862D0E9445
S11332B0EF18332061F0E981FA819081F401908361
S11332C0252D482F642DC7010E945B1C0FC0F501FA
S11332D0908191110BC0EB81FC819081F40190836A
S11332E0252D482F642DC7010E945B1CFE818D8112
S11332F0F81728F0F81BFE831F5F712CBFCF8E8157
S1133300870DF70185AF26AE26960FB6F894DEBF7B
S11333100FBECDBFDF91CF911F910F91FF90EF9022
S1133320DF90CF90BF90AF909F908F907F906F90E1
S11333305F904F903F902F9008958F929F92AF92FD
S1133340BF92CF92DF92EF92FF920F931F93CF938E
S1133350DF93EC017C0189E3E80EF11CCE010E94AD
S1133360B218FE01E05CFF4F90803C966081C7017B
S11333700E94E018B82EFE01E35BFF4F6081C70195
S11333800E94E018182FFE01E25BFF4F6081C70125
S11333900E94E018882EDFAC1D140CF079C0FE01E9
S11333A0EB5BFF4F0081190D1195202F412F6B2DE1
S11333B08BAD0E94FD18C82E8BAF202F412F6B2D93
S11333C08CAD0E94EF188CAF013059F028F0023018
S11333D091F00330D9F023C02D2D2C0D092D080FA9
S11333E020C09C2D991921E02C0D0D2D080FCC2403
S11333F0C394C90E16C091E0392F3D1921E02C0D5C
S1133400991901E0080F890FC30E0BC0292D2C0D4B
S1133410982F9D1901E0080F81E0890F02C0082F41
S11334202C2D482F6C2DCE010E940C1D882381F178
S11334301DAE1EAE5E01E8E4AE0EB11C6E01F9E4F1
S1133440CF0ED11CF5016081C7010E948218082F9C
S1133450F6016081C7010E948218182F40E0602F96
S1133460CE010E940B1941E0612FCE010E940B197D
S113347061E0C7010E9482188111F0CF8EAD8915D9
S11334800CF3FE01ED59FF4FCD5BDF4F8881808344
S1133490882DDF91CF911F910F91FF90EF90DF90D6
S11334A0CF90BF90AF909F908F900895EF92FF922E
S11334B00F931F93CF93DF93FC01C5A9D6A96796F9
S11334C06F3F710511F008F036C06136710538F0B0
S11334D0E75AFF4F80819181C80FD91F0AC0613418
S11334E0710538F0FC01E95AFF4F80819181C80FC2
S11334F0D91FCE010196FC012491222309F45AC05C
S1133500FE01249130E06217730751F406C0FE01F6
S1133510249130E06217730719F4CE01029652C069
S1133520FC018491C80FD11DCE010196FC012491A8
S11335302111EDCF42C08B01FC01E55AFF4F808180
S11335409181C80FD91F7E0160E0C7010E94151840
S1133550C80FD91F62E0C7010E941518F4E0EF0EEE
S1133560F11C8017910780F3FE01849190E0982F5D
S113357088273196E4918E2B009711F108171907CB
S113358039F403C00817190719F4CE0103961AC0B9
S1133590FE013296E491CE0FD11DFE01849190E09C
S11335A0982F88273196E4918E2B009759F780E065
S11335B090E008C080E090E005C080E090E002C0A8
S11335C080E090E0DF91CF911F910F91FF90EF90F9
S11335D008950F931F93CF93DF93EC010E94561A23
S11335E00097F1F0BC01CE010E94B2188E01075C75
S11335F01F4FFE01E45BFF4F6081C8010E94E01889
S1133600FE01EF59FF4F808374976081C8010E94C7
S1133610E018C25BDF4F6881C8010E94E01801C056
S113362080E0DF91CF911F910F910895EF92FF9267
S11336300F931F93CF93DF93EC01E62EF72E1FAE6B
S11336400E94581E0E2D1F2DE12CF12CF8016191C2
S11336508F01EA81FB81CE0109958F3FFFEF9F0720
S113366059F08E3F2FEF920789F3BC01CE010E94DF
S1133670E91AE82EF80EEACF8FAD882331F0CF593E
S1133680DF4F9881890FF80EFE188F2DDF91CF91AF
S11336901F910F91FF90EF900895EF92FF920F9377
S11336A01F93CF93DF93EC01062F142F7901FC01B4
S11336B0EB5BFF4F8081813061F028F0823079F03C
S11336C0833099F017C0EFA9F8ADCE010995180F12
S11336D011C0EFA9F8ADCE010995081B0BC0EFA9E5
S11336E0F8ADCE010995181B05C0EFA9F8ADCE01C0
S11336F00995080F0BAF1CAFB701CE010E94561AF3
S1133700009729F0BC01CE010E949D1901C080E000
S1133710DF91CF911F910F91FF90EF900895BF9289
S1133720CF92DF92EF92FF920F931F93CF93DF9389
S1133730EC01B62EC42EE22EF32E0E94581E0E2D3E
S11337401F2DD12C7E0125E4E20EF11CF8016191BC
S11337508F01EA81FB81CE0109958F3FFFEF9F071F
S1133760E9F08E3F2FEF920789F39C014C2D6B2DCE
S1133770CE010E944D1BF7019081913041F028F059
S1133780923039F0933039F007C0B80E05C0C80E36
S113379003C0B81A01C0C81AD80ED8CF8D2DDF9136
S11337A0CF911F910F91FF90EF90DF90CF90BF903A
S11337B00895EBE4FEE1DC011396FC93EE9312977B
S11337C00E948F1B0895FC0125A936A9232BE9F13A
S11337D0ED5AFF4F20813C9620833B9740813C96D5
S11337E0408332973081332381F1313079F4399732
S11337F03081231714F43A963083FC01EA5AFF4FC0
S11338002081241714F53A9620830895FC01E05B87
S1133810FF4FE081DC01AE5ABF4F5C91022E000CD9
S1133820330B652F052E000C770B6E0F711DE7FD12
S11338307A95261737071CF41D96E50FEC93541759
S113384024F4FC01E05AFF4F5083089521E238E14B
S1133850FC0130AF27AB0895CF93DF93FC0125A97A
S113386036A92617370751F0EC0176AB65AB8A5BB6
S11338709F4F0E942318CE010E94E31BDF91CF913A
S113388008952BE43EE1FC01338322830E94161B3E
S113389008958B5B9F4FFC01608308950F93DC01B7
S11338A098963C919897431B5E96ED91FC915F9797
S11338B009950F9108950F93FC01E35AFF4F30814E
S11338C0332309F465C0222309F462C0223058F07E
S11338D0023019F46F5F621B0AC0033021F44F5F9A
S11338E0421B51E02DC0502F517000FD29C0DC0156
S11338F09F963C919F97431708F44AC0D0963C91F9
S1133900D097431708F044C09E963C919E979D968D
S11339105C91260F261730F4631718F42FEF230F4A
S113392003C0652F6317A0F5521790F5651708F4C7
S1133930652F231708F4322F232F261B50E01EC0B7
S1133940FC0135A5631720F136A5631708F530A9E6
S113395077A5240F241730F4431718F42FEF230FFF
S113396003C0472F4317A0F4721790F4471708F4C5
S1133970472F231708F4322F232F241BDC019096A2
S1133980ED91FC9191970480F581E02D052F099527
S11339900F9108950F9300E00E945B1C0F9108950E
S11339A00F9301E00E945B1C0F9108950F93FC019B
S11339B087A5481770F080A9481758F485A568179B
S11339C040F086A5681728F4CF0100E021E00E94AA
S11339D05B1C0F910895633028F4FC01ED59FF4FEF
S11339E060830895FC01ED59FF4F21E02083089581
S11339F0461738F4821760F081E0241760F080E005
S1133A000895821738F481E0241728F080E008959F
S1133A1081E0089580E00895FF920F931F93CF9360
S1133A20DF93EC01162FF22E202F68A98FA50E9498
S1133A30F81C882331F02F2D412F6EA58DA50E94EF
S1133A40F81CDF91CF911F910F91FF900895EF9291
S1133A50FF920F93CF93DF937C01342F377081E073
S1133A6090E0032E02C0880F991F0A94E2F7C82F32
S1133A70F701ED59FF4F5081523020F4513021F0BD
S1133A80782F04C070E002C0782FC0E050E0487F77
S1133A90D70192968D919C919397ED91FC91D08949
S1133AA0D49FF001D59FF00D1124E60FF11DE80F0E
S1133AB0F91F011107C08081872B8C278193215026
S1133AC0D1F722C0A7014D595F4F9081972B9C27B6
S1133AD090833F5F3770215031110EC0D701969605
S1133AE08C91E80FF11DDA018C91823040F4813021
S1133AF041F0C1E071E006C0770FCC0F03C0C1E014
S1133B0001C071E02111E1CFDF91CF910F91FF90BE
S1133B10EF900895FC01A081B18184A1982F990FA1
S1133B20990F990F97A350969C915097903208F053
S1133B309FE1990F990F990F96A345A1942F990F7F
S1133B40990F990F90A751965C915197242F30E0CB
S1133B50280F311D652F70E06217730714F4852F49
S1133B60841B91A7880F880F880F890F82A780EF85
S1133B7083A754968D919C915597813F910508F4A4
S1133B8083A756968C9184A708950E948A1D089550
S1133B900F93CF93DF93EC010CA92AA94BA969A930
S1133BA00E940C1D811104C0C35ADF4F188219C032
S1133BB081E0FE01E35AFF4F808389A99DA59817F0
S1133BC008F48DA78AA99EA5891708F48EA78BA946
S1133BD09FA5981708F48FA78CA998A9891708F4AA
S1133BE088ABDF91CF910F910895FC0115A683A5B1
S1133BF086A781A587A782A580ABCF010E94C81D97
S1133C0008950F930E944E1C0F910895DC01D196E4
S1133C101C92D197D3961C92D3978FEFD2968C9304
S1133C20D297D4968C93D4979096ED91FC919197DA
S1133C300280F381E02DCD01099508950F931F9320
S1133C40CF93DF93EC011EAA1DAA3F8F2E8F7BA377
S1133C506AA34CA31DA2FC01EE5BFF4F1082B09639
S1133C601082319681E080833196808319A308A362
S1133C70D801ED91FC91CE010995CE010E94061E5A
S1133C80CE010E94261CCB5BDF4F1882DF91CF91BF
S1133C901F910F910895662329F06A3031F0862F21
S1133CA090E008958FEF9FEF08958FEF9FEF0895B1
S1133CB0FC01108E08950F931F93CF93DF93683107
S1133CC019F128F46431E1F0673139F027C0693122
S1133CD009F1603219F581E024C08FEF840F442389
S1133CE0F9F0E901082F10E00F5F1F4F020F131FB7
S1133CF089910E9468140C171D07D1F781E011C047
S1133D000E94121481E00DC0FC0186890E941814DF
S1133D1081E007C00E94581481E003C080E001C024
S1133D2081E0DF91CF911F910F9108956A3251F094
S1133D3018F4693259F033C06B3261F06C3279F5A2
S1133D4081E00895411119C081E0089541111DC019
S1133D5081E00895242F30E0A4E6B0E00E94E3253A
S1133D6020EA3FE040E050E00E94C1252332C8F43D
S1133D70822F0197F1F781E0089583E08A95F1F7A6
S1133D8000004150D1F781E0089589EF90E0019758
S1133D90F1F700C000004150C1F781E0089580E0D0
S1133DA0089581E008959A01DC011896ED91FC9143
S1133DB01997462F67E109950895CF93DF931F92D2
S1133DC0CDB7DEB76983AE014F5F5F4F61E00E94FC
S1133DD0D31E0F90DF91CF910895DC011896ED91D9
S1133DE0FC91199720E030E040E068E109950895DE
S1133DF0DC011896ED91FC91199720E030E040E049
S1133E0069E109950895EF92FF921F93CF93DF9391
S1133E10EC01162F7A010E94ED1E60E4CE010E948F
S1133E20DD1EE885F9859701412F67E1CE010995EB
S1133E30CE010E94F81EDF91CF911F91FF90EF9069
S1133E400895462FDC011696ED91FC91179720E01A
S1133E5030E065E109950895462FDC011696ED9151
S1133E60FC91179720E030E066E1099508959A01E6
S1133E70DC011696ED91FC911797462F67E10995A1
S1133E800895DC011696ED91FC91179720E030E03F
S1133E9040E068E109950895DC011696ED91FC91E6
S1133EA0179720E030E040E069E109950895EF922A
S1133EB0FF920F931F93CF93DF931F92CDB7DEB77B
S1133EC07C018B01D8016C916731C1F018F4653124
S1133ED030F438C06A31F8F06E3F51F133C0F80164
S1133EE041814983D7011696ED91FC91179720E003
S1133EF030E0C70109950E5F1F4FE4CFF8018181BF
S1133F008983AE014F5F5F4F61E0C7010E94371F95
S1133F100E5F1F4FD7CF0F5F1F4FD7011696ED913E
S1133F20FC91179720E030E040E0C7010995CACF23
S1133F30F8014181498369E2C7010E9460210E5F53
S1133F401F4FC0CF0F90DF91CF911F910F91FF9022
S1133F50EF900895EF92FF920F931F93CF937C01FC
S1133F60C42F8901663129F130F4643109F442C067
S1133F70653149F062C0683109F450C0F8F0693124
S1133F8009F450C05AC08091B104882319F0C701C4
S1133F900E94F81EC7010E94ED1E60E0C7010E9446
S1133FA0DD1E6C2FC7010E94DD1E81E08093B104E9
S1133FB045C0642F0E94DD1E81E040C08091B104A1
S1133FC0882319F0C7010E94F81EC93150F0A801D6
S1133FD068E1C7010E94031FC851085E1F4FC93121
S1133FE0B0F7A8016C2FC7010E94031F1092B104FF
S1133FF081E024C0DC0156968C9156978F3F19F4CA
S113400088E756968C93D7011896ED91FC911997F1
S113401098014C2F64E1C701099510C01092B104B6
S113402081E00CC08091B104882319F0C7010E947B
S1134030F81E1092B10481E001C080E0CF911F917D
S11340400F91FF90EF900895FC0171836083FB0151
S11340502289FC01248B0895CF93DF93EC01EA8538
S1134060FB8520E030E040E068E20995EE81FF81C5
S113407020E030E040E064E1CE01099541E06BE4EA
S1134080CE010E946021E881F981448169E2CE0178
S11340900E94602140E06BE4CE010E946021E8812F
S11340A0F981448169E2CE010E94602141E06BE420
S11340B0CE010E946021E881F981458169E2CE0147
S11340C00E946021DF91CF9108950F931F93CF93A6
S11340D0DF9300D000D01F92CDB7DEB76C834D8341
S11340E02B831A830983DC011496ED91FC911597B7
S11340F09E012F5F3F4F41E06FE009950F900F90B5
S11341000F900F900F90DF91CF911F910F91089511
S1134110DC011496ED91FC91159720E030E040E02D
S113412069E009950895DC011496ED91FC911597C9
S113413020E030E040E06AE009950895462FDC0174
S11341401496ED91FC91159720E030E06BE0099511
S11341500895DC011496ED91FC91159720E030E070
S113416040E060E109950895EF92FF920F931F9349
S1134170CF93DF938C01C42F79016D30B9F018F41B
S11341806B3031F072C06E3069F16F30D1F16DC0B7
S1134190411106C064E972E00E94571F81E066C0C5
S11341A06FE872E00E94571F81E060C041110DC0AA
S11341B068E872E00E94571FD801ED91FC911197B5
S11341C0828954968C9381E051C061E872E00E9428
S11341D0571FD801ED91FC911197838954968C93C4
S11341E081E044C00E94411F61E8C8010E94211F70
S11341F06C2FC8010E942C1FC8010E944C1F81E033
S113420035C00E94411FF701D381DD0FDD0FDD0FA3
S1134210D80154968C91D80F60E4C8010E94211FE4
S11342206D2F62956F706061C8010E94211F6D2F10
S11342306F70C8010E942C1FF7016481606BC80174
S11342400E942C1FD7014D915C91119712966C918D
S1134250660F660F660FC8010E94371FC15091F7A1
S1134260C8010E944C1F81E001C080E0DF91CF9122
S11342701F910F91FF90EF9008950F931F93CF9389
S11342808C01C62F0E94B420811115C0C93061F081
S1134290CA3091F4C8010E942C2069E972E0C80177
S11342A00E94571F81E008C069E672E0C8010E94BD
S11342B0242081E001C081E0CF911F910F910895E6
S11342C0DC011A96ED91FC911B9720E030E00995F2
S11342D0089580E00895FC011182108289E691E23C
S11342E09583848397838683918780879387828746
S11342F0158A108E14861586168617868FEF868B80
S1134300828F0895AF92BF92CF92DF92EF92FF9285
S11343100F931F93CF93DF93EC015B016A01790143
S11343200E946B21BD82AC82DF82CE82F986E88650
S11343301B870A87CE010E948820DF91CF911F91AD
S11343400F91FF90EF90DF90CF90BF90AF900895C2
S1134350E1ECF0E0208128612083E2ECF0E02081B0
S113436027602083DC01CB01880F991FAA1FBB1F84
S1134370880F991FAA1FBB1F9C01AD01220F331F79
S1134380441F551F220F331F441F551F60E074E262
S113439084EF90E00E94C1258FEF820F8093C400C8
S11343A0DA01C9010197A109B109892F9A2FAB2F0D
S11343B0BB278093C500089590937D0580937C0569
S11343C0E8E6F0E0808184608083EDE6F0E08081BF
S11343D08160808360E875E280E090E00E94A8211B
S11343E00895E0ECF0E080818823ECF78091C6002A
S11343F008958093C600E0ECF0E0808185FFFDCF56
S11344000895EF92FF920F931F93CF937C01C0E026
S113441001C0CF5F87010C0F111D0E94F121F8012B
S113442080838A30B1F71082CF911F910F91FF9052
S1134430EF900895CF93DF93EC018881882331F0C6
S113444021960E94F92189918111FBCFDF91CF91AF
S11344500895EF92FF920F931F93CF93DF93CDB7FD
S1134460DEB72A970FB6F894DEBF0FBECDBF8C011E
S113447063ED72E00E940426892B29F48EEC92E00D
S11344800E941A22D1C06BED72E0C8010E9404267A
S1134490892B29F486ED92E00E941A22C5C06FEDA3
S11344A072E0C8010E940426892B29F487EE92E069
S11344B00E941A22B9C068EF72E0C8010E94042663
S11344C0892B29F481E093E00E941A22ADC063E1B4
S11344D073E0C8010E940426892B29F488E193E043
S11344E00E941A22A1C066E273E0C8010E94042659
S11344F0892B29F48CE293E00E941A2295C06BE385
S113450073E0C8010E940426892BF9F4E0917C052C
S1134510F0917D058081918101969183808382E46D
S113452093E00E941A22E0917C05F0917D054AE017
S113453050E0BE016F5F7F4F808191810E940D2604
S1134540CE0101960E941A226FC06DE473E0C80187
S11345500E940426892BF9F4E0917C05F0917D05F5
S11345608081918101979183808386E593E00E9405
S11345701A22E0917C05F0917D054AE050E0BE01ED
S11345806F5F7F4F808191810E940D26CE0101963D
S11345900E941A2249C063E673E0C8010E940426FF
S11345A0892B59F489E693E00E941A22E0917C0554
S11345B0F0917D051182108237C060E773E0C80175
S11345C00E940426892B69F486E793E00E941A224C
S11345D0E0917C05F0917D0581E090E091838083FA
S11345E023C086E0E6E3F1E09E012F5F3F4F7901AF
S11345F0D90101900D928A95E1F7FE01379684E086
S1134600DF011D928A95E9F7B801C9010E94F925D5
S1134610F70101900020E9F731978AE090E0918357
S11346208083C7010E941A222A960FB6F894DEBF2F
S11346300FBECDBFDF91CF911F910F91FF90EF90EF
S113464008955058BB27AA270E9439230C940925A2
S11346500E94FB2438F00E94022520F039F49F3F89
S113466019F426F40C94D1240EF4E095E7FB0C9491
S1134670CB24E92F0E941A2558F3BA17620773074F
S11346808407950720F079F4A6F50C943C250EF4E4
S1134690E0950B2EBA2FA02D0B01B90190010C014E
S11346A0CA01A0011124FF27591B99F0593F50F466
S11346B0503E68F11A16F040A22F232F342F4427BE
S11346C0585FF3CF469537952795A795F0405395B6
S11346D0C9F77EF41F16BA0B620B730B840BBAF086
S11346E09150A1F0FF0FBB1F661F771F881FC2F7F1
S11346F00EC0BA0F621F731F841F48F48795779505
S11347006795B795F7959E3F08F0B0CF9395880FBE
S113471008F09927EE0F979587950895DF93DD2785
S1134720B92FBF7740E85FE31616170648075B0703
S113473018F4D92F0E9448259F938F937F936F93EA
S11347400E94BD25E8E6F0E00E94D4240E940925D9
S11347502F913F914F915F910E946325DD2351F08A
S11347609058A2EA2AED3FE049EC5FE3D0785D2758
S11347700E943923DF910C9409250E94A72408F490
S113478081E008950E94D6230C9409250E940225F5
S113479058F00E94FB2440F029F45F3F29F00C9468
S11347A0CB2451110C943D250C94D1240E941A253C
S11347B068F39923B1F3552391F3951B550BBB274C
S11347C0AA2762177307840738F09F5F5F4F220F91
S11347D0331F441FAA1FA9F335D00E2E3AF0E0E888
S11347E032D091505040E695001CCAF72BD0FE2FD2
S11347F029D0660F771F881FBB1F26173707480766
S1134800AB07B0E809F0BB0B802DBF01FF2793581D
S11348105F4F3AF09E3F510578F00C94CB240C94F2
S11348203D255F3FE4F3983ED4F3869577956795ED
S1134830B795F7959F5FC9F7880F911D9695879552
S113484097F90895E1E0660F771F881FBB1F621771
S113485073078407BA0720F0621B730B840BBA0B2F
S1134860EE1F88F7E09508950E943B246894B111E7
S11348700C943D2508950E94222588F09F5798F0B6
S1134880B92F9927B751B0F0E1F0660F771F881F51
S1134890991F1AF0BA95C9F714C0B13091F00E946B
S11348A03C25B1E008950C943C25672F782F882788
S11348B0B85F39F0B93FCCF3869577956795B39592
S11348C0D9F73EF490958095709561957F4F8F4F01
S11348D09F4F0895E89409C097FB3EF49095809506
S11348E0709561957F4F8F4F9F4F9923A9F0F92FB2
S11348F096E9BB279395F695879577956795B79530
S1134900F111F8CFFAF4BB0F11F460FF1BC06F5F15
S11349107F4F8F4F9F4F16C0882311F096E911C027
S1134920772321F09EE8872F762F05C0662371F048
S113493096E8862F70E060E02AF09A95660F771F5C
S1134940881FDAF7880F9695879597F90895990F38
S11349500008550FAA0BE0E8FEEF16161706E80745
S1134960F907C0F012161306E407F50798F0621B66
S1134970730B840B950B39F40A2661F0232B242B3B
S1134980252B21F408950A2609F4A140A6958FEF5A
S1134990811D811D089597F99F6780E870E060E0AC
S11349A008959FEF80EC0895DF93CF931F930F93A7
S11349B0FF92EF92DF927B018C01689406C0DA2E9D
S11349C0EF010E946325FE01E894A591259135919C
S11349D045915591A6F3EF010E943923FE019701F9
S11349E0A801DA9469F7DF90EF90FF900F911F917F
S11349F0CF91DF91089500240A941616170618061D
S1134A000906089500240A941216130614060506CE
S1134A100895092E0394000C11F4882352F0BB0F5F
S1134A2040F4BF2B11F460FF04C06F5F7F4F8F4FC2
S1134A309F4F089557FD9058440F551F59F05F3FFD
S1134A4071F04795880F97FB991F61F09F3F79F0AC
S1134A5087950895121613061406551FF2CF46952E
S1134A60F1DF08C0161617061806991FF1CF8695B0
S1134A707105610508940895E894BB276627772794
S1134A80CB0197F908950E94A72408F48FEF0895A5
S1134A909B01AC0160E070E080E89FE30C94C223CA
S1134AA00E9463250C9409250E94FB2438F00E947F
S1134AB0022520F0952311F00C94CB240C94D124DE
S1134AC011240C943D250E941A2570F3959FC1F37F
S1134AD0950F50E0551F629FF001729FBB27F00DA8
S1134AE0B11D639FAA27F00DB11DAA1F649F6627FD
S1134AF0B00DA11D661F829F2227B00DA11D621F4C
S1134B00739FB00DA11D621F839FA00D611D221F05
S1134B10749F3327A00D611D231F849F600D211DE9
S1134B20822F762F6A2F11249F5750409AF0F1F06C
S1134B3088234AF0EE0FFF1FBB1F661F771F881FD5
S1134B4091505040A9F79E3F510580F00C94CB241E
S1134B500C943D255F3FE4F3983ED4F38695779516
S1134B606795B795F795E7959F5FC1F7FE2B880F7B
S1134B70911D9695879597F908959B01AC010C9426
S1134B805025A1E21A2EAA1BBB1BFD010DC0AA1FB2
S1134B90BB1FEE1FFF1FA217B307E407F50720F0A2
S1134BA0A21BB30BE40BF50B661F771F881F991F1D
S1134BB01A9469F760957095809590959B01AC0166
S1134BC0BD01CF010895A29FB001B39FC001A39F6F
S1134BD0700D811D1124911DB29F700D811D112432
S1134BE0911D0895DC0101C06D9341505040E0F7E0
S1134BF00895FB01DC010D900020E9F71197019065
S1134C000D920020E1F70895FB01DC018D910190E4
S1134C1080190110D9F3990B08954532510520F4F8
S1134C20423010F00C941826FB011082CB01089539
S1134C30BB274A3031F4992322F4BDE29095819543
S1134C409F4F0C942426BB27FB015527AA27880FC6
S1134C50991FAA1FA41710F0A41B83955051B9F7EC
S1134C60A05DAA3308F0A95DA193009779F7B1116B
S1134C70B1931192CB010C943D26DC01FC01672F0A
S1134C8071917723E1F7329704C07C916D9370831F
S1114C906291AE17BF07C8F30895F894FFCFE2
S1134C9E020002000500070008000A0016000500C5
S1134CAEFFFF0000404000005C4201F601030210C9
S1134CBE021D022A0237023C0242024A02015D012F
S1134CCE71018201930152583A3E20000000000007
S1134CDE5072657373202253656C656374220020D1
S1134CEE746F20636F6E74696E7565210053504541
S1134CFE4349414C205448414E4B5320544F203A83
S1134D0E004272616D202C2057696C6C69616D2CA8
S1134D1E2000416E746F6E69732C20436F726E6542
S1134D2E2C20005961736D696E652C204164696C89
S1134D3E004E6F20636F6E74656E742079657421F6
S1134D4E004D6F64653A2000446972656374696F3F
S1134D5E6E3A3E20002D3E20006B6D2F6800646578
S1134D6E6700636D0053706565643A3E202000440D
S1134D7E697374616E63653A3E200072756E546990
S1134D8E6D653A3E20004D6F64653A3E202020202A
S1134D9E202000536F6D657468696E673A3E20007B
S1134DAE74657374313A3E2020202020007465739C
S1134DBE74323A3E20202020200074657374333AF6
S1134DCE3E2020202020004461746100416E676CF7
S1134DDE6500436F6D706173730053657474696E0F
S1134DEE677300C901CE01D2010202D501B801DFF9
S1134DFE01EB01C51DF51D011E0001140A64643288
S1134E0E3200127A00000428961008000080004038
S1134E1E001815A015C019FF1815A115C819FF18EB
S1134E2E15AE19FF1815AF19FF1815AE15D5168046
S1134E3E15A8163F15D316001540158D16141520FA
S1134E4E160015A115C815DA1612158116CF15D927
S1134E5E16F115DB1640152E15A415A619FF4C4593
S1134E6E44345F4F4E004C4544345F4F4646004633
S1134E7E4F52574152440044726976696E672066F8
S1134E8E6F727761726473004241434B57415244CF
S1134E9E0044726976696E67206261636B77617232
S1134EAE6473004C454654005374656572696E67AD
S1134EBE204C656674005249474854005374656526
S1134ECE72696E67205269676874004D4F44455588
S1134EDE50004D6F64652055703A3E20004D4F448E
S1134EEE45444F574E004D6F646520646F776E3A9C
S1134EFE3E20004D4F444530004D6F646520300018
S1114F0E4D4F444531004D6F64652031000065
S9030000FC
