S0100000526F626F744361722E73726563F8
S11300000C946B070C9488070C9488070C94140BBD
S11300100C9488070C948A070C9488070C9488071E
S11300200C9488070C9488070C9488070C94880710
S11300300C9488070C9488070C9488070C945E0928
S11300400C9488070C9488070C9488070C948807F0
S11300500C9488070C9488070C9488070C948807E0
S11300600C9488070C948807BF000302030403055B
S113007004060A00FE07FE07000142028807C420A6
S11300800500620721073943C7A00422079B524792
S11300906209230E3D424F294906A53228A52401B1
S11300A0240C3D4257B6D4B624D92200250C3D4237
S11300B04FA474ABB4480900260D3D424F96444901
S11300C05649A4480927061953C7002808BB4257B4
S11300D052AA152909BB424756AA94002A0A2D465A
S11300E047965406A52D2B0A2D4657180D52180174
S11300F02C079B3E8F52022D060D4EC7202E089BC7
S11301003E4FB224002F083D4267AD6308300B3DDB
S1130110425796D46C492D02310A3D425726256137
S1130120D320320C3D42CF92859194858300330CC9
S11301303D42C7206699AA250B00340C3D425F2638
S113014025A564D0C204350B3D42C73131855AB26E
S113015000360C3D4297948589494B1600370B3D78
S113016042C720666156CC00380C3D42CF9269C923
S11301709269C902390C3D42CF92498A12669104B0
S11301803A0ABB3E4FB2A4C992003B09BB3E4FB2F0
S1130190A44A093C08BC425FD4D8003D081D4AC7A4
S11301A0A00E023E08BC4247D8D4063F0A3D42CFC7
S11301B09235E65004400C3D42CF92494B624917B8
S11301C000410C3D425796D4B461C8B400420D3D81
S11301D042C71055A264AA448302430A3D42CF9207
S11301E0896DC902440F3D42C71055A2244AA22476
S11301F01A1400450B3D42C7311C92301C04460AB8
S11302003D42C7311C92B008470B3D42CF9289A5AD
S11302102D5900480A3D4247661B86CC164908BB47
S113022042C71275194A0A3D42D716B64491044B87
S11302300D3D42472625252D892A59004C083D426B
S113024047D8E3204D0B3D4247A62D4BA2D9024E81
S11302500C3D4247A64D4A226D5A004F0A3D42CFFB
S113026092794B1600500C3D42C79064DAA0844545
S113027000510A453ECF9279A9AC01520D3D42C7C7
S11302809064DAA0942A5900530B3D42CF92A9AB53
S1130290962C0054093D42C720853D0155093D4235
S11302A047E65BB200560D3D4247664B4A499464AB
S11302B01100570A3D4247E69228C92D580B3D428A
S11302C047A625B54A4D0B590A3D4247A625B5B068
S11302D0095A0A3D42C720661D07015B08BB42C795
S11302E010751A5C083D424798760C5D08BB42C7FE
S11302F0D469085E081D525796D4025F060D3EC7A6
S1130300206006125B4714610A2D42CF9A0C5A32C0
S113031004620B3D424758316993A200630A2D429F
S1130320CF928959B200640A3D4267C5B4498A1222
S1130330650A2D42CF920D43BA00660B3D42975495
S1130340C98628AC01670C3D3ACFA069C9106AC9B7
S113035002680A3D4247583169B6006908BB424FFA
S113036028B50C6A0BCC3A5FACD5242951006B0B31
S11303703D4247589392A992056C08BB4287D4CB5F
S1130380006D0B2D4287D2A2244AA2056E092D428C
S11303904762D26C016F092D42CF92D99205700C3D
S11303A03D3A4762D22645094300710A3D3A8F69B6
S11303B09314252C72092D424762128B0073092D68
S11303C042CF921E1400740C3D424F980D51588A2E
S11303D0140075092D4247E6A42801760B2D4247E7
S11303E0A625A5248B00770A2D42476649942E0042
S11303F0780A2D424796D42AB500790C3D3A4766CF
S11304005294504B16007A092D42C7A0B50D027BB9
S11304100ABC4297122662140A7C063943C7217D1E
S11304200BBC428718854A9848007E091D524FA488
S1130430245202A005006207A1073943473208A2EB
S11304400E3D3E573628511225D9104500A30C3DC8
S1130450429754C9B630521400A40B2D4247964C0F
S113046049B46401A50D453E47A625B56890C2125E
S113047000A6063943C732A70B453ECF124E9DC690
S11304806401A8068B5E4712A90D3D42CF9229C98B
S1130490A4245AB200AA0AB446CF10294A7108AB60
S11304A00C2E4257254AA22CCAA200AC07944AC774
S11304B09005AD068C4EC710AE0C3D42CF920DC9CF
S11304C03469C902AF060D5EC720B0079B524F17AF
S11304D000B10B354257180D52180D02B209AC4E3B
S11304E08F12350D01B309AC4EC798884302B40688
S11304F0125B8F02B50A353E47669B142504B60F7E
S11305003D42CF30244392285112255112B7060997
S11305104F4700B806123B8F02B908AB4E4F225525
S113052006BA0AB4468F1249893A04BB0D2E4247D3
S11305309445599444491401BC0D4E3E4FA816A746
S1130540504BA2210DBD0C4E3E4FA816973049C307
S113055070BE0E4D3E879AA591944949328401BFDD
S11305600A3D42570E8559CB02C00C45424F9A2D85
S113057099360C9916C10C45425F6DC9B461C8B473
S113058000C20D45425796444BA60D43A605C30D24
S113059045424FA4484BA60D43A605C40C45424F03
S11305A01D58326D18322DC50D45425796444BA641
S11305B00D43A605C60C3E42D790949A86216A1A2A
S11305C0C70B4D3ACF92896DC95603C80C45424FAB
S11305D0368CE19084E120C90C45425F328CE19075
S11305E084E120CA0C454257348CE19084E120CB4D
S11305F00C45424F6518C32109C341CC0AC3424785
S1130600962C51CB00CD0AC34257922C51CB00CE2D
S11306100AC3424F6548A29601CF0AC34247922DAE
S113062051CB00D00E3D42C71055A2212925D1A09F
S113063000D10C454257D26D521269D302D20B45F8
S1130640424F9A2D995BB200D30A45425F6DC9DCD3
S11306509205D40C45425796444BE6962C00D50B94
S1130660454257D2B4646EC902D60B45424F1D5859
S113067032B76401D70A2D424796D42AB500D80C64
S11306803D42CF125D92694A1600D90A45424F1A7B
S113069065DE9205DA0A45425F29F3962C00DB0BEE
S11306A045425796C4995BB200DC0A45424F39F380
S11306B0962C00DD0B45425F29D3925A5802DE0C7A
S11306C03D42473824D9A0844500DF0D3D42CF92F6
S11306D04949A992290A00E00C45424F9A236B32FA
S11306E068C910E10C45425F1D5993414B8600E2F5
S11306F00D45425796E4C09A0C5A3204E30D454224
S113070057D20EACC9A0254300E40C3D424F1D58FE
S113071093414B8600E50D4542579664D99A0C5A8D
S11307203204E60C2E42CF1026C930658300E70B55
S11307303D3ACF928959B2D500E80C45424F9A23ED
S11307404B360CE902E90C45425F1D59B26148176A
S113075000EA0D45425796E4C0920D43BA00EB0CF3
S11307603D424F1D58B261481700EC09C342471679
S11307704A2D03ED08C3424F556A19EE08C3424F90
S11307809BD432EF09BB424792492D03F00B3D4203
S1130790872A2D992D5900F10B454257D29C983444
S11307A05B00F20C45424F9A234B664B1600F30B49
S11307B045425F1D59325BB200F40C45425796E442
S11307C0C092D99205F50C454257D20E2C992D5959
S11307D000F60B3D424F1D58325BB200F70A2D461E
S11307E0570E0C3A1001F80B2D42CF202DC9342896
S11307F000F90B45424F9A039993A204FA0A454221
S11308005F1DC89C1425FB0B45425796C49993A2BF
S113081004FC0A3D424F3973529400FD0D4D3A5F7A
S11308202933294AA8250B00FE0C453A4738249958
S11308306D50C210FF0D4D3A4F3933294AA8250B8C
S11308400000000004FFFF0000BF000202030303D6
S11308500404050700FF06FF06000112022F0670BC
S1130860200500BD012106B1B1192922075BB74952
S11308705600230A2DB1AB86AA86AA00240A2DB1FC
S11308805B35D820A505250934B1C920F606012613
S1130890092CB18B29563105270599B719280772F8
S11308A0B153CD00290872B189A952002A076BB14E
S11308B049D56A2B0A2DB1CD280E9951042C075B1A
S11308C0AF5325002D060CB519012E0652B119019E
S11308D02F0724B307B10D300873B1AB5C15003199
S11308E00773B14BB235320A34B1533183588E0099
S11308F0330B34B11919248D645200340A34B18D88
S1130900AA1A318304350A34B1191A6C24930236B5
S11309100A34B15319AC289302370B34B11919C4F2
S11309200C620611380A34B15331A9289302390AEA
S113093034B15351A60D92023A076AB11971043BBE
S11309400833AFB3912A013C086BB14D35C8203D43
S1130950081CB319198D003E096BB1C920835402D8
S11309603F0973B16BA60C1300400934B15351DD38
S11309704801410934B153518E2903420A34B15913
S113098071A4284702430B34B15351830C625200C3
S1130990440934B159D1391200450B34B1191AAC98
S11309A00C321801460B34B1191AAC0C32C800478A
S11309B00A34B153518334D300480834B189724C9A
S11309C033490773B159B1354A0B34B107196490EF
S11309D0814C0A4B0A34B1892A4999CA004C0C3417
S11309E0B1C920830C32C860044D0934B189E3884D
S11309F066004E0834B1896BA9334F0934B153D121
S1130A00991400500A34B159518E944106510A3C4C
S1130A10AF53D15C49A300520934B159518ED40C5F
S1130A20530A34B1533165542605540773B159B18F
S1130A300B550834B1899E4901560934B189CE2435
S1130A401500570934B189E6386200580A34B1896F
S1130A503249156500590873B1495659015A0A3487
S1130A60B11919C43618015B0773B119B1395C099E
S1130A7024B3C928A38C025D0773B199CD115E0517
S1130A8053B96B5F060CB11901600652B989016153
S1130A900824B11B51A902620B34B1C9208315E5A6
S1130AA04800630723B19B1908640A34B10719A4E9
S1130AB011651A650924B1536964A000660934B14B
S1130AC0ADCA99410467092CAF1B31A98C06680A89
S1130AD034B1C9208315CD00690873B1CB485603DE
S1130AE06A097BAFCDB05415006B0B34B1C92083B8
S1130AF094642A036C0773B1915D036D0824B149B2
S1130B006948196E0724B159D10C6F0824B15351A7
S1130B10260570092CAF59518E940171092CAF1B15
S1130B2051A60D02720824B15951830C730824B1E3
S1130B301B1A0D05740A34B1CB20CE0C3212750782
S1130B4024B189661A760763B1495605770724B13B
S1130B5089721C780824B18949AA1879092CAF89AB
S1130B60329525007A0824B119B11C017B0873B1B0
S1130B704D49D6207C05B1B1397D0A73B1C920AA8B
S1130B809822007E0714B94B2A01A00500BD01A1DB
S1130B9006B1B14923A20934AF8D23356702A308F6
S1130BA02CB155715602A40B2DB1C920CD14570692
S1130BB001A50973B149AA5A3101A606A9B1510286
S1130BC0A7087BAF9BAA920BA8064BBB4901A90DB2
S1130BD03DAF5B19A83455D2202D00AA061BB75B84
S1130BE049AB071DB38BB201AC0714B3191904AD9B
S1130BF0054BB519AE0C3DAF5B198C34A7066901E2
S1130C00AF060CBB1901B0065BB7EB02B10B35B1F3
S1130C10CD280E99511C02B20662B55106B3066284
S1130C20B51969B40652B95300B5082CAF89E64822
S1130C3019B60834B11B6AF503B70652B51901B8E1
S1130C400652AF5300B90763B54B320DBA061BB752
S1130C50EB02BB081DB389A54C00BC0C3CAFC920FA
S1130C60830C62541B04BD0D3CAFC920830C920657
S1130C70310301BE0B3CAF911A4415D50601BF09DF
S1130C8073B1CB30C55401C00934B153518E29031B
S1130C90C10934B153518E2903C20934B153518E61
S1130CA02903C30934B153518E2903C40A34B189C9
S1130CB049C5316500C50934B1932A8E2903C60993
S1130CC034B11BA91AAA25C70B3CAF5351830C623C
S1130CD09211C80B34B1191AAC0C321801C90B3477
S1130CE0B1191AAC0C321801CA0B34B1191AAC0C74
S1130CF0321801CB0B34B1191AAC0C321801CC07E1
S1130D0073B159B135CD0773B159B135CE0773B14C
S1130D1059B135CF0773B159B135D00934B1996997
S1130D20758D04D10834B14973A933D20934B15350
S1130D30D1991400D30934B153D1991400D409348E
S1130D40B153D1991400D50934B153D1991400D6B3
S1130D500A34B1894945332900D70824B18949AAFD
S1130D6018D80934B11BE9484702D90834B1899E1F
S1130D704901DA0834B1899E4901DB0834B1899EFE
S1130D804901DC0A34B1891945332900DD0873B1FE
S1130D9049565901DE0B34B1C960C59132C800DF30
S1130DA00934B15351955602E00A34B1CB288EA8C8
S1130DB05401E10934B1ADC1884A15E20934B1AD39
S1130DC0D2884A15E30A34B14B2A8EA85401E409A7
S1130DD034B1ABE1884A15E50934B1937244A50AEC
S1130DE0E60824B11B69C501E7086BAF9B19A80489
S1130DF0E80B34B1CB28AA34325000E90A34B1AD3F
S1130E00814A230305EA0B34B18B29AA34325000FA
S1130E10EB0B34B14999506964A000EC0873B1C973
S1130E2020C96AED0773B12B6535EE0773B1AB6664
S1130E3035EF0873B14919C86AF00A34B1CBC88ACE
S1130E40322900F10934B14B2AAD6806F20A34B1F3
S1130E50CB28AA289302F30A34B1AD818A3229003F
S1130E60F40A34B1D3848A322900F50A34B14B2A06
S1130E70AA289302F60A34B1ABA18A322900F709F1
S1130E802CB1D37064A800F80924B11B69A49100A3
S1130E90F90934B1CBA834D300FA0734B16D9A6997
S1130EA0FB0834B1D3309A69FC0934B1AB5134D363
S1130EB000FD093CAF6DCA549600FE0A34AFC96008
S1130EC045395206FF0A3CAFAB5194A92C010000EE
S1130ED00004FFFF000011241FBECFEFD8E0DEBFE7
S1130EE0CDBF12E0A0E0B1E0E0E4F4E402C005907C
S1130EF00D92A43CB107D9F727E0A4ECB2E001C0FD
S1130F001D92AC3BB207E1F70E94DE080C941E224E
S1130F100C9400001F920F920FB60F9211240F939E
S1130F201F932F933F934F935F936F937F938F936D
S1130F309F93AF93BF93CF93DF93EF93FF9389B1C5
S1130F4090E09093CB028093CA02892B41F4809164
S1130F50C8029091C9029093CB028093CA028091F7
S1130F60CA029091CB028130910509F473C01CF43C
S1130F70009749F0D7C08032910529F08038910557
S1130F8009F468C0CFC02091C6023091C702232B58
S1130F90C1F41092C9021092C802E4E8F0E0118290
S1130FA01082808191819093D5028093D4028091A4
S1130FB0C6029091C70201969093C7028093C6021D
S1130FC0B1C02FEF3FEF3093C9022093C802609164
S1130FD08400709185007093D3026093D2022091B3
S1130FE0D4023091D502621B730B8B01072E000CC7
S1130FF0220B330B0093CE021093CF022093D00226
S11310003093D102660F771F660F771F7093CD025E
S11310106093CC02880F991F880F991FEC01C85F59
S1131020D84F80E090E00E94AB2020E030E048E61A
S113103052E40E94032026E636E646EE5FE30E9471
S1131040971F688379838A839B831092C7021092C7
S1131050C60268C02091C4023091C502232BD1F48A
S113106081E090E09093C9028093C802E4E8F0E044
S113107011821082808191819093D5028093D40251
S11310808091C4029091C50201969093C502809309
S1131090C40248C02EEF3FEF3093C9022093C80228
S11310A060918400709185007093D3026093D202A2
S11310B02091D4023091D502621B730B8B01072E51
S11310C0000C220B330B0093CE021093CF0220931B
S11310D0D0023093D102660F771F660F771F70938B
S11310E0CD026093CC02880F991F880F991FEC01E1
S11310F0C85FD84F80E090E00E94AB2020E030E051
S113110048E652E40E94032026E636E646EE5FE314
S11311100E94971F688379838A839B831092C502F8
S11311201092C402C091FE06D091FF06E8E0F7E0F9
S113113024813581468157816081718182819381C7
S11311400E94971F0E9475209B01772314F42F5F40
S11311503F4FC9019595879599838883FF91EF91B6
S1131160DF91CF91BF91AF919F918F917F916F91BB
S11311705F914F913F912F911F910F910F900FBE4F
S11311800F901F9018952AE031E04CE051E06EE09A
S113119071E080E091E00E94E4089093DB02809388
S11311A0DA020E9445090E94430B68ED72E086ED65
S11311B092E00E944B090E943E0A08950E94C308CF
S11311C078940E942512FDCF9093230780932207E1
S11311D070932507609324075093A9074093A807A9
S11311E03093A5072093A40724E83CE149E45CE19B
S11311F069E572E084E397E00E94D81588E780935C
S11312004A0784E397E00E94811E60E084E397E04C
S11312100E948C1E209112013091130140911401FF
S11312205091150160911601709117018091180178
S1131230909119010E940320609316017093170185
S1131240809318019093190168E670E084E397E0B5
S11312500E941A1A809184078093990780918307CA
S11312608093120760E084E397E00E94371AECEA67
S1131270F7E084E0818385E08583EAE9F7E093E0A1
S11312809183858381EF92E00895E1E6F0E080E8C0
S11312908083108208959093270780932607709384
S11312A033076093320785B5836085BDEEE6F0E0D1
S11312B08081846080838AEF88BD08951F920F9295
S11312C00FB60F9211242F933F934F935F938F93F5
S11312D09F93EF93FF938091AA079091AB07803679
S11312E02AEE9207B8F08CEB90E09093AB078093D2
S11312F0AA078091A6079091A70701969093A70744
S11313008093A6071092EC021092EB0281E0809386
S1131310F20218C02091EB023091EC02A9014F5F58
S11313205F4F5093EC024093EB02283C324354F05D
S11313308F5C9E4F9093AB078093AA071092EC02A8
S11313401092EB028091AA079091AB0701969093BB
S1131350AB078093AA07E0913207F091330791839A
S11313608083E0912607F09127078091A60790914A
S1131370A70791838083FF91EF919F918F915F9154
S11313804F913F912F910F900FBE0F901F90189582
S1131390EF92FF920F931F93CF93DF9300D01F928E
S11313A0CDB7DEB78C017B01FC01108219821A8251
S11313B01B824AE0BE016F5F7F4F8091A607909128
S11313C0A7070E94E9218091A6079091A7070A9791
S11313D048F4F80101900020E9F7319780E390E0A8
S11313E091838083BE016F5F7F4FC8010E94DE211D
S11313F02091AA073091AB07369527953695279506
S113140036952795A5ECB0E20E94C8214AE0BE01BA
S11314106F5F7F4F929582958F7089279F70892780
S11314200E94E921F80101900020E9F731978AE34D
S113143090E091838083EA94EF28B1F48091AA0725
S11314409091AB078031974248F4F8010190002055
S1131450E9F7319780E390E091838083BE016F5F69
S11314607F4FC8010E94DE210F900F900F90DF91F3
S1131470CF911F910F91FF90EF900895ECE7F0E06A
S1131480808182648083EAE7F0E08081876E8083D4
S1131490089580917800909179000895CF93DF9317
S11314A02091F102022E000C330BF901ED5EF84F8E
S11314B09081980F90834091BB07442309F45AC04C
S11314C0F901E455F84FE0814E2F0E2E000C550B18
S11314D041505109692F092E000C770B4617570705
S11314E04CF4F901ED5EF84F1082F901E85DF84F14
S11314F0108211C099237CF4D901AD5EB84F9FEFDF
S11315009E0F9C93D901A85DB84FE901C656D84FE8
S113151098819E1B9C93F901ED5EF84F6081062E25
S1131520000C770BF901E85DF84F9081F901E6565C
S1131530F84F4081042E000C550B491B510997FDAF
S11315405395641775072CF0F901E85DF84F981B63
S11315509083F901E85DF84F9081E92FFF27E19529
S11315600CF4F0956E177F072CF4F901E85DF84F41
S1131570981B9083DF91CF910895811115C08091BC
S11315801001909111018330910544F501969093D7
S1131590110180931001880F991FFC01ED51FD4F3B
S11315A0718360838FEF08958091100190911101F0
S11315B0181619063CF0880F991FFC01ED51FD4FD8
S11315C08081089501979093110180931001880FF1
S11315D0991FFC01ED51FD4F808108958FEF08950F
S11315E08091BB078823F9F08091F102813031F4B6
S11315F0809114078E5F8093F1020DC0811104C0A5
S113160081E08093F10207C0853029F480911807A6
S11316108A5F8093F1026091F102062E000C770B31
S113162080E00E94BD0A08951F920F920FB60F9298
S113163011248F939F93189905C01092110710924B
S113164010071AC0199907C081E090E09093110720
S11316508093100711C01A9907C082E090E090931C
S113166011078093100708C01B9906C083E090E01F
S113167090931107809310079F918F910F900FBE45
S11316800F901F90189584B1807F84B985B18F60C5
S113169085B995B185B198130BC0E8E6F0E0808177
S11316A081608083EBE6F0E080818F6080831DC0E1
S11316B095B188B198130BC0E8E6F0E080818260B0
S11316C08083ECE6F0E080818F6080830EC095B16A
S11316D08BB198130AC0E8E6F0E0808184608083CF
S11316E0EDE6F0E080818F6080832FEF83EC99E05A
S11316F0215080409040E1F700C00000089580919F
S11317001007909111078130910539F11CF4892B50
S113171089F13DC08230910519F0039791F037C0EB
S113172060E070E081E00E94BD0A8093F10281E0F4
S113173080932D018FEF9FEF9093110780931007F3
S113174008950E94F00A81E080932D018FEF9FEFAE
S1131750909311078093100708958FEF0E944E0A0B
S113176081E080932D018FEF9FEF90931107809379
S11317701007089581E00E944E0A81E080932D01B4
S11317808FEF9FEF909311078093100708958FEFC9
S11317909FEF909311078093100708952F923F9223
S11317A04F925F926F927F928F929F92AF92BF926D
S11317B0CF92DF92EF920F93CF93DF9300D000D0BC
S11317C0CDB7DEB781E08093BB070F2EF5E2CF2EB5
S11317D0F1E0DF2EF02D1C821B82E091F1020E2E2F
S11317E0000CFF0BED5EF84F8081082E000C990B66
S11317F02B813C818217930709F09DC0409016010C
S1131800509017016090180170901901B901330FBD
S1131810880B990B0E94AD20A30192010E943921EB
S113182020E030E040E151E40E94971F4B015C014D
S113183060912907062E000C770B880B990B0E94E8
S1131840AD20A30192010E9439219B01AC01C50185
S1131850B4010E94971F0E9475204B015C016930FE
S113186071050CF4D6C02091EF023091F0022F5F85
S11318703F4F00243695279507943695279507946E
S1131880322F202DABEABAEA0E94C821969587959B
S11318901C01EFE32E0E311C20E030E040E050E468
S11318A0C301B2010E94961F0E947520562E472E36
S11318B0310133201CF4FFEF6F1A7F0A759467948B
S11318C061E084E397E00E94D91A20E430E026190D
S11318D037093A8329830F2EF3E0EF2EF02D052DDF
S11318E0222D482D698184E397E00E94221360E051
S11318F084E397E00E94D91A452D542D552314F4FE
S11319004F5F5F4F559547954D5F742E780C398125
S1131910630EF60140805180B20184E397E00E9497
S11319202F1A8695662D681B9201472D84E397E054
S11319300E94C7196EC04090160150901701609024
S11319401801709019012B813C81B901330F880B68
S1131950990B0E94AD20A30192010E94392120E03D
S113196030E040E151E40E94971F4B015C0160911B
S11319702907062E000C770B880B990B0E94AD20CB
S1131980A30192010E9439219B01AC01C501B4015C
S11319900E94971F0E9475204B015C0169307105FC
S11319A0C4F120E030E040E050E4C301B2010E9401
S11319B0961F0E947520762E672E61E084E397E0DF
S11319C00E94D91A0F2EF3E0EF2EF02D072D20E4FC
S11319D0482D60E284E397E00E949613872D962DAC
S11319E099230CF40196959587958D5F782E780C44
S11319F0F60140805180B20184E397E00E942F1ADF
S1131A00869560E4681B9201472D84E397E00E9469
S1131A10C7192B813C812F5F3F4F3C832B8332E0DE
S1131A20C30ED11C8B819C81059709F0D6CE809181
S1131A30EF029091F0028230910530F40196909378
S1131A40F0028093EF0206C01092F0021092EF02AF
S1131A5010922D010F900F900F900F90DF91CF9166
S1131A600F91EF90DF90CF90BF90AF909F908F90A9
S1131A707F906F905F904F903F902F9008952F929A
S1131A803F924F925F926F927F928F929F92AF920A
S1131A90BF92CF92DF92EF920F931F93CF93DF9376
S1131AA000D000D000D0CDB7DEB781E08093BB0773
S1131AB0609116017091170180911801909119019C
S1131AC00E9475204B0177231CF42FEF821A920A8F
S1131AD09594879433E0830E911C1B01E2E02E1A47
S1131AE031080F2EF5E2CF2EF1E0DF2EF02D1E820D
S1131AF01D820F2EF8E2AF2EF7E0BF2EF02D10E47A
S1131B00E091F1020E2E000CFF0BED5EF84F808188
S1131B10082E000C990B2D813E818217930709F042
S1131B2062C04090160150901701609018017090A7
S1131B301901B901330F880B990B0E94AD20A30141
S1131B4092010E94392120E030E040E151E40E94FA
S1131B50971F69837A838B839C83F5016181062EA9
S1131B60000C770B880B990B0E94AD20A301920106
S1131B700E9439219B01AC0169817A818B819C810E
S1131B800E94971F0E9475202B013C01693071054A
S1131B900CF486C061E084E397E00E94D91A0F2E0A
S1131BA0F3E0EF2EF02D022D20E8442D60E084E3D5
S1131BB097E00E94221360E084E397E00E94D91A20
S1131BC0480CF60160807180B30184E397E00E94C1
S1131BD02F1A8695612F681B9301442D84E397E0A7
S1131BE00E94C7195DC04090160150901701609083
S1131BF01801709019012D813E81B901330F880BB2
S1131C00990B0E94AD20A30192010E94392120E08A
S1131C1030E040E151E40E94971F69837A838B830B
S1131C209C83F5016181062E000C770B880B990BC0
S1131C300E94AD20A30192010E9439219B01AC01B5
S1131C4069817A818B819C810E94971F0E947520F3
S1131C502B013C01693071051CF161E084E397E0DC
S1131C600E94D91A0F2EF3E0EF2EF02D022D20E85A
S1131C70442D60E084E397E00E949613480CF6013B
S1131C8060807180B30184E397E00E942F1A8695E7
S1131C90612F681B9301442D84E397E00E94C719C8
S1131CA02D813E812F5F3F4F3E832D8332E0C30E53
S1131CB0D11C8D819E81059709F022CF10922D01B0
S1131CC026960FB6F894DEBF0FBECDBFDF91CF913D
S1131CD01F910F91EF90DF90CF90BF90AF909F90A6
S1131CE08F907F906F905F904F903F902F900895CA
S1131CF0EF92FF921F93CF93DF93CDB7DEB7289770
S1131D000FB6F894DEBF0FBECDBF81E08093BB0752
S1131D1088E0EEE2F1E0DE01119601900D928A95E1
S1131D20E1F7CE0101967C0111E0F7012191319197
S1131D307F0140919907149F402D112460E084E3B2
S1131D4097E00E94C7191F5F153079F710E480915E
S1131D509907F12EF81A66E371E084E397E00E9494
S1131D602F1A8695612F681B26E331E04F2D84E3FB
S1131D7097E00E94C71965E471E084E397E00E944C
S1131D802F1A8695612F681B25E431E040E484E333
S1131D9097E00E94C71910922D0128960FB6F89467
S1131DA0DEBF0FBECDBFDF91CF911F91FF90EF90AB
S1131DB0089540919907475F27E931E060E084E3A3
S1131DC097E00E94C7191092BB0710922D01089545
S1131DD0EF92FF920F931F93CF93DF93CDB7DEB7AC
S1131DE028970FB6F894DEBF0FBECDBF08E02FE0F2
S1131DF040E069E384E397E00E94E01204E023E01A
S1131E0042E067E484E397E00E94E0120E94490AFA
S1131E10813021E0920768F41092EE021092ED02F4
S1131E203DC08091ED029091EE021816190604F15E
S1131E3035C0813022E0920738F481E090E090933D
S1131E40EE028093ED0214C0833123E0920738F44C
S1131E5082E090E09093EE028093ED0209C081301D
S1131E609440F8F683E090E09093EE028093ED02C4
S1131E701BE3E12CF12C04E023E042E0612F84E336
S1131E8097E00E94B8128FEFE81AF80A1C5F80915D
S1131E90ED029091EE02E816F9066CF387E0E7EAAA
S1131EA0F1E0DE01119601900D928A95E1F7E0913F
S1131EB02207F09123074AE0BE01685F7F4F8081CB
S1131EC091810E94E921BE01685F7F4FCE01019696
S1131ED00E94DE2169E478E084E397E00E941A1A04
S1131EE0109199071350BE016F5F7F4F84E397E011
S1131EF00E942F1A60E8681B9E012F5F3F4F412FFD
S1131F0084E397E00E94C71969E478E084E397E0EA
S1131F100E941A1A60E070E08CED92E00E94C809F9
S1131F204091990743502CED32E060E084E397E060
S1131F300E94C71968E670E084E397E00E941A1AC9
S1131F4028960FB6F894DEBF0FBECDBFDF91CF91B8
S1131F501F910F91FF90EF9008957F928F929F921F
S1131F60AF92BF92CF92DF92EF92FF920F931F93A3
S1131F70CF93DF93CDB7DEB7A8970FB6F894DEBF43
S1131F800FBECDBF1092BB076EEA71E084E397E009
S1131F900E942F1A782EBE016F5F7F4F7AA369A328
S1131FA06E0189E0C80ED11CDCA2CBA27E01E1E166
S1131FB0EE0EF11CFEA2EDA28E01075E1F4F18A7C4
S1131FC00FA3E0912407F09125074AE080819181D5
S1131FD00E94E921E091A807F091A9074AE0B6011F
S1131FE0808191810E94E921E091A407F091A507E5
S1131FF04AE0B701808191810E94E92161E070E0AB
S1132000C8010E94C809E0911407EE0FFF0BEB5DB5
S1132010FE4F2081318140919907475F60E084E35E
S113202097E00E94C7195E01F1E2AF0EB11C0F2EBA
S1132030F1E5CF2EF2E0DF2EF02D0F2EF9E4EF2E96
S1132040F2E0FF2EF02D13E0F501819091905F01F5
S1132050B40184E397E00E942F1A082FF60121911E
S113206031916F0140919907149F402D112460E034
S113207084E397E00E94C71940919907149F402D6B
S113208011249401672D84E397E00E94C719F70196
S1132090219131917F0140919907149F402D112482
S11320A0609112076695670D600F84E397E00E94C4
S11320B0C7191F5F173041F681E080932D01A89660
S11320C00FB6F894DEBF0FBECDBFDF91CF911F9145
S11320D00F91FF90EF90DF90CF90BF90AF909F90C3
S11320E08F907F9008951092BB07E0911407EE0F34
S11320F0FF0BEB5DFE4F2081318140919907475FD3
S113210060E084E397E00E94C71910922D010895BE
S11321101092BB07E0911407EE0FFF0BEB5DFE4F2F
S11321202081318140919907475F60E084E397E023
S11321300E94C71910922D0108952F923F924F9239
S11321405F926F927F928F929F92AF92BF92CF9243
S1132150DF92EF92FF920F931F93CF93DF9300D000
S113216000D01F92CDB7DEB781E08093BB071091FA
S11321701207812F90E09C01220F331F122F180F9A
S113218060911601709117018091180190911901C5
S11321900E9475203B0177231CF42FEF621A720A08
S11321A07594679483E0680E711CE091F1028AEFE4
S11321B08E0F853030F51092BB07A0911807AA0F37
S11321C0BB0B8091220790912307A80FB91F0E2EF5
S11321D0000CFF0BED5EF84F20818D919C911197BF
S11321E0821B910927FD93958D939C93E091F102B5
S11321F00E2E000CFF0BED5EF84F1082E1E0ED8334
S113220001C01D820F2EFBE1AF2EF1E0BF2EF02D99
S1132210812C912CC12CD12C0F2EF3E14F2EF7E001
S11322205F2EF02D0F2EFEEF3F2EF02D310E20915C
S113223099072C9DC0012D9D900D11247C01F9E07E
S1132240EF0EF11CF2018581082E000C990B8C1500
S11322509D0509F06CC061E084E397E00E94D91AFF
S11322602E2C260C2BEB31E0422D60E084E397E02A
S11322700E94C719FD81FF2389F161E084E397E09F
S11322800E94D91A009199070F5FF501608171814D
S113229084E397E00E942F1A90919907422D491BDD
S11322A04F5F6894EE24E1F8282F632D84E397E0D0
S11322B00E94221360E084E397E00E94D91AF5019A
S11322C020813181422D612F84E397E00E94C71958
S11322D061E084E397E00E94D91A09C0F5012081E6
S11322E03181422D612F84E397E00E94C719E09168
S11322F02207F0912307E80DF91D4AE0BE016F5F44
S11323007F4F808191810E94E921F5016081718173
S113231084E397E00E942F1A682F610F9E012F5FBC
S11323203F4F422D84E397E00E94C7192AC00E2D27
S1132330060DF50120813181402F612F84E397E060
S11323400E94C719E0912207F0912307E80DF91DB7
S11323504AE0BE016F5F7F4F808191810E94E92135
S1132360F5016081718184E397E00E942F1A612F47
S1132370680F9E012F5F3F4F402F84E397E00E9438
S1132380C719FFEFCF1ADF0A22E0820E911C82E008
S1132390A80EB11CE5E0CE16D10409F048CF81E0C7
S11323A080932D010F900F900F900F900F90DF915D
S11323B0CF911F910F91FF90EF90DF90CF90BF903E
S11323C0AF909F908F907F906F905F904F903F90D1
S11323D02F9008958091F1028230E9F02CF4882343
S11323E041F0813049F026C08330D1F08430E9F0E7
S11323F021C00E94780E08950E94E80E80911A016F
S1132400882319F0813021F008950E94CE0B08959D
S11324100E943F0D08950E94E80E0E94AD0F08959A
S11324200E94E80E0E94731008950E94E80E0E9414
S1132430881008958550863028F40E94E80E0E9482
S11324409D1008950E94D90E08950E947F0B0E944A
S1132450490A80912D01811104C08091F2028823E0
S113246079F081E080932D0184E397E00E945D146C
S11324700E94EA1184E397E00E9473141092F2021E
S113248008951092B90088E48093B8000895CF931A
S1132490DF93ECEBF0E044EAA9EBB0E0CBEBD0E067
S11324A054E864E9408320E030E09081992334F0DB
S11324B02F5F3F4F211591E03907B9F79C91987F21
S11324C0983011F0903171F78883508320E030E028
S11324D09081992334F02F5F3F4F211591E0390704
S11324E0B9F79C91987F903211F0983569F4608324
S11324F020E030E0908194FFD5CF2F5F3F4F21152E
S113250091E03907B9F7CECFDF91CF91089584E9EF
S11325108093BC0080E090E0ECEBF0E0208124FFAD
S113252005C00196811521E09207C1F708958093B3
S1132530BB0084E88093BC008FEF90E0A0E0B0E0A3
S1132540ECEBF0E0208122232CF00197A109B109E2
S1132550C8F704C0892B8A2B8B2B41F09091B900CA
S1132560987F81E0983219F480E0089581E008951D
S1132570DF92EF92FF920F931F93CF93DF937C012F
S1132580162FC42FD22ED02F042F0D0F262F2D0D32
S11325900E94FA1A882361F0DD2351F000E02D2D0A
S11325A04C2F612FC7010E94491ACF5FD150B1F758
S11325B0DF91CF911F910F91FF90EF90DF900895DD
S11325C0CF92DF92EF92FF920F931F93CF93DF93FB
S11325D07C01D62FC42FD22E102FC62EC20E042F4C
S11325E0010F2C2D0E94FA1A882319F100E02D2DD9
S11325F04C2F6D2FC7010E94491A1230D0F012508F
S1132600CF5F112379F001E0212F4C2F6D2FC701EB
S11326100E94491A6FEF6C0D212F4C2FC7010E94A5
S1132620491AC10F00E02D2D4C2F6D2FC7010E94B8
S1132630491ADF91CF911F910F91FF90EF90DF9096
S1132640CF9008957F928F929F92AF92BF92CF9234
S1132650DF92EF92FF920F931F93CF93DF936C015E
S1132660162FF42EB22EC02FA42EA00ED62FD20FCA
S11326700A2D2D2F0E94FA1A882309F449C0812EAD
S11326808E0C9F2C9E0C8E2D8095D80FA80E02E0E8
S11326902E2D492D682DC6010E94801501E02E2D96
S11326A0492D6D2FC6010E94801504E02E2D4A2D60
S11326B0682DC6010E94801508E02E2D4A2D6D2F2D
S11326C0C6010E9480152B2D2E192E19233098F047
S11326D08394DEEFD20F772473947E0C072D2D2F75
S11326E04F2D682DC6010E94B8122D2F4A2D682D3A
S11326F0C6010E94B812CE19CE19C33048F00EEFAD
S11327000C0F41E0490D2B2D612FC6010E94B81218
S1132710DF91CF911F910F91FF90EF90DF90CF90B9
S1132720BF90AF909F908F907F9008958F929F92CB
S1132730AF92BF92CF92DF92EF92FF920F931F93CB
S1132740CF93DF93EC01162FF42EC22EB02EA42EBD
S1132750A00ED62ED20E0A2D2D2D0E94FA1A8823F1
S113276009F452C0812E8E0C9F2C9E0C8E2D8095C8
S1132770D80EA80E02E02E2D492D682DCE010E9400
S11327802E1501E02E2D492D6D2DCE010E942E1502
S113279004E02E2D4A2D682DCE010E942E1508E04E
S11327A02E2D4A2D6D2DCE010E942E152C2D2E1965
S11327B02E190B2D0E190E192330A0F083940F2E11
S11327C0FEEFEF2EF02DE20E2E2D4F2D682DCE01B3
S11327D00E94B81A4FEF4B0D4F0D2E2D682DCE01D0
S11327E00E94B81A033080F093940250202F492D90
S11327F0612FCE010E94BE1A6FEF6C0D610F202F66
S1132800492DCE010E94BE1ADF91CF911F910F91E5
S1132810FF90EF90DF90CF90BF90AF909F908F90FC
S11328200895AF92BF92CF92DF92EF92FF920F93EF
S11328301F93CF93DF937C01DC019496BC90949713
S11328409596DC919597ED91FC91A188CD2FC12CA3
S1132850D12CD701ED91FC911197208992960D917D
S11328601C919397422F50E0440F551F440F551F5E
S1132870440F551F4C9DC0014D9D900D5C9D900DC6
S11328801124080F191F4C2F60E0C7010E94531E2A
S1132890CF5F8C2F8D1B8B1528F4BFEFCB1ADB0A6F
S11328A0CA15B8F2DF91CF911F910F91FF90EF906D
S11328B0DF90CF90BF90AF900895FC01A081B181CB
S11328C050969C9144A1949FA0011124440F551F3C
S11328D0440F551F440F551F60E070E082A193A17F
S11328E00E94D7210895CF93DF93EC010E94111425
S11328F0CE010E94971EDF91CF910895CF92DF926F
S1132900EF920F931F93CF93DF936C01D62F142F65
S1132910C22FE0FE0DC0402F411B622F6D0F0E949D
S1132920C41A402F4D1B612F6C0FC6010E94C41A9C
S1132930E1FE0EC0402F411B6C2F6D1BC6010E948F
S1132940C41A402F4D1B6C2F611BC6010E94C41A70
S1132950E3FE0EC0402F410F6C2F6D0FC6010E9485
S1132960C41A402F4D0F612F6C0FC6010E94C41A68
S1132970E2FE0EC0402F410F6C2F6D1BC6010E945A
S1132980C41A402F4D0F6C2F611BC6010E94C41A3C
S1132990DF91CF911F910F91EF90DF90CF90089529
S11329A0CF92DF92EF920F931F93CF93DF936C013B
S11329B0C62F142FD22FE0FE11C021E0240F402F88
S11329C0411B6D2F6C0F0E94BE1A21E02C0F402F6B
S11329D04C1B612F6D0FC6010E94BE1AE1FE12C08E
S11329E021E0210F402F411B6D2F6C1BC6010E945B
S11329F0BE1A21E02C0F402F4C1B6D2F611BC6010A
S1132A000E94BE1AE3FE10C021E0210F402F6D2F5B
S1132A106C0FC6010E94BE1A21E02C0F402F612FBB
S1132A206D0FC6010E94BE1AE2FE10C021E0210F04
S1132A306D2F6C1B402FC6010E94BE1A21E02C0F83
S1132A406D2F611B402FC6010E94BE1ADF91CF91EA
S1132A501F910F91EF90DF90CF9008958F929F92E6
S1132A60AF92BF92CF92DF92EF92FF920F931F9398
S1132A70CF93DF935C01C62E942EC22F802E01E0EB
S1132A80020F040F21E0260F2C0F4C1B6C1B0E941D
S1132A90FA1A882341F1D1E0DC1BDC2ED194DD0C41
S1132AA0E82C092D2C2D4C2F60E0C5010E947E14CA
S1132AB0CC23C9F00F2EF3E0FF2EF02D10E0DD2320
S1132AC024F0C150D394D394DD0D1F5FDF0DE82CA7
S1132AD0092D2C2D4C2F612FC5010E947E14F394D7
S1132AE0F3941C1760F3DF91CF911F910F91FF9026
S1132AF0EF90DF90CF90BF90AF909F908F9008950C
S1132B008F929F92AF92BF92CF92DF92EF92FF92F9
S1132B100F931F93CF93DF935C01C62E942EC22F85
S1132B20802E01E0020F040F21E0260F2C0F4C1B16
S1132B306C1B0E94FA1A882341F1D1E0DC1BDC2EC5
S1132B40D194DD0CE82C092D2C2D4C2F60E0C5010F
S1132B500E94D014CC23C9F00F2EF3E0FF2EF02DE9
S1132B6010E0DD2324F0C150D394D394DD0D1F5F16
S1132B70DF0DE82C092D2C2D4C2F612FC5010E944F
S1132B80D014F394F3941C1760F3DF91CF911F9149
S1132B900F91FF90EF90DF90CF90BF90AF909F90F8
S1132BA08F90089528E0FC01208383EF92E008953C
S1132BB0CF92DF92EF92FF920F931F93CF93DF9305
S1132BC01F92CDB7DEB77C016B0189019A0148E9F8
S1132BD05DE16BE27FE10E94701FCE0101960E94CD
S1132BE0D215860125E13BE14981BC01C7010E9460
S1132BF00C1C0F90DF91CF911F910F91FF90EF90DC
S1132C00DF90CF900895FC01E60FF11D849190E0D0
S1132C10982F88273196E4918E0F911D089580E0B6
S1132C2008950F931F93CF93DF93EC018B01FB0166
S1132C30849188833196E491E983FB013296E4918F
S1132C40EA83FB013396E491EB83FB013496E49130
S1132C50EC83FB013596E491ED83FB013696E49118
S1132C60EE83FB013796E491EF83FB013896E49100
S1132C70E887FB013996E491E987FB013A96E491F0
S1132C80EA87FB013B96E491EB87FB013C96E491D8
S1132C90EC87FB013D96E491ED87FB013E96E491C0
S1132CA0EE87FB013F96E491EF87FB017096E49178
S1132CB0E88B61E1C8010E9403169A8B898B63E15A
S1132CC0C8010E9403169C8B8B8B65E1C8010E948E
S1132CD003169E8B8D8BDF91CF911F910F910895D9
S1132CE0DC0118969C911897ED91FC911197249111
S1132CF030E0092E02C0359527950A94E2F7892F12
S1132D00860F883010F4E22F0FC031961196FC9391
S1132D10EE93E491F0E038E0391B02C0EE0FFF1FA0
S1132D203A95E2F7E22B885018968C9381E090E074
S1132D3002C0880F991F6A95E2F781508E23089587
S1132D400F931F93CF93DF93EC018C01075C1F4F0C
S1132D507AAF69AFFC01EF5BFF4F10823996608157
S1132D60C8010E9470168FAFFE01E55BFF4F6081C2
S1132D70C8010E947016FE01E05CFF4F8083B39689
S1132D808081B0978083CC5BDF4F91E0811190E02C
S1132D909883DF91CF911F910F910895CF93C62F00
S1132DA00E947016C15021E030E002C0220F331F90
S1132DB0CA95E2F7821BCF910895213031F018F0C3
S1132DC0223029F006C0840F0895860F0895841BCD
S1132DD00895861B0895213031F018F0223029F02F
S1132DE006C0860F0895841B0895861B0895840FDA
S1132DF008952F923F924F925F926F927F928F929B
S1132E009F92AF92BF92CF92DF92EF92FF920F9375
S1132E101F93CF93DF9300D000D000D0CDB7DEB79F
S1132E207C016E83342EFC0175AC16AD6C01F5E4A7
S1132E30CF0ED11C5C0182E4A80EB11C470193E6BD
S1132E40890E911CF701EC5BFF4FFC83EB83C701F8
S1132E508D5B9F4F9A838983F701F7ADF719FD8343
S1132E605E80F51508F45F2EF70164ACF60100816D
S1132E70212E202F412F672DF70183AD0E94EB16E1
S1132E80482E202F412F672D862D0E94DD163320DA
S1132E9061F0E981FA819081F4019083252D482F16
S1132EA0642DC7010E94491A0FC0F5019081911148
S1132EB00BC0EB81FC819081F4019083252D482F78
S1132EC0642DC7010E94491AFE818D81F81728F0EC
S1132ED0F81BFE831F5F712CBFCF8E81870DF70116
S1132EE085AF26AE26960FB6F894DEBF0FBECDBFD3
S1132EF0DF91CF911F910F91FF90EF90DF90CF90D2
S1132F00BF90AF909F908F907F906F905F904F9005
S1132F103F902F9008958F929F92AF92BF92CF923D
S1132F20DF92EF92FF920F931F93CF93DF93EC0105
S1132F307C0189E3E80EF11CCE010E94A016FE017B
S1132F40E05CFF4F90803C966081C7010E94CE16E2
S1132F50B82EFE01E35BFF4F6081C7010E94CE16CD
S1132F60182FFE01E25BFF4F6081C7010E94CE165D
S1132F70882EDFAC1D140CF079C0FE01EB5BFF4F13
S1132F800081190D1195202F412F6B2D8BAD0E94BF
S1132F90EB16C82E8BAF202F412F6B2D8CAD0E94CA
S1132FA0DD168CAF013059F028F0023091F0033077
S1132FB0D9F023C02D2D2C0D092D080F20C09C2DD8
S1132FC0991921E02C0D0D2D080FCC24C394C90EA2
S1132FD016C091E0392F3D1921E02C0D991901E01B
S1132FE0080F890FC30E0BC0292D2C0D982F9D1986
S1132FF001E0080F81E0890F02C0082F2C2D482F13
S11330006C2DCE010E94FA1A882381F11DAE1EAEEA
S11330105E01E8E4AE0EB11C6E01F9E4CF0ED11CE2
S1133020F5016081C7010E947016082FF6016081C6
S1133030C7010E947016182F40E0602FCE010E9435
S1133040F91641E0612FCE010E94F91661E0C70133
S11330500E9470168111F0CF8EAD89150CF3FE011C
S1133060ED59FF4FCD5BDF4F88818083882DDF9141
S1133070CF911F910F91FF90EF90DF90CF90BF9071
S1133080AF909F908F900895EF92FF920F931F93AC
S1133090CF93DF93FC01C5A9D6A967966F3F71054D
S11330A011F008F036C06136710538F0E75AFF4F69
S11330B080819181C80FD91F0AC06134710538F02D
S11330C0FC01E95AFF4F80819181C80FD91FCE01BD
S11330D00196FC012491222309F45AC0FE01249193
S11330E030E06217730751F406C0FE01249130E00A
S11330F06217730719F4CE01029652C0FC01849141
S1133100C80FD11DCE010196FC0124912111EDCFF0
S113311042C08B01FC01E55AFF4F80819181C80FA9
S1133120D91F7E0160E0C7010E940316C80FD91F92
S113313062E0C7010E940316F4E0EF0EF11C801751
S1133140910780F3FE01849190E0982F88273196AF
S1133150E4918E2B009711F10817190739F403C075
S11331600817190719F4CE0103961AC0FE01329606
S1133170E491CE0FD11DFE01849190E0982F882711
S11331803196E4918E2B009759F780E090E008C0C7
S113319080E090E005C080E090E002C080E090E034
S11331A0DF91CF911F910F91FF90EF9008950F93AE
S11331B01F93CF93DF93EC010E9444180097F1F022
S11331C0BC01CE010E94A0168E01075C1F4FFE01B8
S11331D0E45BFF4F6081C8010E94CE16FE01EF59E7
S11331E0FF4F808374976081C8010E94CE16C25B32
S11331F0DF4F6881C8010E94CE1601C080E0DF91D4
S1133200CF911F910F910895EF92FF920F931F9307
S1133210CF93DF93EC01E62EF72E1FAE0E94461CDF
S11332200E2D1F2DE12CF12CF80161918F01EA8103
S1133230FB81CE0109958F3FFFEF9F0759F08E3F29
S11332402FEF920789F3BC01CE010E94D718E82E14
S1133250F80EEACF8FAD882331F0CF59DF4F988134
S1133260890FF80EFE188F2DDF91CF911F910F91CA
S1133270FF90EF900895EF92FF920F931F93CF93D7
S1133280DF93EC01062F142F7901FC01EB5BFF4F58
S11332908081813061F028F0823079F0833099F0B8
S11332A017C0EFA9F8ADCE010995180F11C0EFA909
S11332B0F8ADCE010995081B0BC0EFA9F8ADCE01FE
S11332C00995181B05C0EFA9F8ADCE010995080FA3
S11332D00BAF1CAFB701CE010E944418009729F030
S11332E0BC01CE010E948B1701C080E0DF91CF9119
S11332F01F910F91FF90EF900895BF92CF92DF92AC
S1133300EF92FF920F931F93CF93DF93EC01B62EAE
S1133310C42EE22EF32E0E94461C0E2D1F2DD12CFE
S11333207E0125E4E20EF11CF80161918F01EA812E
S1133330FB81CE0109958F3FFFEF9F07E9F08E3F98
S11333402FEF920789F39C014C2D6B2DCE010E9427
S11333503B19F7019081913041F028F0923039F017
S1133360933039F007C0B80E05C0C80E03C0B81AB0
S113337001C0C81AD80ED8CF8D2DDF91CF911F91DF
S11333800F91FF90EF90DF90CF90BF900895E9E305
S1133390FCE1DC011396FC93EE9312970E947D19D5
S11333A00895FC0125A936A9232BE9F1ED5AFF4F15
S11333B020813C9620833B9740813C964083329702
S11333C03081332381F1313079F4399730812317F7
S11333D014F43A963083FC01EA5AFF4F20812417F3
S11333E014F53A9620830895FC01E05BFF4FE081D9
S11333F0DC01AE5ABF4F5C91022E000C330B652FDB
S1133400052E000C770B6E0F711DE7FD7A952617BC
S113341037071CF41D96E50FEC93541724F4FC01B4
S1133420E05AFF4F508308952FE036E1FC0130AF9E
S113343027AB0895CF93DF93FC0125A936A926175E
S1133440370751F0EC0176AB65AB8A5B9F4F0E9466
S11334501116CE010E94D119DF91CF91089529E36D
S11334603CE1FC01338322830E94041908958B5BA1
S11334709F4FFC01608308950F93DC0198963C9163
S11334809897431B5E96ED91FC915F9709950F9178
S113349008950F93FC01E35AFF4F3081332309F45D
S11334A065C0222309F462C0223058F0023019F4B6
S11334B06F5F621B0AC0033021F44F5F421B51E06F
S11334C02DC0502F517000FD29C0DC019F963C9106
S11334D09F97431708F44AC0D0963C91D09743175E
S11334E008F044C09E963C919E979D965C91260F51
S11334F0261730F4631718F42FEF230F03C0652F3A
S11335006317A0F5521790F5651708F4652F231774
S113351008F4322F232F261B50E01EC0FC0135A5D2
S1133520631720F136A5631708F530A977A5240F92
S1133530241730F4431718F42FEF230F03C0472F39
S11335404317A0F4721790F4471708F4472F231772
S113355008F4322F232F241BDC019096ED91FC916B
S113356091970480F581E02D052F09950F91089519
S11335700F9300E00E94491A0F9108950F9301E000
S11335800E94491A0F9108950F93FC0187A54817CB
S113359070F080A9481758F485A5681740F086A5EF
S11335A0681728F4CF0100E021E00E94491A0F9126
S11335B00895633028F4FC01ED59FF4F60830895AA
S11335C0FC01ED59FF4F21E020830895461738F49C
S11335D0821760F081E0241760F080E0089582177C
S11335E038F481E0241728F080E0089581E00895FC
S11335F080E00895FF920F931F93CF93DF93EC0124
S1133600162FF22E202F68A98FA50E94E61A882370
S113361031F02F2D412F6EA58DA50E94E61ADF9162
S1133620CF911F910F91FF900895EF92FF920F9306
S1133630CF93DF937C01342F377081E090E0032E29
S113364002C0880F991F0A94E2F7C82FF701ED59B9
S1133650FF4F5081523020F4513021F0782F04C0B4
S113366070E002C0782FC0E050E0487FD701929606
S11336708D919C919397ED91FC91D089D49FF00109
S1133680D59FF00D1124E60FF11DE80FF91F01116C
S113369007C08081872B8C2781932150D1F722C0CA
S11336A0A7014D595F4F9081972B9C2790833F5FD3
S11336B03770215031110EC0D70196968C91E80FC6
S11336C0F11DDA018C91823040F4813041F0C1E087
S11336D071E006C0770FCC0F03C0C1E001C071E0F8
S11336E02111E1CFDF91CF910F91FF90EF900895D9
S11336F0FC01A081B18184A1982F990F990F990F92
S113370097A350969C915097903208F09FE1990F9F
S1133710990F990F96A345A1942F990F990F990F7B
S113372090A751965C915197242F30E0280F311DBA
S1133730652F70E06217730714F4852F841B91A71B
S1133740880F880F880F890F82A780EF83A754966C
S11337508D919C915597813F910508F483A75696C6
S11337608C9184A708950E94781B08950F93CF939A
S1133770DF93EC010CA92AA94BA969A90E94FA1AA2
S1133780811104C0C35ADF4F188219C081E0FE01C1
S1133790E35AFF4F808389A99DA5981708F48DA744
S11337A08AA99EA5891708F48EA78BA99FA59817A7
S11337B008F48FA78CA998A9891708F488ABDF911E
S11337C0CF910F910895FC0115A683A586A781A525
S11337D087A782A580ABCF010E94B61B08950F93E3
S11337E00E943C1A0F910895DC01D1961C92D19746
S11337F0D3961C92D3978FEFD2968C93D297D4966C
S11338008C93D4979096ED91FC9191970280F381DB
S1133810E02DCD01099508950F931F93CF93DF9366
S1133820EC011EAA1DAA3F8F2E8F7BA36AA34CA373
S11338301DA2FC01EE5BFF4F1082B0961082319600
S113384081E080833196808319A308A3D801ED9188
S1133850FC91CE010995CE010E94F41BCE010E9479
S1133860141ACB5BDF4F1882DF91CF911F910F9118
S11338700895662329F06A3031F0862F90E0089588
S11338808FEF9FEF08958FEF9FEF0895FC01108E47
S113389008950F931F93CF93DF93683119F128F4A0
S11338A06431E1F0673139F027C0693109F16032E0
S11338B019F581E024C08FEF840F4423F9F0E90166
S11338C0082F10E00F5F1F4F020F131F89910E94F2
S11338D097120C171D07D1F781E011C00E94411205
S11338E081E00DC0FC0186890E94471281E007C077
S11338F00E94871281E003C080E001C081E0DF9173
S1133900CF911F910F9108956A3251F018F46932E2
S113391059F033C06B3261F06C3279F581E008956F
S1133920411119C081E0089541111DC081E008953D
S1133930242F30E0A4E6B0E00E94C82120EA3FE052
S113394040E050E00E94A6212332C8F4822F019760
S1133950F1F781E0089583E08A95F1F70000415082
S1133960D1F781E0089589EF90E00197F1F700C065
S113397000004150C1F781E0089580E0089581E09E
S113398008959A01DC011896ED91FC911997462F40
S113399067E109950895CF93DF931F92CDB7DEB702
S11339A06983AE014F5F5F4F61E00E94C11C0F90BD
S11339B0DF91CF910895DC011896ED91FC91199750
S11339C020E030E040E068E109950895DC011896B4
S11339D0ED91FC91199720E030E040E069E1099510
S11339E00895EF92FF921F93CF93DF93EC01162F6C
S11339F07A010E94DB1C60E4CE010E94CB1CE885A6
S1133A00F9859701412F67E1CE010995CE010E9406
S1133A10E61CDF91CF911F91FF90EF900895462F00
S1133A20DC011696ED91FC91179720E030E065E1FA
S1133A3009950895462FDC011696ED91FC91179790
S1133A4020E030E066E1099508959A01DC011696BC
S1133A50ED91FC911797462F67E109950895DC01D4
S1133A601696ED91FC91179720E030E040E068E174
S1133A7009950895DC011696ED91FC91179720E0C5
S1133A8030E040E069E109950895EF92FF920F93C9
S1133A901F93CF93DF931F92CDB7DEB77C018B01C9
S1133AA0D8016C916731C1F018F4653130F438C035
S1133AB06A31F8F06E3F51F133C0F8014181498316
S1133AC0D7011696ED91FC91179720E030E0C701DD
S1133AD009950E5F1F4FE4CFF80181818983AE0100
S1133AE04F5F5F4F61E0C7010E94251D0E5F1F4FAE
S1133AF0D7CF0F5F1F4FD7011696ED91FC91179703
S1133B0020E030E040E0C7010995CACFF8014181C7
S1133B10498369E2C7010E944E1F0E5F1F4FC0CF49
S1133B200F90DF91CF911F910F91FF90EF90089527
S1133B30EF92FF920F931F93CF937C01C42F8901BF
S1133B40663129F130F4643109F442C0653149F039
S1133B5062C0683109F450C0F8F0693109F450C00A
S1133B605AC08091F306882319F0C7010E94E61C0D
S1133B70C7010E94DB1C60E0C7010E94CB1C6C2FB4
S1133B80C7010E94CB1C81E08093F30645C0642FDB
S1133B900E94CB1C81E040C08091F306882319F079
S1133BA0C7010E94E61CC93150F0A80168E1C701B1
S1133BB00E94F11CC851085E1F4FC931B0F7A8011B
S1133BC06C2FC7010E94F11C1092F30681E024C0FF
S1133BD0DC0156968C9156978F3F19F488E75696D8
S1133BE08C93D7011896ED91FC91199798014C2F5D
S1133BF064E1C701099510C01092F30681E00CC07E
S1133C008091F306882319F0C7010E94E61C1092E4
S1133C10F30681E001C080E0CF911F910F91FF90E6
S1133C20EF900895FC0171836083FB012289FC01FC
S1133C30248B0895CF93DF93EC01EA85FB8520E084
S1133C4030E040E068E20995EE81FF8120E030E059
S1133C5040E064E1CE01099541E06BE4CE010E94AD
S1133C604E1FE881F981448169E2CE010E944E1F12
S1133C7040E06BE4CE010E944E1FE881F98144814B
S1133C8069E2CE010E944E1F41E06BE4CE010E9426
S1133C904E1FE881F981458169E2CE010E944E1FE1
S1133CA0DF91CF9108950F931F93CF93DF9300D0AB
S1133CB000D01F92CDB7DEB76C834D832B831A835C
S1133CC00983DC011496ED91FC9115979E012F5FF9
S1133CD03F4F41E06FE009950F900F900F900F90C8
S1133CE00F90DF91CF911F910F910895DC011496ED
S1133CF0ED91FC91159720E030E040E069E00995F2
S1133D000895DC011496ED91FC91159720E030E0C4
S1133D1040E06AE009950895462FDC011496ED9180
S1133D20FC91159720E030E06BE009950895DC01E3
S1133D301496ED91FC91159720E030E040E060E1AD
S1133D4009950895EF92FF920F931F93CF93DF93FA
S1133D508C01C42F79016D30B9F018F46B3031F057
S1133D6072C06E3069F16F30D1F16DC0411106C07F
S1133D706AE872E00E94451D81E066C065E872E071
S1133D800E94451D81E060C041110DC06EE772E0E4
S1133D900E94451DD801ED91FC911197828954969A
S1133DA08C9381E051C067E772E00E94451DD80101
S1133DB0ED91FC911197838954968C9381E044C0D2
S1133DC00E942F1D61E8C8010E940F1D6C2FC801BD
S1133DD00E941A1DC8010E943A1D81E035C00E944C
S1133DE02F1DF701D381DD0FDD0FDD0FD8015496B0
S1133DF08C91D80F60E4C8010E940F1D6D2F62954D
S1133E006F706061C8010E940F1D6D2F6F70C80133
S1133E100E941A1DF7016481606BC8010E941A1D7B
S1133E20D7014D915C91119712966C91660F660FB4
S1133E30660FC8010E94251DC15091F7C8010E9458
S1133E403A1D81E001C080E0DF91CF911F910F9175
S1133E50FF90EF9008950F931F93CF938C01C62F7B
S1133E600E94A21E811115C0C93061F0CA3091F4BC
S1133E70C8010E941A1E6FE872E0C8010E94451D25
S1133E8081E008C06FE572E0C8010E94121E81E063
S1133E9001C081E0CF911F910F910895DC011A9622
S1133EA0ED91FC911B9720E030E00995089580E0A6
S1133EB00895FC011182108287E59FE19583848334
S1133EC0978386839187808793878287158A108E4C
S1133ED014861586168617868FEF868B828F089533
S1133EE0AF92BF92CF92DF92EF92FF920F931F9304
S1133EF0CF93DF93EC015B016A0179010E94591FA2
S1133F00BD82AC82DF82CE82F986E8861B870A876F
S1133F10CE010E94761EDF91CF911F910F91FF90E9
S1133F20EF90DF90CF90BF90AF9008955058BB278B
S1133F30AA270E94AE1F0C94FF200E94F12038F0A3
S1133F400E94F82020F039F49F3F19F426F40C94D1
S1133F50EE200EF4E095E7FB0C94E820E92F0E9494
S1133F60102158F3BA17620773078407950720F0E6
S1133F7079F4A6F50C9432210EF4E0950B2EBA2FA9
S1133F80A02D0B01B90190010C01CA01A00111245B
S1133F90FF27591B99F0593F50F4503E68F11A1607
S1133FA0F040A22F232F342F4427585FF3CF469598
S1133FB037952795A795F0405395C9F77EF41F16BA
S1133FC0BA0B620B730B840BBAF09150A1F0FF0F84
S1133FD0BB1F661F771F881FC2F70EC0BA0F621F70
S1133FE0731F841F48F4879577956795B795F79560
S1133FF09E3F08F0B0CF9395880F08F09927EE0FF5
S11340009795879508950E9417200C94FF200E948D
S1134010F82058F00E94F12040F029F45F3F29F085
S11340200C94E82051110C9433210C94EE200E943E
S1134030102168F39923B1F3552391F3951B550B84
S1134040BB27AA2762177307840738F09F5F5F4F67
S1134050220F331F441FAA1FA9F335D00E2E3AF0A6
S1134060E0E832D091505040E695001CCAF72BD0BE
S1134070FE2F29D0660F771F881FBB1F261737070F
S11340804807AB07B0E809F0BB0B802DBF01FF2741
S113409093585F4F3AF09E3F510578F00C94E82016
S11340A00C9433215F3FE4F3983ED4F386957795DF
S11340B06795B795F7959F5FC9F7880F911D9695FA
S11340C0879597F90895E1E0660F771F881FBB1F56
S11340D0621773078407BA0720F0621B730B840B03
S11340E0BA0BEE1F88F7E09508950E947C2068942F
S11340F0B1110C94332108950E94182188F09F5720
S113410098F0B92F9927B751B0F0E1F0660F771FF7
S1134110881F991F1AF0BA95C9F714C0B13091F0ED
S11341200E943221B1E008950C943221672F782F38
S11341308827B85F39F0B93FCCF3869577956795B2
S1134140B395D9F73EF490958095709561957F4F1E
S11341508F4F9F4F0895E89409C097FB3EF49095C4
S11341608095709561957F4F8F4F9F4F9923A9F04C
S1134170F92F96E9BB279395F695879577956795DB
S1134180B795F111F8CFFAF4BB0F11F460FF1BC01F
S11341906F5F7F4F8F4F9F4F16C0882311F096E9B2
S11341A011C0772321F09EE8872F762F05C0662360
S11341B071F096E8862F70E060E02AF09A95660F19
S11341C0771F881FDAF7880F9695879597F90895D2
S11341D097F99F6780E870E060E008959FEF80ECB6
S11341E0089500240A941616170618060906089559
S11341F000240A9412161306140605060895092EBF
S11342000394000C11F4882352F0BB0F40F4BF2B2D
S113421011F460FF04C06F5F7F4F8F4F9F4F08956D
S113422057FD9058440F551F59F05F3F71F0479563
S1134230880F97FB991F61F09F3F79F08795089548
S1134240121613061406551FF2CF4695F1DF08C067
S1134250161617061806991FF1CF86957105610584
S113426008940895E894BB2766277727CB0197F92C
S113427008950E944C210C94FF200E94F12038F0F4
S11342800E94F82020F0952311F00C94E8200C945F
S1134290EE2011240C9433210E94102170F3959F79
S11342A0C1F3950F50E0551F629FF001729FBB2729
S11342B0F00DB11D639FAA27F00DB11DAA1F649FC5
S11342C06627B00DA11D661F829F2227B00DA11D78
S11342D0621F739FB00DA11D621F839FA00D611DFE
S11342E0221F749F3327A00D611D231F849F600D1F
S11342F0211D822F762F6A2F11249F5750409AF048
S1134300F1F088234AF0EE0FFF1FBB1F661F771FD3
S1134310881F91505040A9F79E3F510580F00C949E
S1134320E8200C9433215F3FE4F3983ED4F3869560
S113433077956795B795F795E7959F5FC1F7FE2B3E
S1134340880F911D9695879597F90895A1E21A2EE5
S1134350AA1BBB1BFD010DC0AA1FBB1FEE1FFF1F25
S1134360A217B307E407F50720F0A21BB30BE40B75
S1134370F50B661F771F881F991F1A9469F76095BC
S11343807095809590959B01AC01BD01CF01089576
S1134390A29FB001B39FC001A39F700D811D112482
S11343A0911DB29F700D811D1124911D0895DC0192
S11343B001C06D9341505040E0F70895FB01DC01CA
S11343C00D900020E9F7119701900D920020E1F77C
S11343D00895BB274A3031F4992322F4BDE2909525
S11343E081959F4F0C94F521BB27FB015527AA27E4
S11343F0880F991FAA1FA41710F0A41B839550516E
S1134400B9F7A05DAA3308F0A95DA193009779F7E5
S1134410B111B1931192CB010C940E22DC01FC0179
S1134420672F71917723E1F7329704C07C916D93E4
S113443070836291AE17BF07C8F30895F894FFCF55
S1134440000002000500070008000A00160005002D
S1134450FFFF0000404000005C4201EC01F901064E
S113446002130220022D02320238024002015301DB
S11344706701780189015072657373202253656C5A
S1134480656374220020746F20636F6E74696E75A7
S11344906521005350454349414C205448414E4BFB
S11344A05320544F203A004272616D202C205769EA
S11344B06C6C69616D2C2000416E746F6E69732C95
S11344C020436F726E652C20005961736D696E65AF
S11344D02C204164696C004E6F20636F6E74656EAE
S11344E0742079657421004D6F64653A2000446935
S11344F072656374696F6E3A3E20002D3E20006B36
S11345006D2F680064656700636D005370656564B2
S11345103A3E20200044697374616E63653A3E201C
S11345200072756E54696D653A3E20004D6F646586
S11345303A3E20202020202000536F6D6574686966
S11345406E673A3E200074657374313A3E20202031
S113455020200074657374323A3E2020202020000D
S113456074657374333A3E20202020200044617423
S113457061004D6F64657300436F6D706173730008
S113458053657474696E677300BF01C401C801F890
S113459001CB01AE01D501E101B31BE31BEF1B000D
S11345A001140A6464323200127A0000042896105E
S11345B0080000800040001815A015C019FF181548
S11345C0A115C819FF1815AE19FF1815AF19FF1852
S11345D015AE15D5168015A8163F15D3160015402F
S11345E0158D16141520160015A115C815DA161206
S11345F0158116CF15D916F115DB1640152E15A405
S107460015A619FFDF
S9030000FC
