:100000000C9482070C949F070C949F070C94B108E2
:100010000C949F070C94FC090C949F070C949F0769
:100020000C949F070C949F070C949F070C949F07B8
:100030000C949F070C949F070C949F070C94E00C62
:100040000C949F070C949F070C949F070C949F0798
:100050000C949F070C949F070C949F070C949F0788
:100060000C949F070C949F07084AD73B3BCE016E28
:1000700084BCBFFDC12F3D6C74319ABD56833DDAFF
:100080003D00C77F11BED9E4BB4C3E916BAAAABE0E
:10009000000000803F00BF000302030403050406C4
:1000A0000A00FE07FE07000142028807C42005007F
:1000B000620721073943C7A00422079B5247620900
:1000C000230E3D424F294906A53228A52401240CC0
:1000D0003D4257B6D4B624D92200250C3D424FA448
:1000E00074ABB4480900260D3D424F964449564929
:1000F000A4480927061953C7002808BB425752AA2B
:10010000152909BB424756AA94002A0A2D4647964C
:100110005406A52D2B0A2D4657180D5218012C07F1
:100120009B3E8F52022D060D4EC7202E089B3E4F40
:10013000B224002F083D4267AD6308300B3D4257A3
:1001400096D46C492D02310A3D4257262561D320B1
:10015000320C3D42CF92859194858300330C3D4211
:10016000C7206699AA250B00340C3D425F2625A5C1
:1001700064D0C204350B3D42C73131855AB20036D6
:100180000C3D4297948589494B1600370B3D42C779
:1001900020666156CC00380C3D42CF9269C9926905
:1001A000C902390C3D42CF92498A126691043A0A3B
:1001B000BB3E4FB2A4C992003B09BB3E4FB2A44A1A
:1001C000093C08BC425FD4D8003D081D4AC7A00EB8
:1001D000023E08BC4247D8D4063F0A3D42CF923582
:1001E000E65004400C3D42CF92494B624917004112
:1001F0000C3D425796D4B461C8B400420D3D42C78D
:100200001055A264AA448302430A3D42CF92896DED
:10021000C902440F3D42C71055A2244AA2241A1411
:1002200000450B3D42C7311C92301C04460A3D423A
:10023000C7311C92B008470B3D42CF9289A52D597A
:1002400000480A3D4247661B86CC164908BB42C798
:100250001275194A0A3D42D716B64491044B0D3D1A
:1002600042472625252D892A59004C083D4247D86A
:10027000E3204D0B3D4247A62D4BA2D9024E0C3D2B
:100280004247A64D4A226D5A004F0A3D42CF92790D
:100290004B1600500C3D42C79064DAA084450051D3
:1002A0000A453ECF9279A9AC01520D3D42C79064F8
:1002B000DAA0942A5900530B3D42CF92A9AB962C59
:1002C0000054093D42C720853D0155093D4247E69E
:1002D0005BB200560D3D4247664B4A49946411009B
:1002E000570A3D4247E69228C92D580B3D4247A682
:1002F00025B54A4D0B590A3D4247A625B5B0095AC6
:100300000A3D42C720661D07015B08BB42C7107546
:100310001A5C083D424798760C5D08BB42C7D46919
:10032000085E081D525796D4025F060D3EC7206036
:1003300006125B4714610A2D42CF9A0C5A320462AE
:100340000B3D424758316993A200630A2D42CF9278
:100350008959B200640A3D4267C5B4498A12650AE8
:100360002D42CF920D43BA00660B3D429754C98689
:1003700028AC01670C3D3ACFA069C9106AC9026870
:100380000A3D4247583169B6006908BB424F28B55B
:100390000C6A0BCC3A5FACD5242951006B0B3D4263
:1003A00047589392A992056C08BB4287D4CB006D45
:1003B0000B2D4287D2A2244AA2056E092D42476224
:1003C000D26C016F092D42CF92D99205700C3D3A43
:1003D0004762D22645094300710A3D3A8F6993145A
:1003E000252C72092D424762128B0073092D42CFD2
:1003F000921E1400740C3D424F980D51588A1400FF
:1004000075092D4247E6A42801760B2D4247A62503
:10041000A5248B00770A2D42476649942E00780A5E
:100420002D424796D42AB500790C3D3A476652943E
:10043000504B16007A092D42C7A0B50D027B0ABCAD
:100440004297122662140A7C063943C7217D0BBCF1
:10045000428718854A9848007E091D524FA42452AD
:1004600002A005006207A1073943473208A20E3DEA
:100470003E573628511225D9104500A30C3D42970E
:1004800054C9B630521400A40B2D4247964C49B4BF
:100490006401A50D453E47A625B56890C21200A689
:1004A000063943C732A70B453ECF124E9DC66401A5
:1004B000A8068B5E4712A90D3D42CF9229C9A424FC
:1004C0005AB200AA0AB446CF10294A7108AB0C2EC2
:1004D0004257254AA22CCAA200AC07944AC79005ED
:1004E000AD068C4EC710AE0C3D42CF920DC934699B
:1004F000C902AF060D5EC720B0079B524F1700B16F
:100500000B354257180D52180D02B209AC4E8F121E
:10051000350D01B309AC4EC798884302B406125B8F
:100520008F02B50A353E47669B142504B60F3D423F
:10053000CF30244392285112255112B706094F4754
:1005400000B806123B8F02B908AB4E4F225506BACF
:100550000AB4468F1249893A04BB0D2E424794458E
:10056000599444491401BC0D4E3E4FA816A7504B58
:10057000A2210DBD0C4E3E4FA816973049C370BE48
:100580000E4D3E879AA591944949328401BF0A3D98
:1005900042570E8559CB02C00C45424F9A2D9936D1
:1005A0000C9916C10C45425F6DC9B461C8B400C254
:1005B0000D45425796444BA60D43A605C30D454233
:1005C0004FA4484BA60D43A605C40C45424F1D58E9
:1005D000326D18322DC50D45425796444BA60D433A
:1005E000A605C60C3E42D790949A86216A1AC70B7C
:1005F0004D3ACF92896DC95603C80C45424F368C8F
:10060000E19084E120C90C45425F328CE19084E1A5
:1006100020CA0C454257348CE19084E120CB0C4534
:10062000424F6518C32109C341CC0AC34247962CE7
:1006300051CB00CD0AC34257922C51CB00CE0AC3F6
:10064000424F6548A29601CF0AC34247922D51CB33
:1006500000D00E3D42C71055A2212925D1A000D1BE
:100660000C454257D26D521269D302D20B45424F0C
:100670009A2D995BB200D30A45425F6DC9DC9205A1
:10068000D40C45425796444BE6962C00D50B454278
:1006900057D2B4646EC902D60B45424F1D5832B7CB
:1006A0006401D70A2D424796D42AB500D80C3D42A2
:1006B000CF125D92694A1600D90A45424F1A65DE8B
:1006C0009205DA0A45425F29F3962C00DB0B45427E
:1006D0005796C4995BB200DC0A45424F39F3962C19
:1006E00000DD0B45425F29D3925A5802DE0C3D4291
:1006F000473824D9A0844500DF0D3D42CF924949B7
:10070000A992290A00E00C45424F9A236B3268C92E
:1007100010E10C45425F1D5993414B8600E20D45A7
:10072000425796E4C09A0C5A3204E30D454257D220
:100730000EACC9A0254300E40C3D424F1D58934127
:100740004B8600E50D4542579664D99A0C5A3204FF
:10075000E60C2E42CF1026C930658300E70B3D3AE8
:10076000CF928959B2D500E80C45424F9A234B36B7
:100770000CE902E90C45425F1D59B261481700EAD5
:100780000D45425796E4C0920D43BA00EB0C3D4232
:100790004F1D58B261481700EC09C34247164A2D55
:1007A00003ED08C3424F556A19EE08C3424F9BD46C
:1007B00032EF09BB424792492D03F00B3D42872A95
:1007C0002D992D5900F10B454257D29C98345B006E
:1007D000F20C45424F9A234B664B1600F30B4542F1
:1007E0005F1D59325BB200F40C45425796E4C0924B
:1007F000D99205F50C454257D20E2C992D5900F689
:100800000B3D424F1D58325BB200F70A2D46570E82
:100810000C3A1001F80B2D42CF202DC9342800F9D5
:100820000B45424F9A039993A204FA0A45425F1D71
:10083000C89C1425FB0B45425796C49993A204FC0F
:100840000A3D424F3973529400FD0D4D3A5F2933F2
:10085000294AA8250B00FE0C453A473824996D50CB
:10086000C210FF0D4D3A4F3933294AA8250B00001D
:10087000000004FFFF0000BF0002020303030404A2
:10088000050700FF06FF06000112022F0670200573
:1008900000BD012106B1B1192922075BB7495600F5
:1008A000230A2DB1AB86AA86AA00240A2DB15B3596
:1008B000D820A505250934B1C920F6060126092C42
:1008C000B18B29563105270599B719280772B153FD
:1008D000CD00290872B189A952002A076BB149D508
:1008E0006A2B0A2DB1CD280E9951042C075BAF530A
:1008F00025002D060CB519012E0652B119012F073E
:1009000024B307B10D300873B1AB5C150031077328
:10091000B14BB235320A34B1533183588E00330BA8
:1009200034B11919248D645200340A34B18DAA1AD5
:10093000318304350A34B1191A6C249302360A340F
:10094000B15319AC289302370B34B11919C40C6296
:100950000611380A34B15331A9289302390A34B147
:100960005351A60D92023A076AB11971043B08333C
:10097000AFB3912A013C086BB14D35C8203D081C2E
:10098000B319198D003E096BB1C9208354023F0988
:1009900073B16BA60C1300400934B15351DD48010B
:1009A000410934B153518E2903420A34B15971A41B
:1009B000284702430B34B15351830C62520044095F
:1009C00034B159D1391200450B34B1191AAC0C327B
:1009D0001801460B34B1191AAC0C32C800470A345E
:1009E000B153518334D300480834B189724C334930
:1009F0000773B159B1354A0B34B107196490814C72
:100A00000A4B0A34B1892A4999CA004C0C34B1C93D
:100A100020830C32C860044D0934B189E388660034
:100A20004E0834B1896BA9334F0934B153D19914AD
:100A300000500A34B159518E944106510A3CAF53CB
:100A4000D15C49A300520934B159518ED40C530AD8
:100A500034B1533165542605540773B159B10B5560
:100A60000834B1899E4901560934B189CE24150054
:100A7000570934B189E6386200580A34B1893249DD
:100A8000156500590873B1495659015A0A34B1190C
:100A900019C43618015B0773B119B1395C0924B365
:100AA000C928A38C025D0773B199CD115E0553B9B6
:100AB0006B5F060CB11901600652B9890161082407
:100AC000B11B51A902620B34B1C9208315E548005E
:100AD000630723B19B1908640A34B10719A411658F
:100AE0001A650924B1536964A000660934B1ADCA1E
:100AF00099410467092CAF1B31A98C06680A34B1EF
:100B0000C9208315CD00690873B1CB4856036A0923
:100B10007BAFCDB05415006B0B34B1C92083946406
:100B20002A036C0773B1915D036D0824B1496948CC
:100B3000196E0724B159D10C6F0824B15351260501
:100B400070092CAF59518E940171092CAF1B51A61D
:100B50000D02720824B15951830C730824B11B1A79
:100B60000D05740A34B1CB20CE0C3212750724B1B6
:100B700089661A760763B1495605770724B18972E9
:100B80001C780824B18949AA1879092CAF893295B3
:100B900025007A0824B119B11C017B0873B14D49B5
:100BA000D6207C05B1B1397D0A73B1C920AA98223B
:100BB000007E0714B94B2A01A00500BD01A106B1B2
:100BC000B14923A20934AF8D23356702A3082CB1A4
:100BD00055715602A40B2DB1C920CD14570601A59D
:100BE0000973B149AA5A3101A606A9B15102A70851
:100BF0007BAF9BAA920BA8064BBB4901A90D3DAF49
:100C00005B19A83455D2202D00AA061BB75B49AB4F
:100C1000071DB38BB201AC0714B3191904AD054B12
:100C2000B519AE0C3DAF5B198C34A7066901AF0650
:100C30000CBB1901B0065BB7EB02B10B35B1CD2887
:100C40000E99511C02B20662B55106B30662B5197F
:100C500069B40652B95300B5082CAF89E64819B6F5
:100C60000834B11B6AF503B70652B51901B806522C
:100C7000AF5300B90763B54B320DBA061BB7EB0291
:100C8000BB081DB389A54C00BC0C3CAFC920830C2C
:100C900062541B04BD0D3CAFC920830C9206310386
:100CA00001BE0B3CAF911A4415D50601BF0973B1C3
:100CB000CB30C55401C00934B153518E2903C10949
:100CC00034B153518E2903C20934B153518E2903D3
:100CD000C30934B153518E2903C40A34B18949C5BB
:100CE000316500C50934B1932A8E2903C60934B190
:100CF0001BA91AAA25C70B3CAF5351830C62921152
:100D0000C80B34B1191AAC0C321801C90B34B11923
:100D10001AAC0C321801CA0B34B1191AAC0C3218C7
:100D200001CB0B34B1191AAC0C321801CC0773B1DA
:100D300059B135CD0773B159B135CE0773B159B13A
:100D400035CF0773B159B135D00934B19969758D73
:100D500004D10834B14973A933D20934B153D199BC
:100D60001400D30934B153D1991400D40934B153C8
:100D7000D1991400D50934B153D1991400D60A344D
:100D8000B1894945332900D70824B18949AA18D81F
:100D90000934B11BE9484702D90834B1899E490199
:100DA000DA0834B1899E4901DB0834B1899E4901D2
:100DB000DC0A34B1891945332900DD0873B149567D
:100DC0005901DE0B34B1C960C59132C800DF093466
:100DD000B15351955602E00A34B1CB288EA8540184
:100DE000E10934B1ADC1884A15E20934B1ADD28808
:100DF0004A15E30A34B14B2A8EA85401E40934B1F0
:100E0000ABE1884A15E50934B1937244A50AE608B6
:100E100024B11B69C501E7086BAF9B19A804E80B57
:100E200034B1CB28AA34325000E90A34B1AD814A3A
:100E3000230305EA0B34B18B29AA34325000EB0BA3
:100E400034B14999506964A000EC0873B1C920C954
:100E50006AED0773B12B6535EE0773B1AB6635EFFD
:100E60000873B14919C86AF00A34B1CBC88A32296B
:100E700000F10934B14B2AAD6806F20A34B1CB282F
:100E8000AA289302F30A34B1AD818A322900F40A08
:100E900034B1D3848A322900F50A34B14B2AAA2806
:100EA0009302F60A34B1ABA18A322900F7092CB1BA
:100EB000D37064A800F80924B11B69A49100F90952
:100EC00034B1CBA834D300FA0734B16D9A69FB086A
:100ED00034B1D3309A69FC0934B1AB5134D300FD3D
:100EE000093CAF6DCA549600FE0A34AFC96045395B
:100EF0005206FF0A3CAFAB5194A92C01000000043C
:100F0000FFFF000011241FBECFEFD8E0DEBFCDBF32
:100F100014E0A0E0B1E0E4ECF1E502C005900D9230
:100F2000A230B107D9F726E0A2E0B4E001C01D92DB
:100F3000A031B207E1F70E94780B0C94E0280C94E2
:100F4000000090933F0580933E05709345056093A4
:100F50004405219A2298249A2598EBE6F0E08081B6
:100F600084628083E8E6F0E0808181608083E1E84C
:100F7000F0E08081836080830895E4E8F0E01182EE
:100F800010822081318195B141E050E002C0440FD0
:100F9000551F8A95E2F7942B95B92E5F3F4F8081BC
:100FA000918182179307D8F385B14095482345B9BD
:100FB00008958F929F92AF92BF92CF92DF92EF925D
:100FC000FF92CF93DF93C0905205D0905305E090ED
:100FD0005405F090550520E030E040EA51E4C701A7
:100FE000B6010E945B2618160CF44BC08090560583
:100FF00090905705A0905805B0905905A50194010F
:10100000C701B6010E945B261816DCF1A701960104
:10101000C501B4010E94BF25609346057093470542
:10102000809348059093490523E333E343ED50E46F
:101030000E94602660934E0570934F058093500583
:10104000909351050E942C2660934A0570934B059E
:1010500080934C0590934D0520E030E044E353E449
:101060000E94EE2723EC35EF48E450E40E9460260E
:10107000609340057093410580934205909343052A
:1010800055C08090560590905705A0905805B09097
:10109000590520E030E040EA51E4C501B4010E9466
:1010A0005B2618160CF442C0A5019401C701B601D5
:1010B0000E94E1278823D4F1A5019401C701B6015C
:1010C0000E94BF25609346057093470580934805AD
:1010D0009093490523E333E343ED50E40E946026F7
:1010E00060934E0570934F05809350059093510582
:1010F0000E942C2660934A0570934B0580934C0503
:1011000090934D0520E030E044E353E40E94EE2745
:1011100023EC35EF48E450E40E94602660934005DC
:10112000709341058093420590934305C091440517
:10113000D09145056091400570914105809142052F
:10114000909143050E94D22679836883DF91CF91E5
:10115000FF90EF90DF90CF90BF90AF909F908F90D7
:1011600008951F920F920FB60F9211240F931F93A1
:101170002F933F934F935F936F937F938F939F939F
:10118000AF93BF93CF93DF93EF93FF9383B190E03F
:101190008F779093090480930804892B41F4809100
:1011A00006049091070490930904809308048091A9
:1011B0000804909109048130910509F473C01CF46E
:1011C000009749F0D7C08430910529F0803291050D
:1011D00009F468C0CFC02091040430910504232B8A
:1011E000C1F41092070410920604E4E8F0E01182C2
:1011F00010828081918190931304809312048091D6
:1012000004049091050401969093050480930404CE
:10121000B1C02FEF3FEF3093070420930604609195
:1012200084007091850070931104609310042091E4
:10123000120430911304621B730B8B01072E000CF8
:10124000220B330B00930C0410930D0420930E0417
:1012500030930F04660F771F660F771F70930B0490
:1012600060930A04880F991F880F991FEC01CE5ACA
:10127000DA4F80E090E00E94082720E030E048E666
:1012800052E40E94602626E636E646EE5FE30E94C0
:10129000C025688379838A839B831092050410920A
:1012A000040468C02091020430910304232BD1F47C
:1012B00081E090E09093070480930604E4E8F0E076
:1012C0001182108280819181909313048093120483
:1012D00080910204909103040196909303048093FB
:1012E000020448C02EEF3FEF30930704209306041A
:1012F00060918400709185007093110460931004D4
:101300002091120430911304621B730B8B01072E82
:10131000000C220B330B00930C0410930D0420934C
:101320000E0430930F04660F771F660F771F7093BC
:101330000B0460930A04880F991F880F991FEC0112
:10134000CE5ADA4F80E090E00E94082720E030E09B
:1013500048E652E40E94602626E636E646EE5FE363
:101360000E94C025688379838A839B83109203043B
:1013700010920204C0913E05D0913F0502E515E0B0
:10138000F80160817181828193810E94D2267983E4
:101390006883C0913E05D0913F05F8016481758155
:1013A000868197810E94D22628813981620F731F1E
:1013B00079836883E0913E05F0913F0580819181BA
:1013C00099230CF401969595879591838083FF91DD
:1013D000EF91DF91CF91BF91AF919F918F917F91CD
:1013E0006F915F914F913F912F911F910F910F90AE
:1013F0000FBE0F901F9018951F920F920FB60F926D
:1014000011242F933F934F935F936F937F938F9309
:101410009F93AF93BF93EF93FF93CF93DF93CDB79A
:10142000DEB72A97DEBFCDBF489909C0CE0101962D
:101430000E94A923CE0101960E94D12323C04C997A
:1014400007C084E090E090935B0580935A051AC032
:101450004D9907C085E090E090935B0580935A0515
:1014600011C04E9907C086E090E090935B05809391
:101470005A0508C04F9906C087E090E090935B053D
:1014800080935A052A960FB6F894DEBF0FBECDBFE3
:10149000DF91CF91FF91EF91BF91AF919F918F918C
:1014A0007F916F915F914F913F912F910F900FBE60
:1014B0000F901F9018950F931F9300E214E02AE0FD
:1014C00031E042E254E062E071E080E091E00E94AD
:1014D0005E0C90931F0480931E040E94C70C0E9410
:1014E000960E6CE174E08AE194E00E94CD0C0E94BB
:1014F000C00D1F910F9108958091240490912504AF
:1015000099230CF45EC00E94500C809124049091A9
:10151000250440912204509123049C01240F351F7F
:10152000B9013093190420931804841B950B2AF4F5
:1015300010921704109216040EC08F3F91052CF4E0
:10154000909317048093160406C08FEF90E0909359
:1015500017048093160433232CF41092190410926C
:1015600018041AC02F3F31054CF08FEF90E0909394
:101570001904809318046FEF70E003C06B3071059D
:1015800058F080910601909107016817790720F4BF
:101590009093190480931804809116049091170475
:1015A0008B30910508F46BC0209106013091070142
:1015B0008217930708F063C0309317042093160432
:1015C0005EC00E945A0C40912204509123048091E5
:1015D0002404909125049A01281B390BB9013093FA
:1015E000190420931804919581959109841B950BFA
:1015F0002AF410921704109216040EC08F3F910522
:101600002CF4909317048093160406C08FEF90E09B
:10161000909317048093160433232CF4109219042A
:10162000109218041AC02F3F31054CF08FEF90E054
:1016300090931904809318046FEF70E003C06B302F
:10164000710558F08091060190910701681779079C
:1016500020F49093190480931804809116049091BB
:1016600017048B30910558F0209106013091070145
:101670008217930720F43093170420931604809167
:1016800018040E944A0C809116040E944D0C089583
:10169000809184009091850088399A4388F08091E8
:1016A000140490911504892B59F484E090E00E9471
:1016B000BD0781E090E0909315048093140415C059
:1016C000809184009091850088399A4370F08091D0
:1016D000140490911504019741F481E090E00E9478
:1016E000BD0710921504109214040E94D9070895A2
:1016F00042E254E064E274E080E091E00E947C23E6
:101700000E945B0A60E274E08AE091E00E94A10717
:101710000E94540C7894C0E0D1E00E9494150E947D
:10172000480B888199818130910509F06EC02FEFB7
:1017300083E294EF215080409040E1F700C0000028
:101740008E819F8190932504809324040E947C0ABB
:101750002FEF8DE399E4215080409040E1F700C0E5
:10176000000010922504109224048E819F81889697
:1017700090932304809322040E947C0A2FEF81E03F
:1017800093E5215080409040E1F700C000008E8139
:101790009F819195819591099093250480932404CC
:1017A0000E947C0A2FEF83ED90E32150804090400F
:1017B000E1F700C0000010922504109224048E81ED
:1017C0009F81889690932304809322040E947C0A30
:1017D0002FEF83ED90E3215080409040E1F700C06F
:1017E00000008E819F8190932504809324040E94A1
:1017F0007C0A2FEF8DE399E4215080409040E1F77F
:1018000000C000001982188288CF029741F58E81AE
:101810009F8190932504809324040E947C0A2FEFDB
:1018200087EA91E6215080409040E1F700C0000037
:101830008E819F8191958195910990932504809344
:1018400024040E947C0A198218822FEF87EA91E60D
:10185000215080409040E1F700C000005ECF0E9420
:101860007C0A5BCF882331F0E0EBF0E08081836F6E
:10187000808305C0E0EBF0E08081836A8083E1EB48
:10188000F0E0808184608083239A539A87B18360DB
:1018900087B908958093B30008958093B4000895A4
:1018A00088B1836088B9089580E00E94320C0E945C
:1018B000500C089588B18C7F88B908950F931F93B9
:1018C00090936D0580936C051093060600930506B2
:1018D00070936F0560936E055093F3054093F20586
:1018E0003093EF052093EE0526E330E24BEF5FE106
:1018F00060E672E08EE795E00E948A1988E780939F
:1019000094058EE795E00E94332260E08EE795E033
:101910000E943E2220910E0130910F014091100152
:101920005091110160911201709113018091140185
:10193000909115010E94602660931201709313012B
:10194000809314019093150166E970E08EE795E0AD
:101950000E94CC1D8091CE058093E3058091CD053A
:1019600080935C0560E08EE795E00E94E91DE6EF5C
:10197000F5E084E0818385E08583E4EEF5E093E0A3
:10198000918385838BE394E01F910F910895E1E6A5
:10199000F0E080E880831082089590937105809331
:1019A000700570937D0560937C0585B5836085BD6A
:1019B000EEE6F0E08081846080838AEF88BD089540
:1019C0001F920F920FB60F9211242F933F934F93B4
:1019D0005F938F939F93EF93FF938091F405909182
:1019E000F50580362AEE9207B8F08CEB90E09093E4
:1019F000F5058093F4058091F0059091F10501962D
:101A00009093F1058093F0051092360410923504FE
:101A100081E080933C0418C0209135043091360455
:101A2000A9014F5F5F4F5093360440933504283C23
:101A3000324354F08F5C9E4F9093F5058093F405EC
:101A400010923604109235048091F4059091F505BA
:101A500001969093F5058093F405E0917C05F09153
:101A60007D0591838083E0917005F09171058091EF
:101A7000F0059091F10591838083FF91EF919F9103
:101A80008F915F914F913F912F910F900FBE0F90CB
:101A90001F901895EF92FF920F931F93CF93DF93B0
:101AA00000D01F92CDB7DEB78C017B01FC01108204
:101AB00019821A821B824AE0BE016F5F7F4F8091BC
:101AC000F0059091F1050E94AB288091F00590916E
:101AD000F1050A9748F4F80101900020E9F73197E1
:101AE00080E390E091838083BE016F5F7F4FC801E8
:101AF0000E9497282091F4053091F5053695279599
:101B00003695279536952795A5ECB0E20E94812859
:101B10004AE0BE016F5F7F4F929582958F70892753
:101B20009F7089270E94AB28F80101900020E9F7F7
:101B300031978AE390E091838083EA94EF28B1F4AF
:101B40008091F4059091F5058031974248F4F801B1
:101B500001900020E9F7319780E390E09183808342
:101B6000BE016F5F7F4FC8010E9497280F900F90B2
:101B70000F90DF91CF911F910F91FF90EF900895FB
:101B8000ECE7F0E0808182648083EAE7F0E0808126
:101B9000876E8083089580917800909179000895F0
:101BA000CF93DF9320913B04022E000C330BF901FD
:101BB000E35AFA4F9081980F90834091070644238F
:101BC00009F45AC0F901EA50FA4FE0814E2F0E2E67
:101BD000000C550B41505109692F092E000C770B51
:101BE000461757074CF4F901E35AFA4F1082F901EE
:101BF000EE58FA4F108211C099237CF4D901A35AF0
:101C0000BA4F9FEF9E0F9C93D901AE58BA4FE9018E
:101C1000CC51DA4F98819E1B9C93F901E35AFA4FFD
:101C20006081062E000C770BF901EE58FA4F908177
:101C3000F901EC51FA4F4081042E000C550B491B61
:101C4000510997FD5395641775072CF0F901EE586B
:101C5000FA4F981B9083F901EE58FA4F9081E92FC3
:101C6000FF27E1950CF4F0956E177F072CF4F9012E
:101C7000EE58FA4F981B9083DF91CF910895811110
:101C800015C080910C0190910D018330910544F5B0
:101C9000019690930D0180930C01880F991FFC0110
:101CA000E35DFB4F718360838FEF089580910C019A
:101CB00090910D01181619063CF0880F991FFC0130
:101CC000E35DFB4F80810895019790930D01809310
:101CD0000C01880F991FFC01E35DFB4F8081089583
:101CE0008FEF0895809107068823F9F080913B04D7
:101CF000813031F480915E058E5F80933B040DC08E
:101D0000811104C081E080933B0407C0853029F431
:101D1000809162058A5F80933B0460913B04062EAC
:101D2000000C770B80E00E943F0E08958AB18F70FF
:101D30008AB98BB1806F8BB99BB185B198130BC0F9
:101D4000E8E6F0E0808181608083EBE6F0E080816E
:101D5000806F80831DC09BB188B198130BC0E8E6EB
:101D6000F0E0808182608083ECE6F0E08081806F2B
:101D700080830EC09BB18BB198130AC0E8E6F0E0F7
:101D8000808184608083EDE6F0E08081806F8083D5
:101D90002FEF83EC99E0215080409040E1F700C0A4
:101DA0000000089580915A0590915B05853091055A
:101DB00019F11CF4049759F108958630910519F032
:101DC000079781F0089560E070E081E00E943F0E87
:101DD00080933B0481E08093290110925B0510926F
:101DE0005A0508950E94720E81E080932901109295
:101DF0005B0510925A0508958FEF0E94D00D81E087
:101E00008093290110925B0510925A05089581E094
:101E10000E94D00D81E08093290110925B05109201
:101E20005A0508952F923F924F925F926F927F9240
:101E30008F929F92AF92BF92CF92DF92EF920F93C9
:101E4000CF93DF9300D000D0CDB7DEB781E0809391
:101E500007060F2EF1E2CF2EF1E0DF2EF02D1C82CF
:101E60001B82E0913B040E2E000CFF0BE35AFA4F4D
:101E70008081082E000C990B2B813C8182179307DF
:101E800009F09DC040901201509013016090140120
:101E900070901501B901330F880B990B0E940A2726
:101EA000A30192010E94EE2720E030E040E151E4DE
:101EB0000E94C0254B015C0160917305062E000C49
:101EC000770B880B990B0E940A27A30192010E94AD
:101ED000EE279B01AC01C501B4010E94C0250E9400
:101EE000D2264B015C01693071050CF4D6C02091FB
:101EF000390430913A042F5F3F4F002436952795DF
:101F00000794369527950794322F202DABEABAEA2D
:101F10000E948128969587951C01EFE32E0E311CB7
:101F200020E030E040E050E4C301B2010E94BF2550
:101F30000E94D226562E472E310133201CF4FFEF8B
:101F40006F1A7F0A7594679461E08EE795E00E94AE
:101F50008B1E20E430E0261937093A8329830F2E9F
:101F6000F3E0EF2EF02D052D222D482D69818EE70F
:101F700095E00E94931660E08EE795E00E948B1E2C
:101F8000452D542D552314F44F5F5F4F55954795BC
:101F90004D5F742E780C3981630EF60140805180BC
:101FA000B2018EE795E00E94E11D8695662D681BC3
:101FB0009201472D8EE795E00E94791D6EC04090FA
:101FC00012015090130160901401709015012B8143
:101FD0003C81B901330F880B990B0E940A27A3019A
:101FE00092010E94EE2720E030E040E151E40E949F
:101FF000C0254B015C0160917305062E000C770B28
:10200000880B990B0E940A27A30192010E94EE27D8
:102010009B01AC01C501B4010E94C0250E94D226DB
:102020004B015C0169307105C4F120E030E040E013
:1020300050E4C301B2010E94BF250E94D226762E31
:10204000672E61E08EE795E00E948B1E0F2EF3E075
:10205000EF2EF02D072D20E4482D60E28EE795E06D
:102060000E940717872D962D99230CF401969595BC
:1020700087958D5F782E780CF60140805180B201F3
:102080008EE795E00E94E11D869560E4681B920151
:10209000472D8EE795E00E94791D2B813C812F5FB3
:1020A0003F4F3C832B8332E0C30ED11C8B819C813C
:1020B000059709F0D6CE8091390490913A04823088
:1020C000910530F4019690933A048093390406C048
:1020D00010923A0410923904109229010F900F9037
:1020E0000F900F90DF91CF910F91EF90DF90CF90F5
:1020F000BF90AF909F908F907F906F905F904F9028
:102100003F902F9008952F923F924F925F926F923F
:102110007F928F929F92AF92BF92CF92DF92EF9277
:102120000F931F93CF93DF9300D000D000D0CDB793
:10213000DEB781E080930706609112017091130170
:1021400080911401909115010E94D2264B017723B2
:102150001CF42FEF821A920A9594879433E0830E31
:10216000911C1B01E2E02E1A31080F2EF1E2CF2E56
:10217000F1E0DF2EF02D1E821D820F2EF2E7AF2E32
:10218000F5E0BF2EF02D10E4E0913B040E2E000C84
:10219000FF0BE35AFA4F8081082E000C990B2D811A
:1021A0003E818217930709F062C04090120150905F
:1021B00013016090140170901501B901330F880B61
:1021C000990B0E940A27A30192010E94EE2720E0AA
:1021D00030E040E151E40E94C02569837A838B831B
:1021E0009C83F5016181062E000C770B880B990BFF
:1021F0000E940A27A30192010E94EE279B01AC01D5
:1022000069817A818B819C810E94C0250E94D2269F
:102210002B013C01693071050CF486C061E08EE74A
:1022200095E00E948B1E0F2EF3E0EF2EF02D022D75
:1022300020E8442D60E08EE795E00E94931660E070
:102240008EE795E00E948B1E480CF601608071803D
:10225000B3018EE795E00E94E11D8695612F681B12
:102260009301442D8EE795E00E94791D5DC040905A
:1022700012015090130160901401709015012D818E
:102280003E81B901330F880B990B0E940A27A301E5
:1022900092010E94EE2720E030E040E151E40E94EC
:1022A000C02569837A838B839C83F5016181062E27
:1022B000000C770B880B990B0E940A27A30192014F
:1022C0000E94EE279B01AC0169817A818B819C8100
:1022D0000E94C0250E94D2262B013C016930710565
:1022E0001CF161E08EE795E00E948B1E0F2EF3E05B
:1022F000EF2EF02D022D20E8442D60E08EE795E0D2
:102300000E940717480CF60160807180B3018EE7C8
:1023100095E00E94E11D8695612F681B9301442D75
:102320008EE795E00E94791D2D813E812F5F3F4F02
:102330003E832D8332E0C30ED11C8D819E81059793
:1023400009F022CF1092290126960FB6F894DEBF2D
:102350000FBECDBFDF91CF911F910F91EF90DF9016
:10236000CF90BF90AF909F908F907F906F905F9035
:102370004F903F902F900895EF92FF921F93CF932D
:10238000DF93CDB7DEB728970FB6F894DEBF0FBE48
:10239000CDBF81E08093070688E0EAE2F1E0DE014C
:1023A000119601900D928A95E1F7CE0101967C017C
:1023B00011E0F701219131917F014091E305149FD4
:1023C000402D112460E08EE795E00E94791D1F5F8B
:1023D000153079F710E48091E305F12EF81A6CE3DB
:1023E00071E08EE795E00E94E11D8695612F681BE4
:1023F0002CE331E04F2D8EE795E00E94791D6BE4D0
:1024000071E08EE795E00E94E11D8695612F681BC3
:102410002BE431E040E48EE795E00E94791D1092B4
:10242000290128960FB6F894DEBF0FBECDBFDF910D
:10243000CF911F91FF90EF9008954091E305475F82
:102440002DE931E060E08EE795E00E94791D109261
:102450000706109229010895EF92FF920F931F93A0
:10246000CF93DF93CDB7DEB728970FB6F894DEBFD2
:102470000FBECDBF08E02FE040E069E38EE795E0B6
:102480000E94511604E023E042E067E48EE795E005
:102490000E9451160E94CB0D813021E0920768F412
:1024A00010923804109237043DC080913704909107
:1024B00038041816190604F135C0813022E092075D
:1024C00038F481E090E0909338048093370414C08E
:1024D000833123E0920738F482E090E0909338044F
:1024E0008093370409C081309440F8F683E090E08F
:1024F00090933804809337041BE3E12CF12C04E023
:1025000023E042E0612F8EE795E00E9429168FEFCD
:10251000E81AF80A1C5F8091370490913804E81695
:10252000F9066CF387E0EDEAF1E0DE011196019027
:102530000D928A95E1F7E0916C05F0916D054AE006
:10254000BE01685F7F4F808191810E94AB28BE01F0
:10255000685F7F4FCE0101960E94972867E778E079
:102560008EE795E00E94CC1D1091E3051350BE014B
:102570006F5F7F4F8EE795E00E94E11D60E8681B6A
:102580009E012F5F3F4F412F8EE795E00E94791DFE
:1025900067E778E08EE795E00E94CC1D60E070E090
:1025A00086E294E00E944A0D4091E305435026E202
:1025B00034E060E08EE795E00E94791D66E970E006
:1025C0008EE795E00E94CC1D28960FB6F894DEBFEA
:1025D0000FBECDBFDF91CF911F910F91FF90EF9074
:1025E00008957F928F929F92AF92BF92CF92DF9287
:1025F000EF92FF920F931F93CF93DF93CDB7DEB788
:10260000A8970FB6F894DEBF0FBECDBF1092070695
:1026100064EB71E08EE795E00E94E11D782EBE012B
:102620006F5F7F4F7AA369A36E0189E0C80ED11C4A
:10263000DCA2CBA27E01E1E1EE0EF11CFEA2EDA236
:102640008E01075E1F4F18A70FA3E0916E05F09152
:102650006F054AE0808191810E94AB28E091F205EC
:10266000F091F3054AE0B601808191810E94AB2888
:10267000E091EE05F091EF054AE0B701808191818C
:102680000E94AB2861E070E0C8010E944A0DE09111
:102690005E05EE0FFF0BEF5DFE4F20813181409113
:1026A000E305475F60E08EE795E00E94791D5E01DB
:1026B000F1E2AF0EB11C0F2EF8E5CF2EF2E0DF2EC7
:1026C000F02D0F2EF0E5EF2EF2E0FF2EF02D13E0AF
:1026D000F501819091905F01B4018EE795E00E9431
:1026E000E11D082FF601219131916F014091E30521
:1026F000149F402D112460E08EE795E00E94791D23
:102700004091E305149F402D11249401672D8EE71D
:1027100095E00E94791DF701219131917F0140914F
:10272000E305149F402D112460915C056695670DAB
:10273000600F8EE795E00E94791D1F5F173041F60C
:1027400081E080932901A8960FB6F894DEBF0FBEF2
:10275000CDBFDF91CF911F910F91FF90EF90DF9050
:10276000CF90BF90AF909F908F907F900895CF9320
:10277000DF93CDB7DEB728970FB6F894DEBF0FBE54
:10278000CDBF10920706E0910506F09106064AE0DB
:10279000BE016F5F7F4F808191810E94AB28E091E5
:1027A0005E05EE0FFF0BEF5DFE4F20813181409102
:1027B000E305475F60E08EE795E00E94791D409158
:1027C000E305440F475F9E012F5F3F4F60E08EE7B8
:1027D00095E00E94791D81E08093290128960FB62B
:1027E000F894DEBF0FBECDBFDF91CF910895109258
:1027F0000706E0915E05EE0FFF0BEF5DFE4F2081B7
:1028000031814091E305475F60E08EE795E00E94EB
:10281000791D1092290108952F923F924F925F9255
:102820006F927F928F929F92AF92BF92CF92DF92E0
:10283000EF92FF920F931F93CF93DF9300D000D0BE
:102840001F92CDB7DEB781E08093070610915C053B
:10285000812F90E09C01220F331F122F180F6091DF
:1028600012017091130180911401909115010E9441
:10287000D2263B0177231CF42FEF621A720A75945B
:10288000679483E0680E711CE0913B048AEF8E0F21
:10289000853030F510920706A0916205AA0FBB0B98
:1028A00080916C0590916D05A80FB91F0E2E000C3C
:1028B000FF0BE35AFA4F20818D919C911197821B57
:1028C000910927FD93958D939C93E0913B040E2EE7
:1028D000000CFF0BE35AFA4F1082E1E0ED8301C0D8
:1028E0001D820F2EF7E1AF2EF1E0BF2EF02D812CCF
:1028F000912CC12CD12C0F2EFDE54F2EF5E05F2E33
:10290000F02D0F2EFEEF3F2EF02D310E2091E3051E
:102910002C9DC0012D9D900D11247C01F9E0EF0E3E
:10292000F11CF2018581082E000C990B8C159D0578
:1029300009F06CC061E08EE795E00E948B1E2E2CA2
:10294000260C21EC31E0422D60E08EE795E00E94FC
:10295000791DFD81FF2389F161E08EE795E00E94FA
:102960008B1E0091E3050F5FF501608171818EE799
:1029700095E00E94E11D9091E305422D491B4F5FB8
:102980006894EE24E1F8282F632D8EE795E00E94ED
:10299000931660E08EE795E00E948B1EF501208182
:1029A0003181422D612F8EE795E00E94791D61E013
:1029B0008EE795E00E948B1E09C0F50120813181D0
:1029C000422D612F8EE795E00E94791DE0916C0504
:1029D000F0916D05E80DF91D4AE0BE016F5F7F4F74
:1029E000808191810E94AB28F501608171818EE721
:1029F00095E00E94E11D682F610F9E012F5F3F4F00
:102A0000422D8EE795E00E94791D2AC00E2D060DFD
:102A1000F50120813181402F612F8EE795E00E94E2
:102A2000791DE0916C05F0916D05E80DF91D4AE006
:102A3000BE016F5F7F4F808191810E94AB28F501BD
:102A4000608171818EE795E00E94E11D612F680F22
:102A50009E012F5F3F4F402F8EE795E00E94791D2A
:102A6000FFEFCF1ADF0A22E0820E911C82E0A80E4F
:102A7000B11CE5E0CE16D10409F048CF81E0809387
:102A800029010F900F900F900F900F90DF91CF9131
:102A90001F910F91FF90EF90DF90CF90BF90AF907C
:102AA0009F908F907F906F905F904F903F902F906E
:102AB000089580913B048230E9F02CF4882341F0A2
:102AC000813049F026C08330D1F08430E9F021C054
:102AD0000E94BC1108950E942C1280911601882337
:102AE00019F0813021F008950E94120F08950E947C
:102AF000831008950E942C120E94F11208950E94E2
:102B00002C120E94B71308950E942C120E94F713F2
:102B100008958550863028F40E942C120E940C14CF
:102B200008950E941D1208950E94D20E0E94CB0D9E
:102B300080912901811104C080913C04882389F08F
:102B400081E0809329018EE795E00E94F8170E94AA
:102B500059158EE795E00E940B188111F8CF10925D
:102B60003C0408951092B90088E48093B800089559
:102B7000CF93DF93ECEBF0E044EAA9EBB0E0CBEBD2
:102B8000D0E054E864E9408320E030E0908199236C
:102B900034F02F5F3F4F211591E03907B9F79C9131
:102BA000987F983011F0903171F78883508320E03E
:102BB00030E09081992334F02F5F3F4F211591E051
:102BC0003907B9F79C91987F903211F0983569F4E4
:102BD000608320E030E0908194FFD5CF2F5F3F4F9E
:102BE000211591E03907B9F7CECFDF91CF91089544
:102BF00084E98093BC0080E090E0ECEBF0E0208181
:102C000024FF05C00196811521E09207C1F70895C0
:102C10008093BB0084E88093BC008FEF90E0A0E03D
:102C2000B0E0ECEBF0E0208122232CF00197A10929
:102C3000B109C8F704C0892B8A2B8B2B41F09091E6
:102C4000B900987F81E0983219F480E0089581E01E
:102C50000895DF92EF92FF920F931F93CF93DF932C
:102C60007C01162FC42FD22ED02F042F0D0F262F0C
:102C70002D0D0E94AC1E882361F0DD2351F000E091
:102C80002D2D4C2F612FC7010E94FB1DCF5FD1500E
:102C9000B1F7DF91CF911F910F91FF90EF90DF90EF
:102CA0000895CF92DF92EF92FF920F931F93CF93ED
:102CB000DF937C01D62FC42FD22E102FC62EC20E2A
:102CC000042F010F2C2D0E94AC1E882319F100E067
:102CD0002D2D4C2F6D2FC7010E94FB1D1230D0F0FF
:102CE0001250CF5F112379F001E0212F4C2F6D2F6F
:102CF000C7010E94FB1D6FEF6C0D212F4C2FC701E8
:102D00000E94FB1DC10F00E02D2D4C2F6D2FC70120
:102D10000E94FB1DDF91CF911F910F91FF90EF90CB
:102D2000DF90CF9008957F928F929F92AF92BF9243
:102D3000CF92DF92EF92FF920F931F93CF93DF9387
:102D40006C01162FF42EB22EC02FA42EA00ED62F5B
:102D5000D20F0A2D2D2F0E94AC1E882309F449C0E2
:102D6000812E8E0C9F2C9E0C8E2D8095D80FA80E38
:102D700002E02E2D492D682DC6010E94321901E076
:102D80002E2D492D6D2FC6010E94321904E02E2DE3
:102D90004A2D682DC6010E94321908E02E2D4A2DB9
:102DA0006D2FC6010E9432192B2D2E192E1923309A
:102DB00098F08394DEEFD20F772473947E0C072D66
:102DC0002D2F4F2D682DC6010E9429162D2F4A2D1B
:102DD000682DC6010E942916CE19CE19C33048F0BD
:102DE0000EEF0C0F41E0490D2B2D612FC6010E9403
:102DF0002916DF91CF911F910F91FF90EF90DF90F7
:102E0000CF90BF90AF909F908F907F9008958F92BA
:102E10009F92AF92BF92CF92DF92EF92FF920F9369
:102E20001F93CF93DF93EC01162FF42EC22EB02EFA
:102E3000A42EA00ED62ED20E0A2D2D2D0E94AC1E31
:102E4000882309F452C0812E8E0C9F2C9E0C8E2D4F
:102E50008095D80EA80E02E02E2D492D682DCE01AA
:102E60000E94E01801E02E2D492D6D2DCE010E940B
:102E7000E01804E02E2D4A2D682DCE010E94E018A6
:102E800008E02E2D4A2D6D2DCE010E94E0182C2D2C
:102E90002E192E190B2D0E190E192330A0F0839424
:102EA0000F2EFEEFEF2EF02DE20E2E2D4F2D682D62
:102EB000CE010E946A1E4FEF4B0D4F0D2E2D682D37
:102EC000CE010E946A1E033080F093940250202F9E
:102ED000492D612FCE010E94701E6FEF6C0D610FA6
:102EE000202F492DCE010E94701EDF91CF911F919E
:102EF0000F91FF90EF90DF90CF90BF90AF909F9099
:102F00008F900895AF92BF92CF92DF92EF92FF928F
:102F10000F931F93CF93DF937C01DC019496BC90B9
:102F200094979596DC919597ED91FC91A188CD2F82
:102F3000C12CD12CD701ED91FC911197208992964B
:102F40000D911C919397422F50E0440F551F440F51
:102F5000551F440F551F4C9DC0014D9D900D5C9D0C
:102F6000900D1124080F191F4C2F60E0C7010E941B
:102F70000522CF5F8C2F8D1B8B1528F4BFEFCB1A4A
:102F8000DB0ACA15B8F2DF91CF911F910F91FF9024
:102F9000EF90DF90CF90BF90AF900895FC01A0819B
:102FA000B18150969C9144A1949FA0011124440F9B
:102FB000551F440F551F440F551F60E070E082A15C
:102FC00093A10E9490280895CF93DF93EC016DA305
:102FD000E8A1F9A10190F081E02D0995E8A1F9A1FE
:102FE0000280F381E02DCE010995DF91CF91089504
:102FF000CF93DF93EC01FC01EC59FF4F80818823D4
:1030000019F0CE010E94CE1760E0CE010E94E417B5
:10301000DF91CF9108951F93CF93DF93EC010E942E
:1030200082171DA18CA1180FE881F98181891817D9
:1030300028F0CE010E94492280E00EC0FE01EC592A
:10304000FF4F8081882319F0CE010E94CE17612F97
:10305000CE010E94E41781E0DF91CF911F91089586
:10306000CF92DF92EF920F931F93CF93DF936C0178
:10307000D62F142FC22FE0FE0DC0402F411B622F10
:103080006D0F0E94761E402F4D1B612F6C0FC601E5
:103090000E94761EE1FE0EC0402F411B6C2F6D1B5F
:1030A000C6010E94761E402F4D1B6C2F611BC6016E
:1030B0000E94761EE3FE0EC0402F410F6C2F6D0F55
:1030C000C6010E94761E402F4D0F612F6C0FC60166
:1030D0000E94761EE2FE0EC0402F410F6C2F6D1B2A
:1030E000C6010E94761E402F4D0F6C2F611BC6013A
:1030F0000E94761EDF91CF911F910F91EF90DF908C
:10310000CF900895CF92DF92EF920F931F93CF93BA
:10311000DF936C01C62F142FD22FE0FE11C021E0E7
:10312000240F402F411B6D2F6C0F0E94701E21E059
:103130002C0F402F4C1B612F6D0FC6010E94701E7B
:10314000E1FE12C021E0210F402F411B6D2F6C1BAF
:10315000C6010E94701E21E02C0F402F4C1B6D2FCA
:10316000611BC6010E94701EE3FE10C021E0210F0A
:10317000402F6D2F6C0FC6010E94701E21E02C0F96
:10318000402F612F6D0FC6010E94701EE2FE10C01D
:1031900021E0210F6D2F6C1B402FC6010E94701E75
:1031A00021E02C0F6D2F611B402FC6010E94701E65
:1031B000DF91CF911F910F91EF90DF90CF90089505
:1031C0008F929F92AF92BF92CF92DF92EF92FF9237
:1031D0000F931F93CF93DF935C01C62E942EC22FC3
:1031E000802E01E0020F040F21E0260F2C0F4C1B54
:1031F0006C1B0E94AC1E882341F1D1E0DC1BDC2E4D
:10320000D194DD0CE82C092D2C2D4C2F60E0C5014C
:103210000E943018CC23C9F00F2EF3E0FF2EF02DC2
:1032200010E0DD2324F0C150D394D394DD0D1F5F53
:10323000DF0DE82C092D2C2D4C2F612FC5010E948C
:103240003018F394F3941C1760F3DF91CF911F9122
:103250000F91FF90EF90DF90CF90BF90AF909F9035
:103260008F9008958F929F92AF92BF92CF92DF92EC
:10327000EF92FF920F931F93CF93DF935C01C62EC3
:10328000942EC22F802E01E0020F040F21E0260FA2
:103290002C0F4C1B6C1B0E94AC1E882341F1D1E00B
:1032A000DC1BDC2ED194DD0CE82C092D2C2D4C2FB1
:1032B00060E0C5010E948218CC23C9F00F2EF3E014
:1032C000FF2EF02D10E0DD2324F0C150D394D394D1
:1032D000DD0D1F5FDF0DE82C092D2C2D4C2F612FEC
:1032E000C5010E948218F394F3941C1760F3DF91D8
:1032F000CF911F910F91FF90EF90DF90CF90BF90F3
:10330000AF909F908F90089522E0FC0120838DE381
:1033100094E00895CF92DF92EF92FF920F931F9364
:10332000CF93DF931F92CDB7DEB77C016B0189018C
:103330009A014AE451E26DED72E20E942223CE012D
:1033400001960E948419860127EC3EE14981BC0167
:10335000C7010E94BE1F0F90DF91CF911F910F9167
:10336000FF90EF90DF90CF900895FC01E60FF11DE4
:10337000849190E0982F88273196E4918E0F911DCB
:10338000089580E008950F931F93CF93DF93EC018E
:103390008B01FB01849188833196E491E983FB01E1
:1033A0003296E491EA83FB013396E491EB83FB01CF
:1033B0003496E491EC83FB013596E491ED83FB01B7
:1033C0003696E491EE83FB013796E491EF83FB019F
:1033D0003896E491E887FB013996E491E987FB018F
:1033E0003A96E491EA87FB013B96E491EB87FB0177
:1033F0003C96E491EC87FB013D96E491ED87FB015F
:103400003E96E491EE87FB013F96E491EF87FB0146
:103410007096E491E88B61E1C8010E94B5199A8B1E
:10342000898B63E1C8010E94B5199C8B8B8B65E188
:10343000C8010E94B5199E8B8D8BDF91CF911F9192
:103440000F910895DC0118969C911897ED91FC91CD
:103450001197249130E0092E02C0359527950A94E2
:10346000E2F7892F860F883010F4E22F0FC03196D3
:103470001196FC93EE93E491F0E038E0391B02C022
:10348000EE0FFF1F3A95E2F7E22B885018968C93C7
:1034900081E090E002C0880F991F6A95E2F78150A1
:1034A0008E2308950F931F93CF93DF93EC018C012C
:1034B000075C1F4F7AAF69AFFC01EF5BFF4F1082D3
:1034C00039966081C8010E94221A8FAFFE01E55B28
:1034D000FF4F6081C8010E94221AFE01E05CFF4F8D
:1034E0008083B3968081B0978083CC5BDF4F91E07F
:1034F000811190E09883DF91CF911F910F910895F2
:10350000CF93C62F0E94221AC15021E030E002C0A2
:10351000220F331FCA95E2F7821BCF910895213005
:1035200031F018F0223029F006C0840F0895860F7C
:103530000895841B0895861B0895213031F018F0FA
:10354000223029F006C0860F0895841B0895861B3B
:103550000895840F08952F923F924F925F926F9239
:103560007F928F929F92AF92BF92CF92DF92EF9213
:10357000FF920F931F93CF93DF9300D000D000D022
:10358000CDB7DEB77C016E83342EFC0175AC16AD71
:103590006C01F5E4CF0ED11C5C0182E4A80EB11CD5
:1035A000470193E6890E911CF701EC5BFF4FFC830A
:1035B000EB83C7018D5B9F4F9A838983F701F7AD3A
:1035C000F719FD835E80F51508F45F2EF70164ACF2
:1035D000F6010081212E202F412F672DF70183ADA9
:1035E0000E949D1A482E202F412F672D862D0E9464
:1035F0008F1A332061F0E981FA819081F401908380
:10360000252D482F642DC7010E94FB1D0FC0F50119
:10361000908191110BC0EB81FC819081F40190832A
:10362000252D482F642DC7010E94FB1DFE818D8131
:10363000F81728F0F81BFE831F5F712CBFCF8E8117
:10364000870DF70185AF26AE26960FB6F894DEBF3C
:103650000FBECDBFDF91CF911F910F91FF90EF90E3
:10366000DF90CF90BF90AF909F908F907F906F90A2
:103670005F904F903F902F9008958F929F92AF92BE
:10368000BF92CF92DF92EF92FF920F931F93CF934F
:10369000DF93EC017C0189E3E80EF11CCE010E946E
:1036A000521AFE01E05CFF4F90803C966081C7019A
:1036B0000E94801AB82EFE01E35BFF4F6081C701B4
:1036C0000E94801A182FFE01E25BFF4F6081C70144
:1036D0000E94801A882EDFAC1D140CF079C0FE0108
:1036E000EB5BFF4F0081190D1195202F412F6B2DA2
:1036F0008BAD0E949D1AC82E8BAF202F412F6B2DB2
:103700008CAD0E948F1A8CAF013059F028F0023036
:1037100091F00330D9F023C02D2D2C0D092D080F69
:1037200020C09C2D991921E02C0D0D2D080FCC24C3
:10373000C394C90E16C091E0392F3D1921E02C0D1C
:10374000991901E0080F890FC30E0BC0292D2C0D0C
:10375000982F9D1901E0080F81E0890F02C0082F02
:103760002C2D482F6C2DCE010E94AC1E882381F198
:103770001DAE1EAE5E01E8E4AE0EB11C6E01F9E4B2
:10378000CF0ED11CF5016081C7010E94221A082FBB
:10379000F6016081C7010E94221A182F40E0602FB5
:1037A000CE010E94AB1A41E0612FCE010E94AB1AFC
:1037B00061E0C7010E94221A8111F0CF8EAD8915F8
:1037C0000CF3FE01ED59FF4FCD5BDF4F8881808305
:1037D000882DDF91CF911F910F91FF90EF90DF9097
:1037E000CF90BF90AF909F908F900895EF92FF92EF
:1037F0000F931F93CF93DF93FC01C5A9D6A96796BA
:103800006F3F710511F008F036C06136710538F070
:10381000E75AFF4F80819181C80FD91F0AC06134D8
:10382000710538F0FC01E95AFF4F80819181C80F82
:10383000D91FCE010196FC012491222309F45AC01C
:10384000FE01249130E06217730751F406C0FE01B7
:10385000249130E06217730719F4CE01029652C02A
:10386000FC018491C80FD11DCE010196FC01249169
:103870002111EDCF42C08B01FC01E55AFF4F808141
:103880009181C80FD91F7E0160E0C7010E94B51960
:10389000C80FD91F62E0C7010E94B519F4E0EF0E0E
:1038A000F11C8017910780F3FE01849190E0982F1E
:1038B00088273196E4918E2B009711F1081719078C
:1038C00039F403C00817190719F4CE0103961AC07A
:1038D000FE013296E491CE0FD11DFE01849190E05D
:1038E000982F88273196E4918E2B009759F780E026
:1038F00090E008C080E090E005C080E090E002C069
:1039000080E090E0DF91CF911F910F91FF90EF90B9
:1039100008950F931F93CF93DF93EC010E94F61B42
:103920000097F1F0BC01CE010E94521A8E01075C93
:103930001F4FFE01E45BFF4F6081C8010E94801AA7
:10394000FE01EF59FF4F808374976081C8010E9488
:10395000801AC25BDF4F6881C8010E94801A01C0D3
:1039600080E0DF91CF911F910F910895EF92FF9228
:103970000F931F93CF93DF93EC01E62EF72E1FAE2C
:103980000E94F81F0E2D1F2DE12CF12CF8016191E2
:103990008F01EA81FB81CE0109958F3FFFEF9F07E1
:1039A00059F08E3F2FEF920789F3BC01CE010E94A0
:1039B000891CE82EF80EEACF8FAD882331F0CF595D
:1039C000DF4F9881890FF80EFE188F2DDF91CF9170
:1039D0001F910F91FF90EF900895EF92FF920F9338
:1039E0001F93CF93DF93EC01062F142F7901FC0175
:1039F000EB5BFF4F8081813061F028F0823079F0FD
:103A0000833099F017C0EFA9F8ADCE010995180FD2
:103A100011C0EFA9F8ADCE010995081B0BC0EFA9A5
:103A2000F8ADCE010995181B05C0EFA9F8ADCE0180
:103A30000995080F0BAF1CAFB701CE010E94F61B12
:103A4000009729F0BC01CE010E943D1B01C080E01F
:103A5000DF91CF911F910F91FF90EF900895BF924A
:103A6000CF92DF92EF92FF920F931F93CF93DF934A
:103A7000EC01B62EC42EE22EF32E0E94F81F0E2D5E
:103A80001F2DD12C7E0125E4E20EF11CF80161917D
:103A90008F01EA81FB81CE0109958F3FFFEF9F07E0
:103AA000E9F08E3F2FEF920789F39C014C2D6B2D8F
:103AB000CE010E94ED1CF7019081913041F028F079
:103AC000923039F0933039F007C0B80E05C0C80EF7
:103AD00003C0B81A01C0C81AD80ED8CF8D2DDF91F7
:103AE000CF911F910F91FF90EF90DF90CF90BF90FB
:103AF0000895EBEEFFE1DC011396FC93EE93129731
:103B00000E942F1D0895FC0125A936A9232BE9F158
:103B1000ED5AFF4F20813C9620833B9740813C9695
:103B2000408332973081332381F1313079F43997F2
:103B30003081231714F43A963083FC01EA5AFF4F80
:103B40002081241714F53A9620830895FC01E05B48
:103B5000FF4FE081DC01AE5ABF4F5C91022E000C9A
:103B6000330B652F052E000C770B6E0F711DE7FDD3
:103B70007A95261737071CF41D96E50FEC9354171A
:103B800024F4FC01E05AFF4F5083089521EC39E101
:103B9000FC0130AF27AB0895CF93DF93FC0125A93B
:103BA00036A92617370751F0EC0176AB65AB8A5B77
:103BB0009F4F0E94C319CE010E94831DDF91CF91B8
:103BC00008952BEE3FE1FC01338322830E94B61C53
:103BD00008958B5B9F4FFC01608308950F93DC0178
:103BE00098963C919897431B5E96ED91FC915F9758
:103BF00009950F9108950F93FC01E35AFF4F30810F
:103C0000332309F465C0222309F462C0223058F03E
:103C1000023019F46F5F621B0AC0033021F44F5F5A
:103C2000421B51E02DC0502F517000FD29C0DC0116
:103C30009F963C919F97431708F44AC0D0963C91B9
:103C4000D097431708F044C09E963C919E979D964E
:103C50005C91260F261730F4631718F42FEF230F0B
:103C600003C0652F6317A0F5521790F5651708F488
:103C7000652F231708F4322F232F261B50E01EC078
:103C8000FC0135A5631720F136A5631708F530A9A7
:103C900077A5240F241730F4431718F42FEF230FC0
:103CA00003C0472F4317A0F4721790F4471708F486
:103CB000472F231708F4322F232F241BDC01909663
:103CC000ED91FC9191970480F581E02D052F0995E8
:103CD0000F9108950F9300E00E94FB1D0F9108952E
:103CE0000F9301E00E94FB1D0F9108950F93FC01BB
:103CF00087A5481770F080A9481758F485A568175C
:103D000040F086A5681728F4CF0100E021E00E946A
:103D1000FB1D0F910895633028F4FC01ED59FF4F0E
:103D200060830895FC01ED59FF4F21E02083089541
:103D3000461738F4821760F081E0241760F080E0C5
:103D40000895821738F481E0241728F080E0089560
:103D500081E0089580E00895FF920F931F93CF9321
:103D6000DF93EC01162FF22E202F68A98FA50E9459
:103D7000981E882331F02F2D412F6EA58DA50E940E
:103D8000981EDF91CF911F910F91FF900895EF92B0
:103D9000FF920F93CF93DF937C01342F377081E034
:103DA00090E0032E02C0880F991F0A94E2F7C82FF3
:103DB000F701ED59FF4F5081523020F4513021F07E
:103DC000782F04C070E002C0782FC0E050E0487F38
:103DD000D70192968D919C919397ED91FC91D0890A
:103DE000D49FF001D59FF00D1124E60FF11DE80FCF
:103DF000F91F011107C08081872B8C2781932150E7
:103E0000D1F722C0A7014D595F4F9081972B9C2776
:103E100090833F5F3770215031110EC0D7019696C5
:103E20008C91E80FF11DDA018C91823040F48130E1
:103E300041F0C1E071E006C0770FCC0F03C0C1E0D4
:103E400001C071E02111E1CFDF91CF910F91FF907F
:103E5000EF900895FC01A081B18184A1982F990F62
:103E6000990F990F97A350969C915097903208F014
:103E70009FE1990F990F990F96A345A1942F990F40
:103E8000990F990F90A751965C915197242F30E08C
:103E9000280F311D652F70E06217730714F4852F0A
:103EA000841B91A7880F880F880F890F82A780EF46
:103EB00083A754968D919C915597813F910508F465
:103EC00083A756968C9184A708950E942A1F08956F
:103ED0000F93CF93DF93EC010CA92AA94BA969A9F1
:103EE0000E94AC1E811104C0C35ADF4F188219C052
:103EF00081E0FE01E35AFF4F808389A99DA59817B1
:103F000008F48DA78AA99EA5891708F48EA78BA906
:103F10009FA5981708F48FA78CA998A9891708F46A
:103F200088ABDF91CF910F910895FC0115A683A571
:103F300086A781A587A782A580ABCF010E94681FB5
:103F400008950F930E94EE1D0F910895DC01D19604
:103F50001C92D197D3961C92D3978FEFD2968C93C5
:103F6000D297D4968C93D4979096ED91FC9191979B
:103F70000280F381E02DCD01099508950F931F93E1
:103F8000CF93DF93EC011EAA1DAA3F8F2E8F7BA338
:103F90006AA34CA31DA2FC01EE5BFF4F1082B096FA
:103FA0001082319681E080833196808319A308A323
:103FB000D801ED91FC91CE010995CE010E94A61F7A
:103FC000CE010E94C61DCB5BDF4F1882DF91CF91DF
:103FD0001F910F910895662329F06A3031F0862FE2
:103FE00090E008958FEF9FEF08958FEF9FEF089572
:103FF000FC01108E08950F931F93CF93DF936831C8
:1040000019F128F46431E1F0673139F027C06931E2
:1040100009F1603219F581E024C08FEF840F442349
:10402000F9F0E901082F10E00F5F1F4F020F131F77
:1040300089910E9408160C171D07D1F781E011C065
:104040000E94B21581E00DC0FC0186890E94B8155E
:1040500081E007C00E94F81581E003C080E001C044
:1040600081E0DF91CF911F910F9108956A3251F055
:1040700018F4693259F033C06B3261F06C3279F563
:1040800081E00895411119C081E0089541111DC0DA
:1040900081E00895242F30E0A4E6B0E00E9481285A
:1040A00020EA3FE040E050E00E945F282332C8F45D
:1040B000822F0197F1F781E0089583E08A95F1F767
:1040C00000004150D1F781E0089589EF90E0019719
:1040D000F1F700C000004150C1F781E0089580E091
:1040E000089581E008959A01DC011896ED91FC9104
:1040F0001997462F67E109950895CF93DF931F9293
:10410000CDB7DEB76983AE014F5F5F4F61E00E94BC
:1041100073200F90DF91CF910895DC011896ED91F7
:10412000FC91199720E030E040E068E1099508959E
:10413000DC011896ED91FC91199720E030E040E009
:1041400069E109950895EF92FF921F93CF93DF9352
:10415000EC01162F7A010E948D2060E4CE010E94AE
:104160007D20E885F9859701412F67E1CE0109950A
:10417000CE010E949820DF91CF911F91FF90EF9088
:104180000895462FDC011696ED91FC91179720E0DB
:1041900030E065E109950895462FDC011696ED9112
:1041A000FC91179720E030E066E1099508959A01A7
:1041B000DC011696ED91FC911797462F67E1099562
:1041C0000895DC011696ED91FC91179720E030E000
:1041D00040E068E109950895DC011696ED91FC91A7
:1041E000179720E030E040E069E109950895EF92EB
:1041F000FF920F931F93CF93DF931F92CDB7DEB73C
:104200007C018B01D8016C916731C1F018F46531E4
:1042100030F438C06A31F8F06E3F51F133C0F80124
:1042200041814983D7011696ED91FC91179720E0C3
:1042300030E0C70109950E5F1F4FE4CFF80181817F
:104240008983AE014F5F5F4F61E0C7010E94D720B5
:104250000E5F1F4FD7CF0F5F1F4FD7011696ED91FF
:10426000FC91179720E030E040E0C7010995CACFE4
:10427000F8014181498369E2C7010E9400230E5F72
:104280001F4FC0CF0F90DF91CF911F910F91FF90E3
:10429000EF900895EF92FF920F931F93CF937C01BD
:1042A000C42F8901663129F130F4643109F442C028
:1042B000653149F062C0683109F450C0F8F06931E5
:1042C00009F450C05AC080913D05882319F0C701F8
:1042D0000E949820C7010E948D2060E0C7010E94C3
:1042E0007D206C2FC7010E947D2081E080933D05D9
:1042F00045C0642F0E947D2081E040C080913D0533
:10430000882319F0C7010E949820C93150F0A801F4
:1043100068E1C7010E94A320C851085E1F4FC93140
:10432000B0F7A8016C2FC7010E94A32010923D0591
:1043300081E024C0DC0156968C9156978F3F19F48A
:1043400088E756968C93D7011896ED91FC911997B2
:1043500098014C2F64E1C701099510C010923D05EA
:1043600081E00CC080913D05882319F0C7010E94AF
:10437000982010923D0581E001C080E0CF911F910F
:104380000F91FF90EF900895FC0171836083FB0112
:104390002289FC01248B0895CF93DF93EC01EA85F9
:1043A000FB8520E030E040E068E20995EE81FF8186
:1043B00020E030E040E064E1CE01099541E06BE4AB
:1043C000CE010E940023E881F981448169E2CE0197
:1043D0000E94002340E06BE4CE010E940023E881AC
:1043E000F981448169E2CE010E94002341E06BE43F
:1043F000CE010E940023E881F981458169E2CE0166
:104400000E940023DF91CF9108950F931F93CF93C4
:10441000DF9300D000D01F92CDB7DEB76C834D8301
:104420002B831A830983DC011496ED91FC91159777
:104430009E012F5F3F4F41E06FE009950F900F9075
:104440000F900F900F90DF91CF911F910F910895D2
:10445000DC011496ED91FC91159720E030E040E0EE
:1044600069E009950895DC011496ED91FC9115978A
:1044700020E030E040E06AE009950895462FDC0135
:104480001496ED91FC91159720E030E06BE00995D2
:104490000895DC011496ED91FC91159720E030E031
:1044A00040E060E109950895EF92FF920F931F930A
:1044B000CF93DF938C01C42F79016D30B9F018F4DC
:1044C0006B3031F072C06E3069F16F30D1F16DC078
:1044D000411106C061E972E00E94F72081E066C0E8
:1044E0006CE872E00E94F72081E060C041110DC0CD
:1044F00065E872E00E94F720D801ED91FC911197D8
:10450000828954968C9381E051C06EE772E00E94DC
:10451000F720D801ED91FC911197838954968C93E3
:1045200081E044C00E94E12061E8C8010E94C120EE
:104530006C2FC8010E94CC20C8010E94EC2081E0B1
:1045400035C00E94E120F701D381DD0FDD0FDD0FC3
:10455000D80154968C91D80F60E4C8010E94C12004
:104560006D2F62956F706061C8010E94C1206D2F30
:104570006F70C8010E94CC20F7016481606BC80194
:104580000E94CC20D7014D915C91119712966C91AD
:10459000660F660F660FC8010E94D720C15091F7C1
:1045A000C8010E94EC2081E001C080E0DF91CF9142
:1045B0001F910F91FF90EF9008950F931F93CF934A
:1045C0008C01C62F0E945422811115C0C93061F0A0
:1045D000CA3091F4C8010E94CC2166E972E0C8019A
:1045E0000E94F72081E008C066E672E0C8010E94E0
:1045F000C42181E001C081E0CF911F910F91089506
:10460000DC011A96ED91FC911B9720E030E00995B2
:10461000089580E00895FC011182108289E093E200
:104620009583848397838683918780879387828706
:10463000158A108E14861586168617868FEF868B40
:10464000828F0895AF92BF92CF92DF92EF92FF9246
:104650000F931F93CF93DF93EC015B016A01790104
:104660000E940B23BD82AC82DF82CE82F986E8866F
:104670001B870A87CE010E942822DF91CF911F91CC
:104680000F91FF90EF90DF90CF90BF90AF90089583
:10469000E1ECF0E0208128612083E2ECF0E0208171
:1046A00027602083DC01CB01880F991FAA1FBB1F45
:1046B000880F991FAA1FBB1F9C01AD01220F331F3A
:1046C000441F551F220F331F441F551F60E074E223
:1046D00084EF90E00E945F288FEF820F8093C400E8
:1046E000DA01C9010197A109B109892F9A2FAB2FCE
:1046F000BB278093C5000895909309068093080610
:1047000050930F0640930E0670930D0660930C06AF
:10471000E8E6F0E0808184608083EDE6F0E080816F
:104720008160808360E875E280E090E00E94482329
:104730000895E0ECF0E080818823ECF78091C600DA
:1047400008958093C600E0ECF0E0808185FFFDCF06
:104750000895EF92FF920F931F93CF937C01C0E0D7
:1047600001C0CF5F87010C0F111D0E949923F80132
:1047700080838A30B1F71082CF911F910F91FF9003
:10478000EF900895CF93DF93EC018881882331F077
:1047900021960E94A12389918111FBCFDF91CF91B6
:1047A0000895EF92FF920F931F93CF93DF93CDB7AE
:1047B000DEB72A970FB6F894DEBF0FBECDBF8C01CF
:1047C00060ED72E00E94A228892B29F48BEC92E024
:1047D0000E94C223C7C168ED72E0C8010E94A228EE
:1047E000892B29F483ED92E00E94C223BBC16CEDBA
:1047F00072E0C8010E94A228892BB9F484EE92E0ED
:104800000E94C223E0910C06F0910D06A0910806CB
:10481000B09109062081318112968D919C91139758
:10482000820F931F918380839DC165EF72E0C80161
:104830000E94A228892B89F48AEF92E00E94C22369
:10484000E0910C06F0910D0611821082E0910E06A7
:10485000F0910F061182108285C167E073E0C801F4
:104860000E94A228892BB9F480E193E00E94C22320
:10487000E0910C06F0910D06A0910806B091090692
:104880008081918112962D913C911397821B930BFD
:104890009183808367C162E273E0C8010E94A2280D
:1048A000892B79F487E293E00E94C223E0910E06FF
:1048B000F0910F06808191818456910991838083C4
:1048C00051C165E373E0C8010E94A228892B79F4E5
:1048D0008BE393E00E94C223E0910E06F0910F0655
:1048E000808191818C599F4F918380833BC16AE481
:1048F00073E0C8010E94A228892BF1F4E091080618
:10490000F09109068081918101969183808381E5F0
:1049100093E00E94C223E0910806F09109064AE064
:10492000BE016F5F7F4F808191810E94AB28CE01D5
:1049300001960E94C22316C16CE573E0C8010E9473
:10494000A228892BF1F4E0910806F09109068081F4
:10495000918101979183808385E693E00E94C22331
:10496000E0910806F09109064AE0BE016F5F7F4FB3
:10497000808191810E94AB28CE0101960E94C223C2
:10498000F1C062E773E0C8010E94A228892BF1F40C
:10499000E0910806F09109068281938149969383FC
:1049A000828381E993E00E94C223E0910806F0919E
:1049B00009064AE0BE016F5F7F4F828193810E94AA
:1049C000AB28CE0101960E94C223CCC06AE773E0F7
:1049D000C8010E94A228892BF1F4E0910806F09109
:1049E0000906828193814997938382838CEA93E0BD
:1049F0000E94C223E0910806F09109064AE0BE0138
:104A00006F5F7F4F828193810E94AB28CE01019618
:104A10000E94C223A7C064E873E0C8010E94A228D4
:104A2000892BF1F4E0910806F091090686819781BF
:104A30004996978386838DE893E00E94C223E09194
:104A40000806F09109064AE0BE016F5F7F4F86813C
:104A500097810E94AB28CE0101960E94C22382C09A
:104A60006DE973E0C8010E94A228892BF1F4E0915E
:104A70000806F09109068681978149979783868376
:104A800088EA93E00E94C223E0910806F0910906AB
:104A90004AE0BE016F5F7F4F868197810E94AB28FD
:104AA000CE0101960E94C2235DC06AEB73E0C8018B
:104AB0000E94A228892B59F480EC93E00E94C22323
:104AC000E0910806F0910906118210824BC064ED56
:104AD00073E0C8010E94A228892B69F48BED93E052
:104AE0000E94C223E0910806F091090681E090E05F
:104AF0009183808337C06AEE73E0C8010E94A228C8
:104B0000892B69F481EF93E00E94C223E0910806AB
:104B1000F091090681E090E09183808323C086E0D4
:104B2000E2E3F1E09E012F5F3F4F7901D90101904F
:104B30000D928A95E1F7FE01379684E0DF011D9220
:104B40008A95E9F7B801C9010E949728F7010190F9
:104B50000020E9F731978AE090E091838083C701D4
:104B60000E94C2232A960FB6F894DEBF0FBECDBFB7
:104B7000DF91CF911F910F91FF90EF9008955058C2
:104B8000BB27AA270E94D7250C94A7270E94992704
:104B900038F00E94A02720F039F49F3F19F426F442
:104BA0000C946F270EF4E095E7FB0C946927E92F2E
:104BB0000E94B82758F3BA1762077307840795074E
:104BC00020F079F4A6F50C94DA270EF4E0950B2E7C
:104BD000BA2FA02D0B01B90190010C01CA01A0014F
:104BE0001124FF27591B99F0593F50F4503E68F1AA
:104BF0001A16F040A22F232F342F4427585FF3CFEB
:104C0000469537952795A795F0405395C9F77EF4BB
:104C10001F16BA0B620B730B840BBAF09150A1F004
:104C2000FF0FBB1F661F771F881FC2F70EC0BA0F8A
:104C3000621F731F841F48F4879577956795B79512
:104C4000F7959E3F08F0B0CF9395880F08F099270D
:104C5000EE0F979587950895DF93DD27B92FBF77DE
:104C600040E85FE31616170648075B0718F4D92FCC
:104C70000E94E6279F938F937F936F930E945B28F8
:104C8000E8E6F0E00E9472270E94A7272F913F914B
:104C90004F915F910E940128DD2351F09058A2EAC4
:104CA0002AED3FE049EC5FE3D0785D270E94D725ED
:104CB000DF910C94A7270E94452708F481E008950E
:104CC0000E9474260C94A7270E94A02758F00E94E7
:104CD000992740F029F45F3F29F00C94692751117E
:104CE0000C94DB270C946F270E94B82768F3992354
:104CF000B1F3552391F3951B550BBB27AA276217D8
:104D00007307840738F09F5F5F4F220F331F441FE4
:104D1000AA1FA9F335D00E2E3AF0E0E832D0915018
:104D20005040E695001CCAF72BD0FE2F29D0660F05
:104D3000771F881FBB1F261737074807AB07B0E848
:104D400009F0BB0B802DBF01FF2793585F4F3AF04E
:104D50009E3F510578F00C9469270C94DB275F3F48
:104D6000E4F3983ED4F3869577956795B795F795D4
:104D70009F5FC9F7880F911D9695879597F90895BC
:104D8000E1E0660F771F881FBB1F62177307840758
:104D9000BA0720F0621B730B840BBA0BEE1F88F767
:104DA000E09508950E94D9266894B1110C94DB27F0
:104DB00008950E94C02788F09F5798F0B92F99272F
:104DC000B751B0F0E1F0660F771F881F991F1AF0F6
:104DD000BA95C9F714C0B13091F00E94DA27B1E05A
:104DE00008950C94DA27672F782F8827B85F39F059
:104DF000B93FCCF3869577956795B395D9F73EF48F
:104E000090958095709561957F4F8F4F9F4F089536
:104E1000E89409C097FB3EF4909580957095619554
:104E20007F4F8F4F9F4F9923A9F0F92F96E9BB270A
:104E30009395F695879577956795B795F111F8CF86
:104E4000FAF4BB0F11F460FF1BC06F5F7F4F8F4FF1
:104E50009F4F16C0882311F096E911C0772321F0E7
:104E60009EE8872F762F05C0662371F096E8862F7F
:104E700070E060E02AF09A95660F771F881FDAF7D6
:104E8000880F9695879597F90895990F0008550F03
:104E9000AA0BE0E8FEEF16161706E807F907C0F0C0
:104EA00012161306E407F50798F0621B730B840BC8
:104EB000950B39F40A2661F0232B242B252B21F4A2
:104EC00008950A2609F4A140A6958FEF811D811D42
:104ED000089597F99F6780E870E060E008959FEF7C
:104EE00080EC0895DF93CF931F930F93FF92EF927F
:104EF000DF927B018C01689406C0DA2EEF010E94DC
:104F00000128FE01E894A59125913591459155918F
:104F1000A6F3EF010E94D725FE019701A801DA94BC
:104F200069F7DF90EF90FF900F911F91CF91DF9184
:104F3000089500240A9416161706180609060895FF
:104F400000240A9412161306140605060895092E65
:104F50000394000C11F4882352F0BB0F40F4BF2BD4
:104F600011F460FF04C06F5F7F4F8F4F9F4F089514
:104F700057FD9058440F551F59F05F3F71F047950A
:104F8000880F97FB991F61F09F3F79F087950895EF
:104F9000121613061406551FF2CF4695F1DF08C00E
:104FA000161617061806991FF1CF8695710561052B
:104FB00008940895E894BB2766277727CB0197F9D3
:104FC00008950E94452708F48FEF08959B01AC01D6
:104FD00060E070E080E89FE30C9460260E94012866
:104FE0000C94A7270E94992738F00E94A02720F050
:104FF000952311F00C9469270C946F2711240C94BD
:10500000DB270E94B82770F3959FC1F3950F50E0FE
:10501000551F629FF001729FBB27F00DB11D639F6A
:10502000AA27F00DB11DAA1F649F6627B00DA11D10
:10503000661F829F2227B00DA11D621F739FB00DB6
:10504000A11D621F839FA00D611D221F749F332726
:10505000A00D611D231F849F600D211D822F762FBF
:105060006A2F11249F5750409AF0F1F088234AF09C
:10507000EE0FFF1FBB1F661F771F881F9150504008
:10508000A9F79E3F510580F00C9469270C94DB270B
:105090005F3FE4F3983ED4F3869577956795B7958F
:1050A000F795E7959F5FC1F7FE2B880F911D9695A9
:1050B000879597F908959B01AC010C94EE27A1E226
:1050C0001A2EAA1BBB1BFD010DC0AA1FBB1FEE1F82
:1050D000FF1FA217B307E407F50720F0A21BB30BCD
:1050E000E40BF50B661F771F881F991F1A9469F749
:1050F00060957095809590959B01AC01BD01CF01A5
:105100000895A29FB001B39FC001A39F700D811DA0
:105110001124911DB29F700D811D1124911D0895C0
:10512000DC0101C06D9341505040E0F70895FB0150
:10513000DC010D900020E9F7119701900D920020FD
:10514000E1F70895FB01DC018D91019080190110B8
:10515000D9F3990B0895BB274A3031F4992322F4EF
:10516000BDE2909581959F4F0C94B728BB27FB011A
:105170005527AA27880F991FAA1FA41710F0A41B50
:1051800083955051B9F7A05DAA3308F0A95DA193AA
:10519000009779F7B111B1931192CB010C94D028FB
:1051A000DC01FC01672F71917723E1F7329704C08E
:1051B0007C916D9370836291AE17BF07C8F3089519
:0451C000F894FFCF91
:1051C4000000FF003200780008000A00FFFF000022
:1051D400404000005C4201F30100020D021A022764
:1051E40002340239023F0247020159016D017E0176
:1051F4008F0152583A3E200000000000507265733F
:1052040073202253656C656374220020746F2063DD
:105214006F6E74696E756521005350454349414C66
:10522400205448414E4B5320544F203A004272615F
:105234006D202C2057696C6C69616D2C2000416EC7
:10524400746F6E69732C20436F726E652C20005945
:1052540061736D696E652C204164696C004E6F202A
:10526400636F6E74656E742079657421004D6F648C
:10527400653A2000446972656374696F6E3A3E2032
:10528400002D3E2000302D32353500646567006303
:105294006D0053706565643A3E2020004469737460
:1052A400616E63653A3E200072756E54696D653AAD
:1052B4003E20004D6F64653A3E20202020202000CF
:1052C4004D61782053706565643A3E200064656CD6
:1052D40061793A3E2020202020004D696E207370B1
:1052E4006565643A3E200064756D6D793A3E202010
:1052F400202020004461746100416E676C650043A6
:105304006F6D706173730053657474696E677300B5
:10531400C501CB01CF01FF01D201B401DC01E801D9
:10532400651F951FA11F0001140A64643232001224
:105334007A00000428961008000080004000181528
:10534400A015C019FF1815A115C819FF1815AE1915
:10535400FF1815AF19FF1815AE15D5168015A81628
:105364003F15D316001540158D161415201600157B
:10537400A115C815DA1612158116CF15D916F1150F
:10538400DB1640152E15A415A619FF4C4544345FB1
:105394004F4E004C4544345F4F464600464F5257EB
:1053A4004152440044726976696E6720666F727771
:1053B400617264730053544F500053544F5020642F
:1053C400726976696E67004241434B57415244000B
:1053D40044726976696E67206261636B7761726497
:1053E40073004C454654005374656572696E6720BA
:1053F4004C6566740052494748540053746565729D
:10540400696E67205269676874004D4F4445555072
:10541400004D6F64652055703A3E20004D4F444561
:10542400444F574E004D6F646520646F776E3A3E6B
:10543400200053504545445550005350454544447D
:105444004F574E004D494E5350445550004D696ED0
:105454002053706565642055703A3E20004D494ED6
:10546400535044444F574E004D696E205370656548
:105474006420646F776E3A3E20004D4F44453000FF
:105484004D6F646520303A3E204175746F6E6F6DC8
:105494006F7573004D4F44453120004D6F64652096
:1054A400313A3E20536C617665004D4F44453220BD
:1054B400004D6F646520323A3E2052656D6F74650D
:0254C4000000E6
:00000001FF
